{
	"BFPayout.sol": {
		"BFPayout": {
			"abi": [
				{
					"inputs": [
						{
							"internalType": "address",
							"name": "_bfToken",
							"type": "address"
						},
						{
							"internalType": "address",
							"name": "_vault",
							"type": "address"
						},
						{
							"internalType": "address",
							"name": "_potWallet",
							"type": "address"
						},
						{
							"internalType": "address",
							"name": "_burnWallet",
							"type": "address"
						},
						{
							"internalType": "address",
							"name": "_signer",
							"type": "address"
						}
					],
					"stateMutability": "nonpayable",
					"type": "constructor"
				},
				{
					"inputs": [],
					"name": "ClaimExpired",
					"type": "error"
				},
				{
					"inputs": [],
					"name": "ContractPaused",
					"type": "error"
				},
				{
					"inputs": [],
					"name": "InsufficientVaultBalance",
					"type": "error"
				},
				{
					"inputs": [],
					"name": "InvalidSignature",
					"type": "error"
				},
				{
					"inputs": [],
					"name": "NonceUsed",
					"type": "error"
				},
				{
					"inputs": [],
					"name": "NotOwner",
					"type": "error"
				},
				{
					"inputs": [],
					"name": "TransferFailed",
					"type": "error"
				},
				{
					"inputs": [],
					"name": "ZeroAmount",
					"type": "error"
				},
				{
					"anonymous": false,
					"inputs": [
						{
							"indexed": true,
							"internalType": "address",
							"name": "oldBurn",
							"type": "address"
						},
						{
							"indexed": true,
							"internalType": "address",
							"name": "newBurn",
							"type": "address"
						}
					],
					"name": "BurnWalletUpdated",
					"type": "event"
				},
				{
					"anonymous": false,
					"inputs": [
						{
							"indexed": true,
							"internalType": "address",
							"name": "to",
							"type": "address"
						},
						{
							"indexed": false,
							"internalType": "uint256",
							"name": "amount",
							"type": "uint256"
						}
					],
					"name": "EmergencyWithdraw",
					"type": "event"
				},
				{
					"anonymous": false,
					"inputs": [
						{
							"indexed": false,
							"internalType": "bool",
							"name": "paused",
							"type": "bool"
						}
					],
					"name": "Paused",
					"type": "event"
				},
				{
					"anonymous": false,
					"inputs": [
						{
							"indexed": true,
							"internalType": "address",
							"name": "oldPot",
							"type": "address"
						},
						{
							"indexed": true,
							"internalType": "address",
							"name": "newPot",
							"type": "address"
						}
					],
					"name": "PotWalletUpdated",
					"type": "event"
				},
				{
					"anonymous": false,
					"inputs": [
						{
							"indexed": true,
							"internalType": "address",
							"name": "player",
							"type": "address"
						},
						{
							"indexed": false,
							"internalType": "uint256",
							"name": "playerAmount",
							"type": "uint256"
						},
						{
							"indexed": false,
							"internalType": "uint256",
							"name": "potAmount",
							"type": "uint256"
						},
						{
							"indexed": false,
							"internalType": "uint256",
							"name": "burnAmount",
							"type": "uint256"
						},
						{
							"indexed": false,
							"internalType": "bytes32",
							"name": "nonce",
							"type": "bytes32"
						}
					],
					"name": "PrizeClaimed",
					"type": "event"
				},
				{
					"anonymous": false,
					"inputs": [
						{
							"indexed": true,
							"internalType": "address",
							"name": "oldSigner",
							"type": "address"
						},
						{
							"indexed": true,
							"internalType": "address",
							"name": "newSigner",
							"type": "address"
						}
					],
					"name": "SignerUpdated",
					"type": "event"
				},
				{
					"anonymous": false,
					"inputs": [
						{
							"indexed": true,
							"internalType": "address",
							"name": "oldVault",
							"type": "address"
						},
						{
							"indexed": true,
							"internalType": "address",
							"name": "newVault",
							"type": "address"
						}
					],
					"name": "VaultUpdated",
					"type": "event"
				},
				{
					"inputs": [],
					"name": "BPS",
					"outputs": [
						{
							"internalType": "uint256",
							"name": "",
							"type": "uint256"
						}
					],
					"stateMutability": "view",
					"type": "function"
				},
				{
					"inputs": [],
					"name": "BURN_BPS",
					"outputs": [
						{
							"internalType": "uint256",
							"name": "",
							"type": "uint256"
						}
					],
					"stateMutability": "view",
					"type": "function"
				},
				{
					"inputs": [],
					"name": "PLAYER_BPS",
					"outputs": [
						{
							"internalType": "uint256",
							"name": "",
							"type": "uint256"
						}
					],
					"stateMutability": "view",
					"type": "function"
				},
				{
					"inputs": [],
					"name": "POT_BPS",
					"outputs": [
						{
							"internalType": "uint256",
							"name": "",
							"type": "uint256"
						}
					],
					"stateMutability": "view",
					"type": "function"
				},
				{
					"inputs": [],
					"name": "bfToken",
					"outputs": [
						{
							"internalType": "contract IERC20",
							"name": "",
							"type": "address"
						}
					],
					"stateMutability": "view",
					"type": "function"
				},
				{
					"inputs": [],
					"name": "burnWallet",
					"outputs": [
						{
							"internalType": "address",
							"name": "",
							"type": "address"
						}
					],
					"stateMutability": "view",
					"type": "function"
				},
				{
					"inputs": [
						{
							"internalType": "address",
							"name": "player",
							"type": "address"
						},
						{
							"internalType": "uint256",
							"name": "bfGross",
							"type": "uint256"
						},
						{
							"internalType": "bytes32",
							"name": "nonce",
							"type": "bytes32"
						},
						{
							"internalType": "uint256",
							"name": "expiry",
							"type": "uint256"
						},
						{
							"internalType": "bytes",
							"name": "signature",
							"type": "bytes"
						}
					],
					"name": "claimPrize",
					"outputs": [],
					"stateMutability": "nonpayable",
					"type": "function"
				},
				{
					"inputs": [
						{
							"internalType": "address",
							"name": "to",
							"type": "address"
						},
						{
							"internalType": "uint256",
							"name": "amount",
							"type": "uint256"
						}
					],
					"name": "emergencyWithdraw",
					"outputs": [],
					"stateMutability": "nonpayable",
					"type": "function"
				},
				{
					"inputs": [
						{
							"internalType": "address",
							"name": "player",
							"type": "address"
						},
						{
							"internalType": "uint256",
							"name": "bfGross",
							"type": "uint256"
						},
						{
							"internalType": "bytes32",
							"name": "nonce",
							"type": "bytes32"
						},
						{
							"internalType": "uint256",
							"name": "expiry",
							"type": "uint256"
						},
						{
							"internalType": "bytes",
							"name": "signature",
							"type": "bytes"
						}
					],
					"name": "isClaimValid",
					"outputs": [
						{
							"internalType": "bool",
							"name": "valid",
							"type": "bool"
						},
						{
							"internalType": "string",
							"name": "reason",
							"type": "string"
						}
					],
					"stateMutability": "view",
					"type": "function"
				},
				{
					"inputs": [],
					"name": "owner",
					"outputs": [
						{
							"internalType": "address",
							"name": "",
							"type": "address"
						}
					],
					"stateMutability": "view",
					"type": "function"
				},
				{
					"inputs": [],
					"name": "paused",
					"outputs": [
						{
							"internalType": "bool",
							"name": "",
							"type": "bool"
						}
					],
					"stateMutability": "view",
					"type": "function"
				},
				{
					"inputs": [],
					"name": "potWallet",
					"outputs": [
						{
							"internalType": "address",
							"name": "",
							"type": "address"
						}
					],
					"stateMutability": "view",
					"type": "function"
				},
				{
					"inputs": [
						{
							"internalType": "uint256",
							"name": "bfGross",
							"type": "uint256"
						}
					],
					"name": "previewSplit",
					"outputs": [
						{
							"internalType": "uint256",
							"name": "playerAmount",
							"type": "uint256"
						},
						{
							"internalType": "uint256",
							"name": "potAmount",
							"type": "uint256"
						},
						{
							"internalType": "uint256",
							"name": "burnAmount",
							"type": "uint256"
						}
					],
					"stateMutability": "pure",
					"type": "function"
				},
				{
					"inputs": [
						{
							"internalType": "address",
							"name": "_burn",
							"type": "address"
						}
					],
					"name": "setBurnWallet",
					"outputs": [],
					"stateMutability": "nonpayable",
					"type": "function"
				},
				{
					"inputs": [
						{
							"internalType": "bool",
							"name": "_paused",
							"type": "bool"
						}
					],
					"name": "setPaused",
					"outputs": [],
					"stateMutability": "nonpayable",
					"type": "function"
				},
				{
					"inputs": [
						{
							"internalType": "address",
							"name": "_pot",
							"type": "address"
						}
					],
					"name": "setPotWallet",
					"outputs": [],
					"stateMutability": "nonpayable",
					"type": "function"
				},
				{
					"inputs": [
						{
							"internalType": "address",
							"name": "_signer",
							"type": "address"
						}
					],
					"name": "setSigner",
					"outputs": [],
					"stateMutability": "nonpayable",
					"type": "function"
				},
				{
					"inputs": [
						{
							"internalType": "address",
							"name": "_vault",
							"type": "address"
						}
					],
					"name": "setVault",
					"outputs": [],
					"stateMutability": "nonpayable",
					"type": "function"
				},
				{
					"inputs": [],
					"name": "signer",
					"outputs": [
						{
							"internalType": "address",
							"name": "",
							"type": "address"
						}
					],
					"stateMutability": "view",
					"type": "function"
				},
				{
					"inputs": [
						{
							"internalType": "address",
							"name": "newOwner",
							"type": "address"
						}
					],
					"name": "transferOwnership",
					"outputs": [],
					"stateMutability": "nonpayable",
					"type": "function"
				},
				{
					"inputs": [
						{
							"internalType": "bytes32",
							"name": "",
							"type": "bytes32"
						}
					],
					"name": "usedNonces",
					"outputs": [
						{
							"internalType": "bool",
							"name": "",
							"type": "bool"
						}
					],
					"stateMutability": "view",
					"type": "function"
				},
				{
					"inputs": [],
					"name": "vault",
					"outputs": [
						{
							"internalType": "address",
							"name": "",
							"type": "address"
						}
					],
					"stateMutability": "view",
					"type": "function"
				}
			],
			"devdoc": {
				"kind": "dev",
				"methods": {
					"claimPrize(address,uint256,bytes32,uint256,bytes)": {
						"params": {
							"bfGross": "Total BF before split (18 decimals)",
							"expiry": "Unix timestamp — claim invalid after this (suggest: now + 10 min)",
							"nonce": "Unique claim ID (server-generated, e.g. keccak of gameId)",
							"player": "Recipient — must be msg.sender",
							"signature": "ECDSA signature from the trusted signer"
						}
					},
					"constructor": {
						"params": {
							"_bfToken": "BF token address",
							"_burnWallet": "BURN_WALLET  (0x5c29...530F) — burn destination",
							"_potWallet": "POT_WALLET   (0x...88e0) — weekly pot",
							"_signer": "Server-side signing key public address",
							"_vault": "PRIZE_WALLET (0x...92Df) — source of BF"
						}
					}
				},
				"version": 1
			},
			"evm": {
				"assembly": "    /* \"BFPayout.sol\":1331:11388  contract BFPayout {... */\n  mstore(0x40, 0x80)\n    /* \"BFPayout.sol\":4274:4629  constructor(... */\n  callvalue\n  dup1\n  iszero\n  tag_1\n  jumpi\n  revert(0x00, 0x00)\ntag_1:\n  pop\n  mload(0x40)\n  sub(codesize, bytecodeSize)\n  dup1\n  bytecodeSize\n  dup4\n  codecopy\n  dup2\n  dup2\n  add\n  0x40\n  mstore\n  dup2\n  add\n  swap1\n  tag_2\n  swap2\n  swap1\n  tag_3\n  jump\t// in\ntag_2:\n    /* \"BFPayout.sol\":4447:4457  msg.sender */\n  caller\n    /* \"BFPayout.sol\":4434:4439  owner */\n  0x00\n  0x00\n    /* \"BFPayout.sol\":4434:4457  owner      = msg.sender */\n  0x0100\n  exp\n  dup2\n  sload\n  dup2\n  0xffffffffffffffffffffffffffffffffffffffff\n  mul\n  not\n  and\n  swap1\n  dup4\n  0xffffffffffffffffffffffffffffffffffffffff\n  and\n  mul\n  or\n  swap1\n  sstore\n  pop\n    /* \"BFPayout.sol\":4487:4495  _bfToken */\n  dup5\n    /* \"BFPayout.sol\":4467:4474  bfToken */\n  0x05\n  0x00\n    /* \"BFPayout.sol\":4467:4496  bfToken    = IERC20(_bfToken) */\n  0x0100\n  exp\n  dup2\n  sload\n  dup2\n  0xffffffffffffffffffffffffffffffffffffffff\n  mul\n  not\n  and\n  swap1\n  dup4\n  0xffffffffffffffffffffffffffffffffffffffff\n  and\n  mul\n  or\n  swap1\n  sstore\n  pop\n    /* \"BFPayout.sol\":4519:4525  _vault */\n  dup4\n    /* \"BFPayout.sol\":4506:4511  vault */\n  0x02\n  0x00\n    /* \"BFPayout.sol\":4506:4525  vault      = _vault */\n  0x0100\n  exp\n  dup2\n  sload\n  dup2\n  0xffffffffffffffffffffffffffffffffffffffff\n  mul\n  not\n  and\n  swap1\n  dup4\n  0xffffffffffffffffffffffffffffffffffffffff\n  and\n  mul\n  or\n  swap1\n  sstore\n  pop\n    /* \"BFPayout.sol\":4548:4558  _potWallet */\n  dup3\n    /* \"BFPayout.sol\":4535:4544  potWallet */\n  0x03\n  0x00\n    /* \"BFPayout.sol\":4535:4558  potWallet  = _potWallet */\n  0x0100\n  exp\n  dup2\n  sload\n  dup2\n  0xffffffffffffffffffffffffffffffffffffffff\n  mul\n  not\n  and\n  swap1\n  dup4\n  0xffffffffffffffffffffffffffffffffffffffff\n  and\n  mul\n  or\n  swap1\n  sstore\n  pop\n    /* \"BFPayout.sol\":4581:4592  _burnWallet */\n  dup2\n    /* \"BFPayout.sol\":4568:4578  burnWallet */\n  0x04\n  0x00\n    /* \"BFPayout.sol\":4568:4592  burnWallet = _burnWallet */\n  0x0100\n  exp\n  dup2\n  sload\n  dup2\n  0xffffffffffffffffffffffffffffffffffffffff\n  mul\n  not\n  and\n  swap1\n  dup4\n  0xffffffffffffffffffffffffffffffffffffffff\n  and\n  mul\n  or\n  swap1\n  sstore\n  pop\n    /* \"BFPayout.sol\":4615:4622  _signer */\n  dup1\n    /* \"BFPayout.sol\":4602:4608  signer */\n  0x01\n  0x00\n    /* \"BFPayout.sol\":4602:4622  signer     = _signer */\n  0x0100\n  exp\n  dup2\n  sload\n  dup2\n  0xffffffffffffffffffffffffffffffffffffffff\n  mul\n  not\n  and\n  swap1\n  dup4\n  0xffffffffffffffffffffffffffffffffffffffff\n  and\n  mul\n  or\n  swap1\n  sstore\n  pop\n    /* \"BFPayout.sol\":4274:4629  constructor(... */\n  pop\n  pop\n  pop\n  pop\n  pop\n    /* \"BFPayout.sol\":1331:11388  contract BFPayout {... */\n  jump(tag_6)\n    /* \"#utility.yul\":88:205   */\ntag_8:\n    /* \"#utility.yul\":197:198   */\n  0x00\n    /* \"#utility.yul\":194:195   */\n  0x00\n    /* \"#utility.yul\":187:199   */\n  revert\n    /* \"#utility.yul\":334:460   */\ntag_10:\n    /* \"#utility.yul\":371:378   */\n  0x00\n    /* \"#utility.yul\":411:453   */\n  0xffffffffffffffffffffffffffffffffffffffff\n    /* \"#utility.yul\":404:409   */\n  dup3\n    /* \"#utility.yul\":400:454   */\n  and\n    /* \"#utility.yul\":389:454   */\n  swap1\n  pop\n    /* \"#utility.yul\":334:460   */\n  swap2\n  swap1\n  pop\n  jump\t// out\n    /* \"#utility.yul\":466:562   */\ntag_11:\n    /* \"#utility.yul\":503:510   */\n  0x00\n    /* \"#utility.yul\":532:556   */\n  tag_20\n    /* \"#utility.yul\":550:555   */\n  dup3\n    /* \"#utility.yul\":532:556   */\n  tag_10\n  jump\t// in\ntag_20:\n    /* \"#utility.yul\":521:556   */\n  swap1\n  pop\n    /* \"#utility.yul\":466:562   */\n  swap2\n  swap1\n  pop\n  jump\t// out\n    /* \"#utility.yul\":568:690   */\ntag_12:\n    /* \"#utility.yul\":641:665   */\n  tag_22\n    /* \"#utility.yul\":659:664   */\n  dup2\n    /* \"#utility.yul\":641:665   */\n  tag_11\n  jump\t// in\ntag_22:\n    /* \"#utility.yul\":634:639   */\n  dup2\n    /* \"#utility.yul\":631:666   */\n  eq\n    /* \"#utility.yul\":621:684   */\n  tag_23\n  jumpi\n    /* \"#utility.yul\":680:681   */\n  0x00\n    /* \"#utility.yul\":677:678   */\n  0x00\n    /* \"#utility.yul\":670:682   */\n  revert\n    /* \"#utility.yul\":621:684   */\ntag_23:\n    /* \"#utility.yul\":568:690   */\n  pop\n  jump\t// out\n    /* \"#utility.yul\":696:839   */\ntag_13:\n    /* \"#utility.yul\":753:758   */\n  0x00\n    /* \"#utility.yul\":784:790   */\n  dup2\n    /* \"#utility.yul\":778:791   */\n  mload\n    /* \"#utility.yul\":769:791   */\n  swap1\n  pop\n    /* \"#utility.yul\":800:833   */\n  tag_25\n    /* \"#utility.yul\":827:832   */\n  dup2\n    /* \"#utility.yul\":800:833   */\n  tag_12\n  jump\t// in\ntag_25:\n    /* \"#utility.yul\":696:839   */\n  swap3\n  swap2\n  pop\n  pop\n  jump\t// out\n    /* \"#utility.yul\":845:1822   */\ntag_3:\n    /* \"#utility.yul\":951:957   */\n  0x00\n    /* \"#utility.yul\":959:965   */\n  0x00\n    /* \"#utility.yul\":967:973   */\n  0x00\n    /* \"#utility.yul\":975:981   */\n  0x00\n    /* \"#utility.yul\":983:989   */\n  0x00\n    /* \"#utility.yul\":1032:1035   */\n  0xa0\n    /* \"#utility.yul\":1020:1029   */\n  dup7\n    /* \"#utility.yul\":1011:1018   */\n  dup9\n    /* \"#utility.yul\":1007:1030   */\n  sub\n    /* \"#utility.yul\":1003:1036   */\n  slt\n    /* \"#utility.yul\":1000:1120   */\n  iszero\n  tag_27\n  jumpi\n    /* \"#utility.yul\":1039:1118   */\n  tag_28\n  tag_8\n  jump\t// in\ntag_28:\n    /* \"#utility.yul\":1000:1120   */\ntag_27:\n    /* \"#utility.yul\":1159:1160   */\n  0x00\n    /* \"#utility.yul\":1184:1248   */\n  tag_29\n    /* \"#utility.yul\":1240:1247   */\n  dup9\n    /* \"#utility.yul\":1231:1237   */\n  dup3\n    /* \"#utility.yul\":1220:1229   */\n  dup10\n    /* \"#utility.yul\":1216:1238   */\n  add\n    /* \"#utility.yul\":1184:1248   */\n  tag_13\n  jump\t// in\ntag_29:\n    /* \"#utility.yul\":1174:1248   */\n  swap6\n  pop\n    /* \"#utility.yul\":1130:1258   */\n  pop\n    /* \"#utility.yul\":1297:1299   */\n  0x20\n    /* \"#utility.yul\":1323:1387   */\n  tag_30\n    /* \"#utility.yul\":1379:1386   */\n  dup9\n    /* \"#utility.yul\":1370:1376   */\n  dup3\n    /* \"#utility.yul\":1359:1368   */\n  dup10\n    /* \"#utility.yul\":1355:1377   */\n  add\n    /* \"#utility.yul\":1323:1387   */\n  tag_13\n  jump\t// in\ntag_30:\n    /* \"#utility.yul\":1313:1387   */\n  swap5\n  pop\n    /* \"#utility.yul\":1268:1397   */\n  pop\n    /* \"#utility.yul\":1436:1438   */\n  0x40\n    /* \"#utility.yul\":1462:1526   */\n  tag_31\n    /* \"#utility.yul\":1518:1525   */\n  dup9\n    /* \"#utility.yul\":1509:1515   */\n  dup3\n    /* \"#utility.yul\":1498:1507   */\n  dup10\n    /* \"#utility.yul\":1494:1516   */\n  add\n    /* \"#utility.yul\":1462:1526   */\n  tag_13\n  jump\t// in\ntag_31:\n    /* \"#utility.yul\":1452:1526   */\n  swap4\n  pop\n    /* \"#utility.yul\":1407:1536   */\n  pop\n    /* \"#utility.yul\":1575:1577   */\n  0x60\n    /* \"#utility.yul\":1601:1665   */\n  tag_32\n    /* \"#utility.yul\":1657:1664   */\n  dup9\n    /* \"#utility.yul\":1648:1654   */\n  dup3\n    /* \"#utility.yul\":1637:1646   */\n  dup10\n    /* \"#utility.yul\":1633:1655   */\n  add\n    /* \"#utility.yul\":1601:1665   */\n  tag_13\n  jump\t// in\ntag_32:\n    /* \"#utility.yul\":1591:1665   */\n  swap3\n  pop\n    /* \"#utility.yul\":1546:1675   */\n  pop\n    /* \"#utility.yul\":1714:1717   */\n  0x80\n    /* \"#utility.yul\":1741:1805   */\n  tag_33\n    /* \"#utility.yul\":1797:1804   */\n  dup9\n    /* \"#utility.yul\":1788:1794   */\n  dup3\n    /* \"#utility.yul\":1777:1786   */\n  dup10\n    /* \"#utility.yul\":1773:1795   */\n  add\n    /* \"#utility.yul\":1741:1805   */\n  tag_13\n  jump\t// in\ntag_33:\n    /* \"#utility.yul\":1731:1805   */\n  swap2\n  pop\n    /* \"#utility.yul\":1685:1815   */\n  pop\n    /* \"#utility.yul\":845:1822   */\n  swap3\n  swap6\n  pop\n  swap3\n  swap6\n  swap1\n  swap4\n  pop\n  jump\t// out\n    /* \"BFPayout.sol\":1331:11388  contract BFPayout {... */\ntag_6:\n  dataSize(sub_0)\n  dup1\n  dataOffset(sub_0)\n  0x00\n  codecopy\n  0x00\n  return\nstop\n\nsub_0: assembly {\n        /* \"BFPayout.sol\":1331:11388  contract BFPayout {... */\n      mstore(0x40, 0x80)\n      callvalue\n      dup1\n      iszero\n      tag_1\n      jumpi\n      revert(0x00, 0x00)\n    tag_1:\n      pop\n      jumpi(tag_2, lt(calldatasize, 0x04))\n      shr(0xe0, calldataload(0x00))\n      dup1\n      0x6c19e783\n      gt\n      tag_25\n      jumpi\n      dup1\n      0xb38c4eef\n      gt\n      tag_26\n      jumpi\n      dup1\n      0xb38c4eef\n      eq\n      tag_19\n      jumpi\n      dup1\n      0xbf3b80f6\n      eq\n      tag_20\n      jumpi\n      dup1\n      0xca5fa061\n      eq\n      tag_21\n      jumpi\n      dup1\n      0xf2fde38b\n      eq\n      tag_22\n      jumpi\n      dup1\n      0xfbfa77cf\n      eq\n      tag_23\n      jumpi\n      dup1\n      0xfeb61724\n      eq\n      tag_24\n      jumpi\n      jump(tag_2)\n    tag_26:\n      dup1\n      0x6c19e783\n      eq\n      tag_14\n      jumpi\n      dup1\n      0x77a64fd5\n      eq\n      tag_15\n      jumpi\n      dup1\n      0x8da5cb5b\n      eq\n      tag_16\n      jumpi\n      dup1\n      0x95ccea67\n      eq\n      tag_17\n      jumpi\n      dup1\n      0xa37a9fc0\n      eq\n      tag_18\n      jumpi\n      jump(tag_2)\n    tag_25:\n      dup1\n      0x249d39e9\n      gt\n      tag_27\n      jumpi\n      dup1\n      0x249d39e9\n      eq\n      tag_8\n      jumpi\n      dup1\n      0x35ef11c0\n      eq\n      tag_9\n      jumpi\n      dup1\n      0x3ded61d6\n      eq\n      tag_10\n      jumpi\n      dup1\n      0x5c975abb\n      eq\n      tag_11\n      jumpi\n      dup1\n      0x65d5ab8c\n      eq\n      tag_12\n      jumpi\n      dup1\n      0x6817031b\n      eq\n      tag_13\n      jumpi\n      jump(tag_2)\n    tag_27:\n      dup1\n      0x06228749\n      eq\n      tag_3\n      jumpi\n      dup1\n      0x13a6c05f\n      eq\n      tag_4\n      jumpi\n      dup1\n      0x16c38b3c\n      eq\n      tag_5\n      jumpi\n      dup1\n      0x1c4ba3ed\n      eq\n      tag_6\n      jumpi\n      dup1\n      0x238ac933\n      eq\n      tag_7\n      jumpi\n    tag_2:\n      revert(0x00, 0x00)\n        /* \"BFPayout.sol\":2315:2340  address public burnWallet */\n    tag_3:\n      tag_28\n      tag_29\n      jump\t// in\n    tag_28:\n      mload(0x40)\n      tag_30\n      swap2\n      swap1\n      tag_31\n      jump\t// in\n    tag_30:\n      mload(0x40)\n      dup1\n      swap2\n      sub\n      swap1\n      return\n        /* \"BFPayout.sol\":8512:8831  function previewSplit(uint256 bfGross) external pure returns (... */\n    tag_4:\n      tag_32\n      0x04\n      dup1\n      calldatasize\n      sub\n      dup2\n      add\n      swap1\n      tag_33\n      swap2\n      swap1\n      tag_34\n      jump\t// in\n    tag_33:\n      tag_35\n      jump\t// in\n    tag_32:\n      mload(0x40)\n      tag_36\n      swap4\n      swap3\n      swap2\n      swap1\n      tag_37\n      jump\t// in\n    tag_36:\n      mload(0x40)\n      dup1\n      swap2\n      sub\n      swap1\n      return\n        /* \"BFPayout.sol\":9695:9810  function setPaused(bool _paused) external onlyOwner {... */\n    tag_5:\n      tag_38\n      0x04\n      dup1\n      calldatasize\n      sub\n      dup2\n      add\n      swap1\n      tag_39\n      swap2\n      swap1\n      tag_40\n      jump\t// in\n    tag_39:\n      tag_41\n      jump\t// in\n    tag_38:\n      stop\n        /* \"BFPayout.sol\":9546:9689  function setBurnWallet(address _burn) external onlyOwner {... */\n    tag_6:\n      tag_42\n      0x04\n      dup1\n      calldatasize\n      sub\n      dup2\n      add\n      swap1\n      tag_43\n      swap2\n      swap1\n      tag_44\n      jump\t// in\n    tag_43:\n      tag_45\n      jump\t// in\n    tag_42:\n      stop\n        /* \"BFPayout.sol\":2022:2043  address public signer */\n    tag_7:\n      tag_46\n      tag_47\n      jump\t// in\n    tag_46:\n      mload(0x40)\n      tag_48\n      swap2\n      swap1\n      tag_31\n      jump\t// in\n    tag_48:\n      mload(0x40)\n      dup1\n      swap2\n      sub\n      swap1\n      return\n        /* \"BFPayout.sol\":1562:1604  uint256 public constant BPS        = 10000 */\n    tag_8:\n      tag_49\n      tag_50\n      jump\t// in\n    tag_49:\n      mload(0x40)\n      tag_51\n      swap2\n      swap1\n      tag_52\n      jump\t// in\n    tag_51:\n      mload(0x40)\n      dup1\n      swap2\n      sub\n      swap1\n      return\n        /* \"BFPayout.sol\":9322:9458  function setPotWallet(address _pot) external onlyOwner {... */\n    tag_9:\n      tag_53\n      0x04\n      dup1\n      calldatasize\n      sub\n      dup2\n      add\n      swap1\n      tag_54\n      swap2\n      swap1\n      tag_44\n      jump\t// in\n    tag_54:\n      tag_55\n      jump\t// in\n    tag_53:\n      stop\n        /* \"BFPayout.sol\":1610:1651  uint256 public constant PLAYER_BPS = 9450 */\n    tag_10:\n      tag_56\n      tag_57\n      jump\t// in\n    tag_56:\n      mload(0x40)\n      tag_58\n      swap2\n      swap1\n      tag_52\n      jump\t// in\n    tag_58:\n      mload(0x40)\n      dup1\n      swap2\n      sub\n      swap1\n      return\n        /* \"BFPayout.sol\":2436:2456  bool   public paused */\n    tag_11:\n      tag_59\n      tag_60\n      jump\t// in\n    tag_59:\n      mload(0x40)\n      tag_61\n      swap2\n      swap1\n      tag_62\n      jump\t// in\n    tag_61:\n      mload(0x40)\n      dup1\n      swap2\n      sub\n      swap1\n      return\n        /* \"BFPayout.sol\":7427:8320  function isClaimValid(... */\n    tag_12:\n      tag_63\n      0x04\n      dup1\n      calldatasize\n      sub\n      dup2\n      add\n      swap1\n      tag_64\n      swap2\n      swap1\n      tag_65\n      jump\t// in\n    tag_64:\n      tag_66\n      jump\t// in\n    tag_63:\n      mload(0x40)\n      tag_67\n      swap3\n      swap2\n      swap1\n      tag_68\n      jump\t// in\n    tag_67:\n      mload(0x40)\n      dup1\n      swap2\n      sub\n      swap1\n      return\n        /* \"BFPayout.sol\":9190:9316  function setVault(address _vault) external onlyOwner {... */\n    tag_13:\n      tag_69\n      0x04\n      dup1\n      calldatasize\n      sub\n      dup2\n      add\n      swap1\n      tag_70\n      swap2\n      swap1\n      tag_44\n      jump\t// in\n    tag_70:\n      tag_71\n      jump\t// in\n    tag_69:\n      stop\n        /* \"BFPayout.sol\":9051:9184  function setSigner(address _signer) external onlyOwner {... */\n    tag_14:\n      tag_72\n      0x04\n      dup1\n      calldatasize\n      sub\n      dup2\n      add\n      swap1\n      tag_73\n      swap2\n      swap1\n      tag_44\n      jump\t// in\n    tag_73:\n      tag_74\n      jump\t// in\n    tag_72:\n      stop\n        /* \"BFPayout.sol\":1667:1708  uint256 public constant POT_BPS    =  450 */\n    tag_15:\n      tag_75\n      tag_76\n      jump\t// in\n    tag_75:\n      mload(0x40)\n      tag_77\n      swap2\n      swap1\n      tag_52\n      jump\t// in\n    tag_77:\n      mload(0x40)\n      dup1\n      swap2\n      sub\n      swap1\n      return\n        /* \"BFPayout.sol\":1996:2016  address public owner */\n    tag_16:\n      tag_78\n      tag_79\n      jump\t// in\n    tag_78:\n      mload(0x40)\n      tag_80\n      swap2\n      swap1\n      tag_31\n      jump\t// in\n    tag_80:\n      mload(0x40)\n      dup1\n      swap2\n      sub\n      swap1\n      return\n        /* \"BFPayout.sol\":10001:10194  function emergencyWithdraw(address to, uint256 amount) external onlyOwner {... */\n    tag_17:\n      tag_81\n      0x04\n      dup1\n      calldatasize\n      sub\n      dup2\n      add\n      swap1\n      tag_82\n      swap2\n      swap1\n      tag_83\n      jump\t// in\n    tag_82:\n      tag_84\n      jump\t// in\n    tag_81:\n      stop\n        /* \"BFPayout.sol\":1724:1765  uint256 public constant BURN_BPS   =  100 */\n    tag_18:\n      tag_85\n      tag_86\n      jump\t// in\n    tag_85:\n      mload(0x40)\n      tag_87\n      swap2\n      swap1\n      tag_52\n      jump\t// in\n    tag_87:\n      mload(0x40)\n      dup1\n      swap2\n      sub\n      swap1\n      return\n        /* \"BFPayout.sol\":2222:2246  address public potWallet */\n    tag_19:\n      tag_88\n      tag_89\n      jump\t// in\n    tag_88:\n      mload(0x40)\n      tag_90\n      swap2\n      swap1\n      tag_31\n      jump\t// in\n    tag_90:\n      mload(0x40)\n      dup1\n      swap2\n      sub\n      swap1\n      return\n        /* \"BFPayout.sol\":5671:7264  function claimPrize(... */\n    tag_20:\n      tag_91\n      0x04\n      dup1\n      calldatasize\n      sub\n      dup2\n      add\n      swap1\n      tag_92\n      swap2\n      swap1\n      tag_65\n      jump\t// in\n    tag_92:\n      tag_93\n      jump\t// in\n    tag_91:\n      stop\n        /* \"BFPayout.sol\":2409:2430  IERC20 public bfToken */\n    tag_21:\n      tag_94\n      tag_95\n      jump\t// in\n    tag_94:\n      mload(0x40)\n      tag_96\n      swap2\n      swap1\n      tag_97\n      jump\t// in\n    tag_96:\n      mload(0x40)\n      dup1\n      swap2\n      sub\n      swap1\n      return\n        /* \"BFPayout.sol\":9816:9913  function transferOwnership(address newOwner) external onlyOwner {... */\n    tag_22:\n      tag_98\n      0x04\n      dup1\n      calldatasize\n      sub\n      dup2\n      add\n      swap1\n      tag_99\n      swap2\n      swap1\n      tag_44\n      jump\t// in\n    tag_99:\n      tag_100\n      jump\t// in\n    tag_98:\n      stop\n        /* \"BFPayout.sol\":2121:2141  address public vault */\n    tag_23:\n      tag_101\n      tag_102\n      jump\t// in\n    tag_101:\n      mload(0x40)\n      tag_103\n      swap2\n      swap1\n      tag_31\n      jump\t// in\n    tag_103:\n      mload(0x40)\n      dup1\n      swap2\n      sub\n      swap1\n      return\n        /* \"BFPayout.sol\":2463:2505  mapping(bytes32 => bool) public usedNonces */\n    tag_24:\n      tag_104\n      0x04\n      dup1\n      calldatasize\n      sub\n      dup2\n      add\n      swap1\n      tag_105\n      swap2\n      swap1\n      tag_106\n      jump\t// in\n    tag_105:\n      tag_107\n      jump\t// in\n    tag_104:\n      mload(0x40)\n      tag_108\n      swap2\n      swap1\n      tag_62\n      jump\t// in\n    tag_108:\n      mload(0x40)\n      dup1\n      swap2\n      sub\n      swap1\n      return\n        /* \"BFPayout.sol\":2315:2340  address public burnWallet */\n    tag_29:\n      0x04\n      0x00\n      swap1\n      sload\n      swap1\n      0x0100\n      exp\n      swap1\n      div\n      0xffffffffffffffffffffffffffffffffffffffff\n      and\n      dup2\n      jump\t// out\n        /* \"BFPayout.sol\":8512:8831  function previewSplit(uint256 bfGross) external pure returns (... */\n    tag_35:\n        /* \"BFPayout.sol\":8583:8603  uint256 playerAmount */\n      0x00\n        /* \"BFPayout.sol\":8613:8630  uint256 potAmount */\n      0x00\n        /* \"BFPayout.sol\":8640:8658  uint256 burnAmount */\n      0x00\n        /* \"BFPayout.sol\":1599:1604  10000 */\n      0x2710\n        /* \"BFPayout.sol\":1705:1708  450 */\n      0x01c2\n        /* \"BFPayout.sol\":8691:8698  bfGross */\n      dup6\n        /* \"BFPayout.sol\":8691:8708  bfGross * POT_BPS */\n      tag_110\n      swap2\n      swap1\n      tag_111\n      jump\t// in\n    tag_110:\n        /* \"BFPayout.sol\":8690:8716  (bfGross * POT_BPS)  / BPS */\n      tag_112\n      swap2\n      swap1\n      tag_113\n      jump\t// in\n    tag_112:\n        /* \"BFPayout.sol\":8675:8716  potAmount    = (bfGross * POT_BPS)  / BPS */\n      swap2\n      pop\n        /* \"BFPayout.sol\":1599:1604  10000 */\n      0x2710\n        /* \"BFPayout.sol\":1762:1765  100 */\n      0x64\n        /* \"BFPayout.sol\":8742:8749  bfGross */\n      dup6\n        /* \"BFPayout.sol\":8742:8760  bfGross * BURN_BPS */\n      tag_114\n      swap2\n      swap1\n      tag_111\n      jump\t// in\n    tag_114:\n        /* \"BFPayout.sol\":8741:8767  (bfGross * BURN_BPS) / BPS */\n      tag_115\n      swap2\n      swap1\n      tag_113\n      jump\t// in\n    tag_115:\n        /* \"BFPayout.sol\":8726:8767  burnAmount   = (bfGross * BURN_BPS) / BPS */\n      swap1\n      pop\n        /* \"BFPayout.sol\":8814:8824  burnAmount */\n      dup1\n        /* \"BFPayout.sol\":8802:8811  potAmount */\n      dup3\n        /* \"BFPayout.sol\":8792:8799  bfGross */\n      dup6\n        /* \"BFPayout.sol\":8792:8811  bfGross - potAmount */\n      tag_116\n      swap2\n      swap1\n      tag_117\n      jump\t// in\n    tag_116:\n        /* \"BFPayout.sol\":8792:8824  bfGross - potAmount - burnAmount */\n      tag_118\n      swap2\n      swap1\n      tag_117\n      jump\t// in\n    tag_118:\n        /* \"BFPayout.sol\":8777:8824  playerAmount = bfGross - potAmount - burnAmount */\n      swap3\n      pop\n        /* \"BFPayout.sol\":8512:8831  function previewSplit(uint256 bfGross) external pure returns (... */\n      swap2\n      swap4\n      swap1\n      swap3\n      pop\n      jump\t// out\n        /* \"BFPayout.sol\":9695:9810  function setPaused(bool _paused) external onlyOwner {... */\n    tag_41:\n        /* \"BFPayout.sol\":4890:4895  owner */\n      0x00\n      0x00\n      swap1\n      sload\n      swap1\n      0x0100\n      exp\n      swap1\n      div\n      0xffffffffffffffffffffffffffffffffffffffff\n      and\n        /* \"BFPayout.sol\":4876:4895  msg.sender != owner */\n      0xffffffffffffffffffffffffffffffffffffffff\n      and\n        /* \"BFPayout.sol\":4876:4886  msg.sender */\n      caller\n        /* \"BFPayout.sol\":4876:4895  msg.sender != owner */\n      0xffffffffffffffffffffffffffffffffffffffff\n      and\n      eq\n        /* \"BFPayout.sol\":4872:4914  if (msg.sender != owner) revert NotOwner() */\n      tag_120\n      jumpi\n        /* \"BFPayout.sol\":4904:4914  NotOwner() */\n      mload(0x40)\n      0x30cd747100000000000000000000000000000000000000000000000000000000\n      dup2\n      mstore\n      0x04\n      add\n      mload(0x40)\n      dup1\n      swap2\n      sub\n      swap1\n      revert\n        /* \"BFPayout.sol\":4872:4914  if (msg.sender != owner) revert NotOwner() */\n    tag_120:\n        /* \"BFPayout.sol\":9766:9773  _paused */\n      dup1\n        /* \"BFPayout.sol\":9757:9763  paused */\n      0x05\n      0x14\n        /* \"BFPayout.sol\":9757:9773  paused = _paused */\n      0x0100\n      exp\n      dup2\n      sload\n      dup2\n      0xff\n      mul\n      not\n      and\n      swap1\n      dup4\n      iszero\n      iszero\n      mul\n      or\n      swap1\n      sstore\n      pop\n        /* \"BFPayout.sol\":9788:9803  Paused(_paused) */\n      0x0e2fb031ee032dc02d8011dc50b816eb450cf856abd8261680dac74f72165bd2\n        /* \"BFPayout.sol\":9795:9802  _paused */\n      dup2\n        /* \"BFPayout.sol\":9788:9803  Paused(_paused) */\n      mload(0x40)\n      tag_122\n      swap2\n      swap1\n      tag_62\n      jump\t// in\n    tag_122:\n      mload(0x40)\n      dup1\n      swap2\n      sub\n      swap1\n      log1\n        /* \"BFPayout.sol\":9695:9810  function setPaused(bool _paused) external onlyOwner {... */\n      pop\n      jump\t// out\n        /* \"BFPayout.sol\":9546:9689  function setBurnWallet(address _burn) external onlyOwner {... */\n    tag_45:\n        /* \"BFPayout.sol\":4890:4895  owner */\n      0x00\n      0x00\n      swap1\n      sload\n      swap1\n      0x0100\n      exp\n      swap1\n      div\n      0xffffffffffffffffffffffffffffffffffffffff\n      and\n        /* \"BFPayout.sol\":4876:4895  msg.sender != owner */\n      0xffffffffffffffffffffffffffffffffffffffff\n      and\n        /* \"BFPayout.sol\":4876:4886  msg.sender */\n      caller\n        /* \"BFPayout.sol\":4876:4895  msg.sender != owner */\n      0xffffffffffffffffffffffffffffffffffffffff\n      and\n      eq\n        /* \"BFPayout.sol\":4872:4914  if (msg.sender != owner) revert NotOwner() */\n      tag_124\n      jumpi\n        /* \"BFPayout.sol\":4904:4914  NotOwner() */\n      mload(0x40)\n      0x30cd747100000000000000000000000000000000000000000000000000000000\n      dup2\n      mstore\n      0x04\n      add\n      mload(0x40)\n      dup1\n      swap2\n      sub\n      swap1\n      revert\n        /* \"BFPayout.sol\":4872:4914  if (msg.sender != owner) revert NotOwner() */\n    tag_124:\n        /* \"BFPayout.sol\":9648:9653  _burn */\n      dup1\n        /* \"BFPayout.sol\":9618:9654  BurnWalletUpdated(burnWallet, _burn) */\n      0xffffffffffffffffffffffffffffffffffffffff\n      and\n        /* \"BFPayout.sol\":9636:9646  burnWallet */\n      0x04\n      0x00\n      swap1\n      sload\n      swap1\n      0x0100\n      exp\n      swap1\n      div\n      0xffffffffffffffffffffffffffffffffffffffff\n      and\n        /* \"BFPayout.sol\":9618:9654  BurnWalletUpdated(burnWallet, _burn) */\n      0xffffffffffffffffffffffffffffffffffffffff\n      and\n      0xe678f864bcd4f50e0554d3b42d5a0007424f154c8b29d4845c7c727f319cfd92\n      mload(0x40)\n      mload(0x40)\n      dup1\n      swap2\n      sub\n      swap1\n      log3\n        /* \"BFPayout.sol\":9677:9682  _burn */\n      dup1\n        /* \"BFPayout.sol\":9664:9674  burnWallet */\n      0x04\n      0x00\n        /* \"BFPayout.sol\":9664:9682  burnWallet = _burn */\n      0x0100\n      exp\n      dup2\n      sload\n      dup2\n      0xffffffffffffffffffffffffffffffffffffffff\n      mul\n      not\n      and\n      swap1\n      dup4\n      0xffffffffffffffffffffffffffffffffffffffff\n      and\n      mul\n      or\n      swap1\n      sstore\n      pop\n        /* \"BFPayout.sol\":9546:9689  function setBurnWallet(address _burn) external onlyOwner {... */\n      pop\n      jump\t// out\n        /* \"BFPayout.sol\":2022:2043  address public signer */\n    tag_47:\n      0x01\n      0x00\n      swap1\n      sload\n      swap1\n      0x0100\n      exp\n      swap1\n      div\n      0xffffffffffffffffffffffffffffffffffffffff\n      and\n      dup2\n      jump\t// out\n        /* \"BFPayout.sol\":1562:1604  uint256 public constant BPS        = 10000 */\n    tag_50:\n        /* \"BFPayout.sol\":1599:1604  10000 */\n      0x2710\n        /* \"BFPayout.sol\":1562:1604  uint256 public constant BPS        = 10000 */\n      dup2\n      jump\t// out\n        /* \"BFPayout.sol\":9322:9458  function setPotWallet(address _pot) external onlyOwner {... */\n    tag_55:\n        /* \"BFPayout.sol\":4890:4895  owner */\n      0x00\n      0x00\n      swap1\n      sload\n      swap1\n      0x0100\n      exp\n      swap1\n      div\n      0xffffffffffffffffffffffffffffffffffffffff\n      and\n        /* \"BFPayout.sol\":4876:4895  msg.sender != owner */\n      0xffffffffffffffffffffffffffffffffffffffff\n      and\n        /* \"BFPayout.sol\":4876:4886  msg.sender */\n      caller\n        /* \"BFPayout.sol\":4876:4895  msg.sender != owner */\n      0xffffffffffffffffffffffffffffffffffffffff\n      and\n      eq\n        /* \"BFPayout.sol\":4872:4914  if (msg.sender != owner) revert NotOwner() */\n      tag_127\n      jumpi\n        /* \"BFPayout.sol\":4904:4914  NotOwner() */\n      mload(0x40)\n      0x30cd747100000000000000000000000000000000000000000000000000000000\n      dup2\n      mstore\n      0x04\n      add\n      mload(0x40)\n      dup1\n      swap2\n      sub\n      swap1\n      revert\n        /* \"BFPayout.sol\":4872:4914  if (msg.sender != owner) revert NotOwner() */\n    tag_127:\n        /* \"BFPayout.sol\":9420:9424  _pot */\n      dup1\n        /* \"BFPayout.sol\":9392:9425  PotWalletUpdated(potWallet, _pot) */\n      0xffffffffffffffffffffffffffffffffffffffff\n      and\n        /* \"BFPayout.sol\":9409:9418  potWallet */\n      0x03\n      0x00\n      swap1\n      sload\n      swap1\n      0x0100\n      exp\n      swap1\n      div\n      0xffffffffffffffffffffffffffffffffffffffff\n      and\n        /* \"BFPayout.sol\":9392:9425  PotWalletUpdated(potWallet, _pot) */\n      0xffffffffffffffffffffffffffffffffffffffff\n      and\n      0x95ee0ef5b75494271372b2583bc15b87408ee97ee99ef93c011ab8c3132dc265\n      mload(0x40)\n      mload(0x40)\n      dup1\n      swap2\n      sub\n      swap1\n      log3\n        /* \"BFPayout.sol\":9447:9451  _pot */\n      dup1\n        /* \"BFPayout.sol\":9435:9444  potWallet */\n      0x03\n      0x00\n        /* \"BFPayout.sol\":9435:9451  potWallet = _pot */\n      0x0100\n      exp\n      dup2\n      sload\n      dup2\n      0xffffffffffffffffffffffffffffffffffffffff\n      mul\n      not\n      and\n      swap1\n      dup4\n      0xffffffffffffffffffffffffffffffffffffffff\n      and\n      mul\n      or\n      swap1\n      sstore\n      pop\n        /* \"BFPayout.sol\":9322:9458  function setPotWallet(address _pot) external onlyOwner {... */\n      pop\n      jump\t// out\n        /* \"BFPayout.sol\":1610:1651  uint256 public constant PLAYER_BPS = 9450 */\n    tag_57:\n        /* \"BFPayout.sol\":1647:1651  9450 */\n      0x24ea\n        /* \"BFPayout.sol\":1610:1651  uint256 public constant PLAYER_BPS = 9450 */\n      dup2\n      jump\t// out\n        /* \"BFPayout.sol\":2436:2456  bool   public paused */\n    tag_60:\n      0x05\n      0x14\n      swap1\n      sload\n      swap1\n      0x0100\n      exp\n      swap1\n      div\n      0xff\n      and\n      dup2\n      jump\t// out\n        /* \"BFPayout.sol\":7427:8320  function isClaimValid(... */\n    tag_66:\n        /* \"BFPayout.sol\":7608:7618  bool valid */\n      0x00\n        /* \"BFPayout.sol\":7620:7640  string memory reason */\n      0x60\n        /* \"BFPayout.sol\":7656:7662  paused */\n      0x05\n      0x14\n      swap1\n      sload\n      swap1\n      0x0100\n      exp\n      swap1\n      div\n      0xff\n      and\n        /* \"BFPayout.sol\":7652:7721  if (paused)                                  return (false, \"paused\") */\n      iszero\n      tag_130\n      jumpi\n        /* \"BFPayout.sol\":7705:7710  false */\n      0x00\n        /* \"BFPayout.sol\":7697:7721  return (false, \"paused\") */\n      mload(0x40)\n      dup1\n      0x40\n      add\n      0x40\n      mstore\n      dup1\n      0x06\n      dup2\n      mstore\n      0x20\n      add\n      0x7061757365640000000000000000000000000000000000000000000000000000\n      dup2\n      mstore\n      pop\n      swap2\n      pop\n      swap2\n      pop\n      jump(tag_129)\n        /* \"BFPayout.sol\":7652:7721  if (paused)                                  return (false, \"paused\") */\n    tag_130:\n        /* \"BFPayout.sol\":7746:7747  0 */\n      0x00\n        /* \"BFPayout.sol\":7735:7742  bfGross */\n      dup8\n        /* \"BFPayout.sol\":7735:7747  bfGross == 0 */\n      sub\n        /* \"BFPayout.sol\":7731:7805  if (bfGross == 0)                            return (false, \"zero amount\") */\n      tag_131\n      jumpi\n        /* \"BFPayout.sol\":7784:7789  false */\n      0x00\n        /* \"BFPayout.sol\":7776:7805  return (false, \"zero amount\") */\n      mload(0x40)\n      dup1\n      0x40\n      add\n      0x40\n      mstore\n      dup1\n      0x0b\n      dup2\n      mstore\n      0x20\n      add\n      0x7a65726f20616d6f756e74000000000000000000000000000000000000000000\n      dup2\n      mstore\n      pop\n      swap2\n      pop\n      swap2\n      pop\n      jump(tag_129)\n        /* \"BFPayout.sol\":7731:7805  if (bfGross == 0)                            return (false, \"zero amount\") */\n    tag_131:\n        /* \"BFPayout.sol\":7837:7843  expiry */\n      dup5\n        /* \"BFPayout.sol\":7819:7834  block.timestamp */\n      timestamp\n        /* \"BFPayout.sol\":7819:7843  block.timestamp > expiry */\n      gt\n        /* \"BFPayout.sol\":7815:7885  if (block.timestamp > expiry)                return (false, \"expired\") */\n      iszero\n      tag_132\n      jumpi\n        /* \"BFPayout.sol\":7868:7873  false */\n      0x00\n        /* \"BFPayout.sol\":7860:7885  return (false, \"expired\") */\n      mload(0x40)\n      dup1\n      0x40\n      add\n      0x40\n      mstore\n      dup1\n      0x07\n      dup2\n      mstore\n      0x20\n      add\n      0x6578706972656400000000000000000000000000000000000000000000000000\n      dup2\n      mstore\n      pop\n      swap2\n      pop\n      swap2\n      pop\n      jump(tag_129)\n        /* \"BFPayout.sol\":7815:7885  if (block.timestamp > expiry)                return (false, \"expired\") */\n    tag_132:\n        /* \"BFPayout.sol\":7899:7909  usedNonces */\n      0x06\n        /* \"BFPayout.sol\":7899:7916  usedNonces[nonce] */\n      0x00\n        /* \"BFPayout.sol\":7910:7915  nonce */\n      dup8\n        /* \"BFPayout.sol\":7899:7916  usedNonces[nonce] */\n      dup2\n      mstore\n      0x20\n      add\n      swap1\n      dup2\n      mstore\n      0x20\n      add\n      0x00\n      keccak256\n      0x00\n      swap1\n      sload\n      swap1\n      0x0100\n      exp\n      swap1\n      div\n      0xff\n      and\n        /* \"BFPayout.sol\":7895:7968  if (usedNonces[nonce])                       return (false, \"nonce used\") */\n      iszero\n      tag_133\n      jumpi\n        /* \"BFPayout.sol\":7948:7953  false */\n      0x00\n        /* \"BFPayout.sol\":7940:7968  return (false, \"nonce used\") */\n      mload(0x40)\n      dup1\n      0x40\n      add\n      0x40\n      mstore\n      dup1\n      0x0a\n      dup2\n      mstore\n      0x20\n      add\n      0x6e6f6e6365207573656400000000000000000000000000000000000000000000\n      dup2\n      mstore\n      pop\n      swap2\n      pop\n      swap2\n      pop\n      jump(tag_129)\n        /* \"BFPayout.sol\":7895:7968  if (usedNonces[nonce])                       return (false, \"nonce used\") */\n    tag_133:\n        /* \"BFPayout.sol\":8009:8016  bfGross */\n      dup7\n        /* \"BFPayout.sol\":7982:7989  bfToken */\n      0x05\n      0x00\n      swap1\n      sload\n      swap1\n      0x0100\n      exp\n      swap1\n      div\n      0xffffffffffffffffffffffffffffffffffffffff\n      and\n        /* \"BFPayout.sol\":7982:7999  bfToken.balanceOf */\n      0xffffffffffffffffffffffffffffffffffffffff\n      and\n      0x70a08231\n        /* \"BFPayout.sol\":8000:8005  vault */\n      0x02\n      0x00\n      swap1\n      sload\n      swap1\n      0x0100\n      exp\n      swap1\n      div\n      0xffffffffffffffffffffffffffffffffffffffff\n      and\n        /* \"BFPayout.sol\":7982:8006  bfToken.balanceOf(vault) */\n      mload(0x40)\n      dup3\n      0xffffffff\n      and\n      0xe0\n      shl\n      dup2\n      mstore\n      0x04\n      add\n      tag_134\n      swap2\n      swap1\n      tag_31\n      jump\t// in\n    tag_134:\n      0x20\n      mload(0x40)\n      dup1\n      dup4\n      sub\n      dup2\n      dup7\n      gas\n      staticcall\n      iszero\n      dup1\n      iszero\n      tag_136\n      jumpi\n      returndatacopy(0x00, 0x00, returndatasize)\n      revert(0x00, returndatasize)\n    tag_136:\n      pop\n      pop\n      pop\n      pop\n      mload(0x40)\n      returndatasize\n      not(0x1f)\n      0x1f\n      dup3\n      add\n      and\n      dup3\n      add\n      dup1\n      0x40\n      mstore\n      pop\n      dup2\n      add\n      swap1\n      tag_137\n      swap2\n      swap1\n      tag_138\n      jump\t// in\n    tag_137:\n        /* \"BFPayout.sol\":7982:8016  bfToken.balanceOf(vault) < bfGross */\n      lt\n        /* \"BFPayout.sol\":7978:8067  if (bfToken.balanceOf(vault) < bfGross)      return (false, \"insufficient vault balance\") */\n      iszero\n      tag_139\n      jumpi\n        /* \"BFPayout.sol\":8031:8036  false */\n      0x00\n        /* \"BFPayout.sol\":8023:8067  return (false, \"insufficient vault balance\") */\n      mload(0x40)\n      dup1\n      0x40\n      add\n      0x40\n      mstore\n      dup1\n      0x1a\n      dup2\n      mstore\n      0x20\n      add\n      0x696e73756666696369656e74207661756c742062616c616e6365000000000000\n      dup2\n      mstore\n      pop\n      swap2\n      pop\n      swap2\n      pop\n      jump(tag_129)\n        /* \"BFPayout.sol\":7978:8067  if (bfToken.balanceOf(vault) < bfGross)      return (false, \"insufficient vault balance\") */\n    tag_139:\n        /* \"BFPayout.sol\":8077:8089  bytes32 hash */\n      0x00\n        /* \"BFPayout.sol\":8097:8139  _buildHash(player, bfGross, nonce, expiry) */\n      tag_140\n        /* \"BFPayout.sol\":8108:8114  player */\n      dup10\n        /* \"BFPayout.sol\":8116:8123  bfGross */\n      dup10\n        /* \"BFPayout.sol\":8125:8130  nonce */\n      dup10\n        /* \"BFPayout.sol\":8132:8138  expiry */\n      dup10\n        /* \"BFPayout.sol\":8097:8107  _buildHash */\n      tag_141\n        /* \"BFPayout.sol\":8097:8139  _buildHash(player, bfGross, nonce, expiry) */\n      jump\t// in\n    tag_140:\n        /* \"BFPayout.sol\":8077:8139  bytes32 hash      = _buildHash(player, bfGross, nonce, expiry) */\n      swap1\n      pop\n        /* \"BFPayout.sol\":8149:8166  address recovered */\n      0x00\n        /* \"BFPayout.sol\":8169:8194  _recover(hash, signature) */\n      tag_142\n        /* \"BFPayout.sol\":8178:8182  hash */\n      dup3\n        /* \"BFPayout.sol\":8184:8193  signature */\n      dup8\n      dup8\n        /* \"BFPayout.sol\":8169:8177  _recover */\n      tag_143\n        /* \"BFPayout.sol\":8169:8194  _recover(hash, signature) */\n      jump\t// in\n    tag_142:\n        /* \"BFPayout.sol\":8149:8194  address recovered = _recover(hash, signature) */\n      swap1\n      pop\n        /* \"BFPayout.sol\":8221:8227  signer */\n      0x01\n      0x00\n      swap1\n      sload\n      swap1\n      0x0100\n      exp\n      swap1\n      div\n      0xffffffffffffffffffffffffffffffffffffffff\n      and\n        /* \"BFPayout.sol\":8208:8227  recovered != signer */\n      0xffffffffffffffffffffffffffffffffffffffff\n      and\n        /* \"BFPayout.sol\":8208:8217  recovered */\n      dup2\n        /* \"BFPayout.sol\":8208:8227  recovered != signer */\n      0xffffffffffffffffffffffffffffffffffffffff\n      and\n      eq\n        /* \"BFPayout.sol\":8204:8284  if (recovered != signer)                     return (false, \"invalid signature\") */\n      tag_144\n      jumpi\n        /* \"BFPayout.sol\":8257:8262  false */\n      0x00\n        /* \"BFPayout.sol\":8249:8284  return (false, \"invalid signature\") */\n      mload(0x40)\n      dup1\n      0x40\n      add\n      0x40\n      mstore\n      dup1\n      0x11\n      dup2\n      mstore\n      0x20\n      add\n      0x696e76616c6964207369676e6174757265000000000000000000000000000000\n      dup2\n      mstore\n      pop\n      swap4\n      pop\n      swap4\n      pop\n      pop\n      pop\n      jump(tag_129)\n        /* \"BFPayout.sol\":8204:8284  if (recovered != signer)                     return (false, \"invalid signature\") */\n    tag_144:\n        /* \"BFPayout.sol\":8302:8306  true */\n      0x01\n        /* \"BFPayout.sol\":8294:8313  return (true, \"ok\") */\n      mload(0x40)\n      dup1\n      0x40\n      add\n      0x40\n      mstore\n      dup1\n      0x02\n      dup2\n      mstore\n      0x20\n      add\n      0x6f6b000000000000000000000000000000000000000000000000000000000000\n      dup2\n      mstore\n      pop\n      swap4\n      pop\n      swap4\n      pop\n      pop\n      pop\n        /* \"BFPayout.sol\":7427:8320  function isClaimValid(... */\n    tag_129:\n      swap7\n      pop\n      swap7\n      swap5\n      pop\n      pop\n      pop\n      pop\n      pop\n      jump\t// out\n        /* \"BFPayout.sol\":9190:9316  function setVault(address _vault) external onlyOwner {... */\n    tag_71:\n        /* \"BFPayout.sol\":4890:4895  owner */\n      0x00\n      0x00\n      swap1\n      sload\n      swap1\n      0x0100\n      exp\n      swap1\n      div\n      0xffffffffffffffffffffffffffffffffffffffff\n      and\n        /* \"BFPayout.sol\":4876:4895  msg.sender != owner */\n      0xffffffffffffffffffffffffffffffffffffffff\n      and\n        /* \"BFPayout.sol\":4876:4886  msg.sender */\n      caller\n        /* \"BFPayout.sol\":4876:4895  msg.sender != owner */\n      0xffffffffffffffffffffffffffffffffffffffff\n      and\n      eq\n        /* \"BFPayout.sol\":4872:4914  if (msg.sender != owner) revert NotOwner() */\n      tag_146\n      jumpi\n        /* \"BFPayout.sol\":4904:4914  NotOwner() */\n      mload(0x40)\n      0x30cd747100000000000000000000000000000000000000000000000000000000\n      dup2\n      mstore\n      0x04\n      add\n      mload(0x40)\n      dup1\n      swap2\n      sub\n      swap1\n      revert\n        /* \"BFPayout.sol\":4872:4914  if (msg.sender != owner) revert NotOwner() */\n    tag_146:\n        /* \"BFPayout.sol\":9278:9284  _vault */\n      dup1\n        /* \"BFPayout.sol\":9258:9285  VaultUpdated(vault, _vault) */\n      0xffffffffffffffffffffffffffffffffffffffff\n      and\n        /* \"BFPayout.sol\":9271:9276  vault */\n      0x02\n      0x00\n      swap1\n      sload\n      swap1\n      0x0100\n      exp\n      swap1\n      div\n      0xffffffffffffffffffffffffffffffffffffffff\n      and\n        /* \"BFPayout.sol\":9258:9285  VaultUpdated(vault, _vault) */\n      0xffffffffffffffffffffffffffffffffffffffff\n      and\n      0x483bdedaaf23706a9800ac1af0d852b34927780d79f9d6ba60a80c7cad75ea39\n      mload(0x40)\n      mload(0x40)\n      dup1\n      swap2\n      sub\n      swap1\n      log3\n        /* \"BFPayout.sol\":9303:9309  _vault */\n      dup1\n        /* \"BFPayout.sol\":9295:9300  vault */\n      0x02\n      0x00\n        /* \"BFPayout.sol\":9295:9309  vault = _vault */\n      0x0100\n      exp\n      dup2\n      sload\n      dup2\n      0xffffffffffffffffffffffffffffffffffffffff\n      mul\n      not\n      and\n      swap1\n      dup4\n      0xffffffffffffffffffffffffffffffffffffffff\n      and\n      mul\n      or\n      swap1\n      sstore\n      pop\n        /* \"BFPayout.sol\":9190:9316  function setVault(address _vault) external onlyOwner {... */\n      pop\n      jump\t// out\n        /* \"BFPayout.sol\":9051:9184  function setSigner(address _signer) external onlyOwner {... */\n    tag_74:\n        /* \"BFPayout.sol\":4890:4895  owner */\n      0x00\n      0x00\n      swap1\n      sload\n      swap1\n      0x0100\n      exp\n      swap1\n      div\n      0xffffffffffffffffffffffffffffffffffffffff\n      and\n        /* \"BFPayout.sol\":4876:4895  msg.sender != owner */\n      0xffffffffffffffffffffffffffffffffffffffff\n      and\n        /* \"BFPayout.sol\":4876:4886  msg.sender */\n      caller\n        /* \"BFPayout.sol\":4876:4895  msg.sender != owner */\n      0xffffffffffffffffffffffffffffffffffffffff\n      and\n      eq\n        /* \"BFPayout.sol\":4872:4914  if (msg.sender != owner) revert NotOwner() */\n      tag_149\n      jumpi\n        /* \"BFPayout.sol\":4904:4914  NotOwner() */\n      mload(0x40)\n      0x30cd747100000000000000000000000000000000000000000000000000000000\n      dup2\n      mstore\n      0x04\n      add\n      mload(0x40)\n      dup1\n      swap2\n      sub\n      swap1\n      revert\n        /* \"BFPayout.sol\":4872:4914  if (msg.sender != owner) revert NotOwner() */\n    tag_149:\n        /* \"BFPayout.sol\":9143:9150  _signer */\n      dup1\n        /* \"BFPayout.sol\":9121:9151  SignerUpdated(signer, _signer) */\n      0xffffffffffffffffffffffffffffffffffffffff\n      and\n        /* \"BFPayout.sol\":9135:9141  signer */\n      0x01\n      0x00\n      swap1\n      sload\n      swap1\n      0x0100\n      exp\n      swap1\n      div\n      0xffffffffffffffffffffffffffffffffffffffff\n      and\n        /* \"BFPayout.sol\":9121:9151  SignerUpdated(signer, _signer) */\n      0xffffffffffffffffffffffffffffffffffffffff\n      and\n      0x2d025324f0a785e8c12d0a0d91a9caa49df4ef20ff87e0df7213a1d4f3157beb\n      mload(0x40)\n      mload(0x40)\n      dup1\n      swap2\n      sub\n      swap1\n      log3\n        /* \"BFPayout.sol\":9170:9177  _signer */\n      dup1\n        /* \"BFPayout.sol\":9161:9167  signer */\n      0x01\n      0x00\n        /* \"BFPayout.sol\":9161:9177  signer = _signer */\n      0x0100\n      exp\n      dup2\n      sload\n      dup2\n      0xffffffffffffffffffffffffffffffffffffffff\n      mul\n      not\n      and\n      swap1\n      dup4\n      0xffffffffffffffffffffffffffffffffffffffff\n      and\n      mul\n      or\n      swap1\n      sstore\n      pop\n        /* \"BFPayout.sol\":9051:9184  function setSigner(address _signer) external onlyOwner {... */\n      pop\n      jump\t// out\n        /* \"BFPayout.sol\":1667:1708  uint256 public constant POT_BPS    =  450 */\n    tag_76:\n        /* \"BFPayout.sol\":1705:1708  450 */\n      0x01c2\n        /* \"BFPayout.sol\":1667:1708  uint256 public constant POT_BPS    =  450 */\n      dup2\n      jump\t// out\n        /* \"BFPayout.sol\":1996:2016  address public owner */\n    tag_79:\n      0x00\n      0x00\n      swap1\n      sload\n      swap1\n      0x0100\n      exp\n      swap1\n      div\n      0xffffffffffffffffffffffffffffffffffffffff\n      and\n      dup2\n      jump\t// out\n        /* \"BFPayout.sol\":10001:10194  function emergencyWithdraw(address to, uint256 amount) external onlyOwner {... */\n    tag_84:\n        /* \"BFPayout.sol\":4890:4895  owner */\n      0x00\n      0x00\n      swap1\n      sload\n      swap1\n      0x0100\n      exp\n      swap1\n      div\n      0xffffffffffffffffffffffffffffffffffffffff\n      and\n        /* \"BFPayout.sol\":4876:4895  msg.sender != owner */\n      0xffffffffffffffffffffffffffffffffffffffff\n      and\n        /* \"BFPayout.sol\":4876:4886  msg.sender */\n      caller\n        /* \"BFPayout.sol\":4876:4895  msg.sender != owner */\n      0xffffffffffffffffffffffffffffffffffffffff\n      and\n      eq\n        /* \"BFPayout.sol\":4872:4914  if (msg.sender != owner) revert NotOwner() */\n      tag_152\n      jumpi\n        /* \"BFPayout.sol\":4904:4914  NotOwner() */\n      mload(0x40)\n      0x30cd747100000000000000000000000000000000000000000000000000000000\n      dup2\n      mstore\n      0x04\n      add\n      mload(0x40)\n      dup1\n      swap2\n      sub\n      swap1\n      revert\n        /* \"BFPayout.sol\":4872:4914  if (msg.sender != owner) revert NotOwner() */\n    tag_152:\n        /* \"BFPayout.sol\":10090:10097  bfToken */\n      0x05\n      0x00\n      swap1\n      sload\n      swap1\n      0x0100\n      exp\n      swap1\n      div\n      0xffffffffffffffffffffffffffffffffffffffff\n      and\n        /* \"BFPayout.sol\":10090:10106  bfToken.transfer */\n      0xffffffffffffffffffffffffffffffffffffffff\n      and\n      0xa9059cbb\n        /* \"BFPayout.sol\":10107:10109  to */\n      dup4\n        /* \"BFPayout.sol\":10111:10117  amount */\n      dup4\n        /* \"BFPayout.sol\":10090:10118  bfToken.transfer(to, amount) */\n      mload(0x40)\n      dup4\n      0xffffffff\n      and\n      0xe0\n      shl\n      dup2\n      mstore\n      0x04\n      add\n      tag_154\n      swap3\n      swap2\n      swap1\n      tag_155\n      jump\t// in\n    tag_154:\n      0x20\n      mload(0x40)\n      dup1\n      dup4\n      sub\n      dup2\n      0x00\n      dup8\n      gas\n      call\n      iszero\n      dup1\n      iszero\n      tag_157\n      jumpi\n      returndatacopy(0x00, 0x00, returndatasize)\n      revert(0x00, returndatasize)\n    tag_157:\n      pop\n      pop\n      pop\n      pop\n      mload(0x40)\n      returndatasize\n      not(0x1f)\n      0x1f\n      dup3\n      add\n      and\n      dup3\n      add\n      dup1\n      0x40\n      mstore\n      pop\n      dup2\n      add\n      swap1\n      tag_158\n      swap2\n      swap1\n      tag_159\n      jump\t// in\n    tag_158:\n        /* \"BFPayout.sol\":10085:10143  if (!bfToken.transfer(to, amount)) revert TransferFailed() */\n      tag_160\n      jumpi\n        /* \"BFPayout.sol\":10127:10143  TransferFailed() */\n      mload(0x40)\n      0x90b8ec1800000000000000000000000000000000000000000000000000000000\n      dup2\n      mstore\n      0x04\n      add\n      mload(0x40)\n      dup1\n      swap2\n      sub\n      swap1\n      revert\n        /* \"BFPayout.sol\":10085:10143  if (!bfToken.transfer(to, amount)) revert TransferFailed() */\n    tag_160:\n        /* \"BFPayout.sol\":10176:10178  to */\n      dup2\n        /* \"BFPayout.sol\":10158:10187  EmergencyWithdraw(to, amount) */\n      0xffffffffffffffffffffffffffffffffffffffff\n      and\n      0x5fafa99d0643513820be26656b45130b01e1c03062e1266bf36f88cbd3bd9695\n        /* \"BFPayout.sol\":10180:10186  amount */\n      dup3\n        /* \"BFPayout.sol\":10158:10187  EmergencyWithdraw(to, amount) */\n      mload(0x40)\n      tag_161\n      swap2\n      swap1\n      tag_52\n      jump\t// in\n    tag_161:\n      mload(0x40)\n      dup1\n      swap2\n      sub\n      swap1\n      log2\n        /* \"BFPayout.sol\":10001:10194  function emergencyWithdraw(address to, uint256 amount) external onlyOwner {... */\n      pop\n      pop\n      jump\t// out\n        /* \"BFPayout.sol\":1724:1765  uint256 public constant BURN_BPS   =  100 */\n    tag_86:\n        /* \"BFPayout.sol\":1762:1765  100 */\n      0x64\n        /* \"BFPayout.sol\":1724:1765  uint256 public constant BURN_BPS   =  100 */\n      dup2\n      jump\t// out\n        /* \"BFPayout.sol\":2222:2246  address public potWallet */\n    tag_89:\n      0x03\n      0x00\n      swap1\n      sload\n      swap1\n      0x0100\n      exp\n      swap1\n      div\n      0xffffffffffffffffffffffffffffffffffffffff\n      and\n      dup2\n      jump\t// out\n        /* \"BFPayout.sol\":5671:7264  function claimPrize(... */\n    tag_93:\n        /* \"BFPayout.sol\":4977:4983  paused */\n      0x05\n      0x14\n      swap1\n      sload\n      swap1\n      0x0100\n      exp\n      swap1\n      div\n      0xff\n      and\n        /* \"BFPayout.sol\":4973:5008  if (paused) revert ContractPaused() */\n      iszero\n      tag_163\n      jumpi\n        /* \"BFPayout.sol\":4992:5008  ContractPaused() */\n      mload(0x40)\n      0xab35696f00000000000000000000000000000000000000000000000000000000\n      dup2\n      mstore\n      0x04\n      add\n      mload(0x40)\n      dup1\n      swap2\n      sub\n      swap1\n      revert\n        /* \"BFPayout.sol\":4973:5008  if (paused) revert ContractPaused() */\n    tag_163:\n        /* \"BFPayout.sol\":5875:5876  0 */\n      0x00\n        /* \"BFPayout.sol\":5864:5871  bfGross */\n      dup6\n        /* \"BFPayout.sol\":5864:5876  bfGross == 0 */\n      sub\n        /* \"BFPayout.sol\":5860:5909  if (bfGross == 0)             revert ZeroAmount() */\n      tag_165\n      jumpi\n        /* \"BFPayout.sol\":5897:5909  ZeroAmount() */\n      mload(0x40)\n      0x1f2a200500000000000000000000000000000000000000000000000000000000\n      dup2\n      mstore\n      0x04\n      add\n      mload(0x40)\n      dup1\n      swap2\n      sub\n      swap1\n      revert\n        /* \"BFPayout.sol\":5860:5909  if (bfGross == 0)             revert ZeroAmount() */\n    tag_165:\n        /* \"BFPayout.sol\":5941:5947  expiry */\n      dup3\n        /* \"BFPayout.sol\":5923:5938  block.timestamp */\n      timestamp\n        /* \"BFPayout.sol\":5923:5947  block.timestamp > expiry */\n      gt\n        /* \"BFPayout.sol\":5919:5970  if (block.timestamp > expiry) revert ClaimExpired() */\n      iszero\n      tag_166\n      jumpi\n        /* \"BFPayout.sol\":5956:5970  ClaimExpired() */\n      mload(0x40)\n      0x82a49d9e00000000000000000000000000000000000000000000000000000000\n      dup2\n      mstore\n      0x04\n      add\n      mload(0x40)\n      dup1\n      swap2\n      sub\n      swap1\n      revert\n        /* \"BFPayout.sol\":5919:5970  if (block.timestamp > expiry) revert ClaimExpired() */\n    tag_166:\n        /* \"BFPayout.sol\":5984:5994  usedNonces */\n      0x06\n        /* \"BFPayout.sol\":5984:6001  usedNonces[nonce] */\n      0x00\n        /* \"BFPayout.sol\":5995:6000  nonce */\n      dup6\n        /* \"BFPayout.sol\":5984:6001  usedNonces[nonce] */\n      dup2\n      mstore\n      0x20\n      add\n      swap1\n      dup2\n      mstore\n      0x20\n      add\n      0x00\n      keccak256\n      0x00\n      swap1\n      sload\n      swap1\n      0x0100\n      exp\n      swap1\n      div\n      0xff\n      and\n        /* \"BFPayout.sol\":5980:6028  if (usedNonces[nonce])        revert NonceUsed() */\n      iszero\n      tag_167\n      jumpi\n        /* \"BFPayout.sol\":6017:6028  NonceUsed() */\n      mload(0x40)\n      0x1f6d5aef00000000000000000000000000000000000000000000000000000000\n      dup2\n      mstore\n      0x04\n      add\n      mload(0x40)\n      dup1\n      swap2\n      sub\n      swap1\n      revert\n        /* \"BFPayout.sol\":5980:6028  if (usedNonces[nonce])        revert NonceUsed() */\n    tag_167:\n        /* \"BFPayout.sol\":6056:6062  player */\n      dup6\n        /* \"BFPayout.sol\":6042:6062  msg.sender != player */\n      0xffffffffffffffffffffffffffffffffffffffff\n      and\n        /* \"BFPayout.sol\":6042:6052  msg.sender */\n      caller\n        /* \"BFPayout.sol\":6042:6062  msg.sender != player */\n      0xffffffffffffffffffffffffffffffffffffffff\n      and\n      eq\n        /* \"BFPayout.sol\":6038:6093  if (msg.sender != player)     revert InvalidSignature() */\n      tag_168\n      jumpi\n        /* \"BFPayout.sol\":6075:6093  InvalidSignature() */\n      mload(0x40)\n      0x8baa579f00000000000000000000000000000000000000000000000000000000\n      dup2\n      mstore\n      0x04\n      add\n      mload(0x40)\n      dup1\n      swap2\n      sub\n      swap1\n      revert\n        /* \"BFPayout.sol\":6038:6093  if (msg.sender != player)     revert InvalidSignature() */\n    tag_168:\n        /* \"BFPayout.sol\":6139:6151  bytes32 hash */\n      0x00\n        /* \"BFPayout.sol\":6159:6201  _buildHash(player, bfGross, nonce, expiry) */\n      tag_169\n        /* \"BFPayout.sol\":6170:6176  player */\n      dup8\n        /* \"BFPayout.sol\":6178:6185  bfGross */\n      dup8\n        /* \"BFPayout.sol\":6187:6192  nonce */\n      dup8\n        /* \"BFPayout.sol\":6194:6200  expiry */\n      dup8\n        /* \"BFPayout.sol\":6159:6169  _buildHash */\n      tag_141\n        /* \"BFPayout.sol\":6159:6201  _buildHash(player, bfGross, nonce, expiry) */\n      jump\t// in\n    tag_169:\n        /* \"BFPayout.sol\":6139:6201  bytes32 hash      = _buildHash(player, bfGross, nonce, expiry) */\n      swap1\n      pop\n        /* \"BFPayout.sol\":6211:6228  address recovered */\n      0x00\n        /* \"BFPayout.sol\":6231:6256  _recover(hash, signature) */\n      tag_170\n        /* \"BFPayout.sol\":6240:6244  hash */\n      dup3\n        /* \"BFPayout.sol\":6246:6255  signature */\n      dup6\n      dup6\n        /* \"BFPayout.sol\":6231:6239  _recover */\n      tag_143\n        /* \"BFPayout.sol\":6231:6256  _recover(hash, signature) */\n      jump\t// in\n    tag_170:\n        /* \"BFPayout.sol\":6211:6256  address recovered = _recover(hash, signature) */\n      swap1\n      pop\n        /* \"BFPayout.sol\":6283:6289  signer */\n      0x01\n      0x00\n      swap1\n      sload\n      swap1\n      0x0100\n      exp\n      swap1\n      div\n      0xffffffffffffffffffffffffffffffffffffffff\n      and\n        /* \"BFPayout.sol\":6270:6289  recovered != signer */\n      0xffffffffffffffffffffffffffffffffffffffff\n      and\n        /* \"BFPayout.sol\":6270:6279  recovered */\n      dup2\n        /* \"BFPayout.sol\":6270:6289  recovered != signer */\n      0xffffffffffffffffffffffffffffffffffffffff\n      and\n      eq\n        /* \"BFPayout.sol\":6266:6321  if (recovered != signer)      revert InvalidSignature() */\n      tag_171\n      jumpi\n        /* \"BFPayout.sol\":6303:6321  InvalidSignature() */\n      mload(0x40)\n      0x8baa579f00000000000000000000000000000000000000000000000000000000\n      dup2\n      mstore\n      0x04\n      add\n      mload(0x40)\n      dup1\n      swap2\n      sub\n      swap1\n      revert\n        /* \"BFPayout.sol\":6266:6321  if (recovered != signer)      revert InvalidSignature() */\n    tag_171:\n        /* \"BFPayout.sol\":6359:6376  uint256 potAmount */\n      0x00\n        /* \"BFPayout.sol\":1599:1604  10000 */\n      0x2710\n        /* \"BFPayout.sol\":1705:1708  450 */\n      0x01c2\n        /* \"BFPayout.sol\":6383:6390  bfGross */\n      dup10\n        /* \"BFPayout.sol\":6383:6400  bfGross * POT_BPS */\n      tag_172\n      swap2\n      swap1\n      tag_111\n      jump\t// in\n    tag_172:\n        /* \"BFPayout.sol\":6382:6408  (bfGross * POT_BPS)  / BPS */\n      tag_173\n      swap2\n      swap1\n      tag_113\n      jump\t// in\n    tag_173:\n        /* \"BFPayout.sol\":6359:6408  uint256 potAmount    = (bfGross * POT_BPS)  / BPS */\n      swap1\n      pop\n        /* \"BFPayout.sol\":6428:6446  uint256 burnAmount */\n      0x00\n        /* \"BFPayout.sol\":1599:1604  10000 */\n      0x2710\n        /* \"BFPayout.sol\":1762:1765  100 */\n      0x64\n        /* \"BFPayout.sol\":6452:6459  bfGross */\n      dup11\n        /* \"BFPayout.sol\":6452:6470  bfGross * BURN_BPS */\n      tag_174\n      swap2\n      swap1\n      tag_111\n      jump\t// in\n    tag_174:\n        /* \"BFPayout.sol\":6451:6477  (bfGross * BURN_BPS) / BPS */\n      tag_175\n      swap2\n      swap1\n      tag_113\n      jump\t// in\n    tag_175:\n        /* \"BFPayout.sol\":6428:6477  uint256 burnAmount   = (bfGross * BURN_BPS) / BPS */\n      swap1\n      pop\n        /* \"BFPayout.sol\":6497:6517  uint256 playerAmount */\n      0x00\n        /* \"BFPayout.sol\":6542:6552  burnAmount */\n      dup2\n        /* \"BFPayout.sol\":6530:6539  potAmount */\n      dup4\n        /* \"BFPayout.sol\":6520:6527  bfGross */\n      dup12\n        /* \"BFPayout.sol\":6520:6539  bfGross - potAmount */\n      tag_176\n      swap2\n      swap1\n      tag_117\n      jump\t// in\n    tag_176:\n        /* \"BFPayout.sol\":6520:6552  bfGross - potAmount - burnAmount */\n      tag_177\n      swap2\n      swap1\n      tag_117\n      jump\t// in\n    tag_177:\n        /* \"BFPayout.sol\":6497:6552  uint256 playerAmount = bfGross - potAmount - burnAmount */\n      swap1\n      pop\n        /* \"BFPayout.sol\":6652:6659  bfGross */\n      dup10\n        /* \"BFPayout.sol\":6625:6632  bfToken */\n      0x05\n      0x00\n      swap1\n      sload\n      swap1\n      0x0100\n      exp\n      swap1\n      div\n      0xffffffffffffffffffffffffffffffffffffffff\n      and\n        /* \"BFPayout.sol\":6625:6642  bfToken.balanceOf */\n      0xffffffffffffffffffffffffffffffffffffffff\n      and\n      0x70a08231\n        /* \"BFPayout.sol\":6643:6648  vault */\n      0x02\n      0x00\n      swap1\n      sload\n      swap1\n      0x0100\n      exp\n      swap1\n      div\n      0xffffffffffffffffffffffffffffffffffffffff\n      and\n        /* \"BFPayout.sol\":6625:6649  bfToken.balanceOf(vault) */\n      mload(0x40)\n      dup3\n      0xffffffff\n      and\n      0xe0\n      shl\n      dup2\n      mstore\n      0x04\n      add\n      tag_178\n      swap2\n      swap1\n      tag_31\n      jump\t// in\n    tag_178:\n      0x20\n      mload(0x40)\n      dup1\n      dup4\n      sub\n      dup2\n      dup7\n      gas\n      staticcall\n      iszero\n      dup1\n      iszero\n      tag_180\n      jumpi\n      returndatacopy(0x00, 0x00, returndatasize)\n      revert(0x00, returndatasize)\n    tag_180:\n      pop\n      pop\n      pop\n      pop\n      mload(0x40)\n      returndatasize\n      not(0x1f)\n      0x1f\n      dup3\n      add\n      and\n      dup3\n      add\n      dup1\n      0x40\n      mstore\n      pop\n      dup2\n      add\n      swap1\n      tag_181\n      swap2\n      swap1\n      tag_138\n      jump\t// in\n    tag_181:\n        /* \"BFPayout.sol\":6625:6659  bfToken.balanceOf(vault) < bfGross */\n      lt\n        /* \"BFPayout.sol\":6621:6694  if (bfToken.balanceOf(vault) < bfGross) revert InsufficientVaultBalance() */\n      iszero\n      tag_182\n      jumpi\n        /* \"BFPayout.sol\":6668:6694  InsufficientVaultBalance() */\n      mload(0x40)\n      0x14ecd6c700000000000000000000000000000000000000000000000000000000\n      dup2\n      mstore\n      0x04\n      add\n      mload(0x40)\n      dup1\n      swap2\n      sub\n      swap1\n      revert\n        /* \"BFPayout.sol\":6621:6694  if (bfToken.balanceOf(vault) < bfGross) revert InsufficientVaultBalance() */\n    tag_182:\n        /* \"BFPayout.sol\":6790:6794  true */\n      0x01\n        /* \"BFPayout.sol\":6770:6780  usedNonces */\n      0x06\n        /* \"BFPayout.sol\":6770:6787  usedNonces[nonce] */\n      0x00\n        /* \"BFPayout.sol\":6781:6786  nonce */\n      dup12\n        /* \"BFPayout.sol\":6770:6787  usedNonces[nonce] */\n      dup2\n      mstore\n      0x20\n      add\n      swap1\n      dup2\n      mstore\n      0x20\n      add\n      0x00\n      keccak256\n      0x00\n        /* \"BFPayout.sol\":6770:6794  usedNonces[nonce] = true */\n      0x0100\n      exp\n      dup2\n      sload\n      dup2\n      0xff\n      mul\n      not\n      and\n      swap1\n      dup4\n      iszero\n      iszero\n      mul\n      or\n      swap1\n      sstore\n      pop\n        /* \"BFPayout.sol\":6847:6854  bfToken */\n      0x05\n      0x00\n      swap1\n      sload\n      swap1\n      0x0100\n      exp\n      swap1\n      div\n      0xffffffffffffffffffffffffffffffffffffffff\n      and\n        /* \"BFPayout.sol\":6847:6867  bfToken.transferFrom */\n      0xffffffffffffffffffffffffffffffffffffffff\n      and\n      0x23b872dd\n        /* \"BFPayout.sol\":6868:6873  vault */\n      0x02\n      0x00\n      swap1\n      sload\n      swap1\n      0x0100\n      exp\n      swap1\n      div\n      0xffffffffffffffffffffffffffffffffffffffff\n      and\n        /* \"BFPayout.sol\":6875:6881  player */\n      dup14\n        /* \"BFPayout.sol\":6883:6895  playerAmount */\n      dup5\n        /* \"BFPayout.sol\":6847:6896  bfToken.transferFrom(vault, player, playerAmount) */\n      mload(0x40)\n      dup5\n      0xffffffff\n      and\n      0xe0\n      shl\n      dup2\n      mstore\n      0x04\n      add\n      tag_183\n      swap4\n      swap3\n      swap2\n      swap1\n      tag_184\n      jump\t// in\n    tag_183:\n      0x20\n      mload(0x40)\n      dup1\n      dup4\n      sub\n      dup2\n      0x00\n      dup8\n      gas\n      call\n      iszero\n      dup1\n      iszero\n      tag_186\n      jumpi\n      returndatacopy(0x00, 0x00, returndatasize)\n      revert(0x00, returndatasize)\n    tag_186:\n      pop\n      pop\n      pop\n      pop\n      mload(0x40)\n      returndatasize\n      not(0x1f)\n      0x1f\n      dup3\n      add\n      and\n      dup3\n      add\n      dup1\n      0x40\n      mstore\n      pop\n      dup2\n      add\n      swap1\n      tag_187\n      swap2\n      swap1\n      tag_159\n      jump\t// in\n    tag_187:\n        /* \"BFPayout.sol\":6842:6924  if (!bfToken.transferFrom(vault, player, playerAmount))    revert TransferFailed() */\n      tag_188\n      jumpi\n        /* \"BFPayout.sol\":6908:6924  TransferFailed() */\n      mload(0x40)\n      0x90b8ec1800000000000000000000000000000000000000000000000000000000\n      dup2\n      mstore\n      0x04\n      add\n      mload(0x40)\n      dup1\n      swap2\n      sub\n      swap1\n      revert\n        /* \"BFPayout.sol\":6842:6924  if (!bfToken.transferFrom(vault, player, playerAmount))    revert TransferFailed() */\n    tag_188:\n        /* \"BFPayout.sol\":6973:6980  bfToken */\n      0x05\n      0x00\n      swap1\n      sload\n      swap1\n      0x0100\n      exp\n      swap1\n      div\n      0xffffffffffffffffffffffffffffffffffffffff\n      and\n        /* \"BFPayout.sol\":6973:6993  bfToken.transferFrom */\n      0xffffffffffffffffffffffffffffffffffffffff\n      and\n      0x23b872dd\n        /* \"BFPayout.sol\":6994:6999  vault */\n      0x02\n      0x00\n      swap1\n      sload\n      swap1\n      0x0100\n      exp\n      swap1\n      div\n      0xffffffffffffffffffffffffffffffffffffffff\n      and\n        /* \"BFPayout.sol\":7001:7010  potWallet */\n      0x03\n      0x00\n      swap1\n      sload\n      swap1\n      0x0100\n      exp\n      swap1\n      div\n      0xffffffffffffffffffffffffffffffffffffffff\n      and\n        /* \"BFPayout.sol\":7012:7021  potAmount */\n      dup7\n        /* \"BFPayout.sol\":6973:7022  bfToken.transferFrom(vault, potWallet, potAmount) */\n      mload(0x40)\n      dup5\n      0xffffffff\n      and\n      0xe0\n      shl\n      dup2\n      mstore\n      0x04\n      add\n      tag_189\n      swap4\n      swap3\n      swap2\n      swap1\n      tag_184\n      jump\t// in\n    tag_189:\n      0x20\n      mload(0x40)\n      dup1\n      dup4\n      sub\n      dup2\n      0x00\n      dup8\n      gas\n      call\n      iszero\n      dup1\n      iszero\n      tag_191\n      jumpi\n      returndatacopy(0x00, 0x00, returndatasize)\n      revert(0x00, returndatasize)\n    tag_191:\n      pop\n      pop\n      pop\n      pop\n      mload(0x40)\n      returndatasize\n      not(0x1f)\n      0x1f\n      dup3\n      add\n      and\n      dup3\n      add\n      dup1\n      0x40\n      mstore\n      pop\n      dup2\n      add\n      swap1\n      tag_192\n      swap2\n      swap1\n      tag_159\n      jump\t// in\n    tag_192:\n        /* \"BFPayout.sol\":6968:7050  if (!bfToken.transferFrom(vault, potWallet, potAmount))    revert TransferFailed() */\n      tag_193\n      jumpi\n        /* \"BFPayout.sol\":7034:7050  TransferFailed() */\n      mload(0x40)\n      0x90b8ec1800000000000000000000000000000000000000000000000000000000\n      dup2\n      mstore\n      0x04\n      add\n      mload(0x40)\n      dup1\n      swap2\n      sub\n      swap1\n      revert\n        /* \"BFPayout.sol\":6968:7050  if (!bfToken.transferFrom(vault, potWallet, potAmount))    revert TransferFailed() */\n    tag_193:\n        /* \"BFPayout.sol\":7100:7107  bfToken */\n      0x05\n      0x00\n      swap1\n      sload\n      swap1\n      0x0100\n      exp\n      swap1\n      div\n      0xffffffffffffffffffffffffffffffffffffffff\n      and\n        /* \"BFPayout.sol\":7100:7120  bfToken.transferFrom */\n      0xffffffffffffffffffffffffffffffffffffffff\n      and\n      0x23b872dd\n        /* \"BFPayout.sol\":7121:7126  vault */\n      0x02\n      0x00\n      swap1\n      sload\n      swap1\n      0x0100\n      exp\n      swap1\n      div\n      0xffffffffffffffffffffffffffffffffffffffff\n      and\n        /* \"BFPayout.sol\":7128:7138  burnWallet */\n      0x04\n      0x00\n      swap1\n      sload\n      swap1\n      0x0100\n      exp\n      swap1\n      div\n      0xffffffffffffffffffffffffffffffffffffffff\n      and\n        /* \"BFPayout.sol\":7140:7150  burnAmount */\n      dup6\n        /* \"BFPayout.sol\":7100:7151  bfToken.transferFrom(vault, burnWallet, burnAmount) */\n      mload(0x40)\n      dup5\n      0xffffffff\n      and\n      0xe0\n      shl\n      dup2\n      mstore\n      0x04\n      add\n      tag_194\n      swap4\n      swap3\n      swap2\n      swap1\n      tag_184\n      jump\t// in\n    tag_194:\n      0x20\n      mload(0x40)\n      dup1\n      dup4\n      sub\n      dup2\n      0x00\n      dup8\n      gas\n      call\n      iszero\n      dup1\n      iszero\n      tag_196\n      jumpi\n      returndatacopy(0x00, 0x00, returndatasize)\n      revert(0x00, returndatasize)\n    tag_196:\n      pop\n      pop\n      pop\n      pop\n      mload(0x40)\n      returndatasize\n      not(0x1f)\n      0x1f\n      dup3\n      add\n      and\n      dup3\n      add\n      dup1\n      0x40\n      mstore\n      pop\n      dup2\n      add\n      swap1\n      tag_197\n      swap2\n      swap1\n      tag_159\n      jump\t// in\n    tag_197:\n        /* \"BFPayout.sol\":7095:7177  if (!bfToken.transferFrom(vault, burnWallet, burnAmount))  revert TransferFailed() */\n      tag_198\n      jumpi\n        /* \"BFPayout.sol\":7161:7177  TransferFailed() */\n      mload(0x40)\n      0x90b8ec1800000000000000000000000000000000000000000000000000000000\n      dup2\n      mstore\n      0x04\n      add\n      mload(0x40)\n      dup1\n      swap2\n      sub\n      swap1\n      revert\n        /* \"BFPayout.sol\":7095:7177  if (!bfToken.transferFrom(vault, burnWallet, burnAmount))  revert TransferFailed() */\n    tag_198:\n        /* \"BFPayout.sol\":7206:7212  player */\n      dup11\n        /* \"BFPayout.sol\":7193:7257  PrizeClaimed(player, playerAmount, potAmount, burnAmount, nonce) */\n      0xffffffffffffffffffffffffffffffffffffffff\n      and\n      0xcd827817efd761ae05fe6df882e96a826f460e64ad6954603c5a2e959cf21487\n        /* \"BFPayout.sol\":7214:7226  playerAmount */\n      dup3\n        /* \"BFPayout.sol\":7228:7237  potAmount */\n      dup6\n        /* \"BFPayout.sol\":7239:7249  burnAmount */\n      dup6\n        /* \"BFPayout.sol\":7251:7256  nonce */\n      dup14\n        /* \"BFPayout.sol\":7193:7257  PrizeClaimed(player, playerAmount, potAmount, burnAmount, nonce) */\n      mload(0x40)\n      tag_199\n      swap5\n      swap4\n      swap3\n      swap2\n      swap1\n      tag_200\n      jump\t// in\n    tag_199:\n      mload(0x40)\n      dup1\n      swap2\n      sub\n      swap1\n      log2\n        /* \"BFPayout.sol\":5850:7264  {... */\n      pop\n      pop\n      pop\n      pop\n      pop\n        /* \"BFPayout.sol\":5671:7264  function claimPrize(... */\n      pop\n      pop\n      pop\n      pop\n      pop\n      pop\n      jump\t// out\n        /* \"BFPayout.sol\":2409:2430  IERC20 public bfToken */\n    tag_95:\n      0x05\n      0x00\n      swap1\n      sload\n      swap1\n      0x0100\n      exp\n      swap1\n      div\n      0xffffffffffffffffffffffffffffffffffffffff\n      and\n      dup2\n      jump\t// out\n        /* \"BFPayout.sol\":9816:9913  function transferOwnership(address newOwner) external onlyOwner {... */\n    tag_100:\n        /* \"BFPayout.sol\":4890:4895  owner */\n      0x00\n      0x00\n      swap1\n      sload\n      swap1\n      0x0100\n      exp\n      swap1\n      div\n      0xffffffffffffffffffffffffffffffffffffffff\n      and\n        /* \"BFPayout.sol\":4876:4895  msg.sender != owner */\n      0xffffffffffffffffffffffffffffffffffffffff\n      and\n        /* \"BFPayout.sol\":4876:4886  msg.sender */\n      caller\n        /* \"BFPayout.sol\":4876:4895  msg.sender != owner */\n      0xffffffffffffffffffffffffffffffffffffffff\n      and\n      eq\n        /* \"BFPayout.sol\":4872:4914  if (msg.sender != owner) revert NotOwner() */\n      tag_202\n      jumpi\n        /* \"BFPayout.sol\":4904:4914  NotOwner() */\n      mload(0x40)\n      0x30cd747100000000000000000000000000000000000000000000000000000000\n      dup2\n      mstore\n      0x04\n      add\n      mload(0x40)\n      dup1\n      swap2\n      sub\n      swap1\n      revert\n        /* \"BFPayout.sol\":4872:4914  if (msg.sender != owner) revert NotOwner() */\n    tag_202:\n        /* \"BFPayout.sol\":9898:9906  newOwner */\n      dup1\n        /* \"BFPayout.sol\":9890:9895  owner */\n      0x00\n      0x00\n        /* \"BFPayout.sol\":9890:9906  owner = newOwner */\n      0x0100\n      exp\n      dup2\n      sload\n      dup2\n      0xffffffffffffffffffffffffffffffffffffffff\n      mul\n      not\n      and\n      swap1\n      dup4\n      0xffffffffffffffffffffffffffffffffffffffff\n      and\n      mul\n      or\n      swap1\n      sstore\n      pop\n        /* \"BFPayout.sol\":9816:9913  function transferOwnership(address newOwner) external onlyOwner {... */\n      pop\n      jump\t// out\n        /* \"BFPayout.sol\":2121:2141  address public vault */\n    tag_102:\n      0x02\n      0x00\n      swap1\n      sload\n      swap1\n      0x0100\n      exp\n      swap1\n      div\n      0xffffffffffffffffffffffffffffffffffffffff\n      and\n      dup2\n      jump\t// out\n        /* \"BFPayout.sol\":2463:2505  mapping(bytes32 => bool) public usedNonces */\n    tag_107:\n      mstore(0x20, 0x06)\n      dup1\n      0x00\n      mstore\n      keccak256(0x00, 0x40)\n      0x00\n      swap2\n      pop\n      sload\n      swap1\n      0x0100\n      exp\n      swap1\n      div\n      0xff\n      and\n      dup2\n      jump\t// out\n        /* \"BFPayout.sol\":10380:10880  function _buildHash(... */\n    tag_141:\n        /* \"BFPayout.sol\":10525:10532  bytes32 */\n      0x00\n        /* \"BFPayout.sol\":10544:10555  bytes32 raw */\n      0x00\n        /* \"BFPayout.sol\":10598:10611  block.chainid */\n      chainid\n        /* \"BFPayout.sol\":10661:10665  this */\n      address\n        /* \"BFPayout.sol\":10711:10717  player */\n      dup8\n        /* \"BFPayout.sol\":10731:10738  bfGross */\n      dup8\n        /* \"BFPayout.sol\":10752:10757  nonce */\n      dup8\n        /* \"BFPayout.sol\":10771:10777  expiry */\n      dup8\n        /* \"BFPayout.sol\":10568:10787  abi.encodePacked(... */\n      add(0x20, mload(0x40))\n      tag_205\n      swap7\n      swap6\n      swap5\n      swap4\n      swap3\n      swap2\n      swap1\n      tag_206\n      jump\t// in\n    tag_205:\n      mload(0x40)\n      0x20\n      dup2\n      dup4\n      sub\n      sub\n      dup2\n      mstore\n      swap1\n      0x40\n      mstore\n        /* \"BFPayout.sol\":10558:10788  keccak256(abi.encodePacked(... */\n      dup1\n      mload\n      swap1\n      0x20\n      add\n      keccak256\n        /* \"BFPayout.sol\":10544:10788  bytes32 raw = keccak256(abi.encodePacked(... */\n      swap1\n      pop\n        /* \"BFPayout.sol\":10868:10871  raw */\n      dup1\n        /* \"BFPayout.sol\":10815:10872  abi.encodePacked(\"\\x19Ethereum Signed Message:\\n32\", raw) */\n      add(0x20, mload(0x40))\n      tag_207\n      swap2\n      swap1\n      tag_208\n      jump\t// in\n    tag_207:\n      mload(0x40)\n      0x20\n      dup2\n      dup4\n      sub\n      sub\n      dup2\n      mstore\n      swap1\n      0x40\n      mstore\n        /* \"BFPayout.sol\":10805:10873  keccak256(abi.encodePacked(\"\\x19Ethereum Signed Message:\\n32\", raw)) */\n      dup1\n      mload\n      swap1\n      0x20\n      add\n      keccak256\n        /* \"BFPayout.sol\":10798:10873  return keccak256(abi.encodePacked(\"\\x19Ethereum Signed Message:\\n32\", raw)) */\n      swap2\n      pop\n      pop\n        /* \"BFPayout.sol\":10380:10880  function _buildHash(... */\n      swap5\n      swap4\n      pop\n      pop\n      pop\n      pop\n      jump\t// out\n        /* \"BFPayout.sol\":10886:11386  function _recover(bytes32 hash, bytes calldata sig) internal pure returns (address) {... */\n    tag_143:\n        /* \"BFPayout.sol\":10961:10968  address */\n      0x00\n        /* \"BFPayout.sol\":10998:11000  65 */\n      0x41\n        /* \"BFPayout.sol\":10984:10987  sig */\n      dup4\n      dup4\n        /* \"BFPayout.sol\":10984:10994  sig.length */\n      swap1\n      pop\n        /* \"BFPayout.sol\":10984:11000  sig.length != 65 */\n      eq\n        /* \"BFPayout.sol\":10980:11019  if (sig.length != 65) return address(0) */\n      tag_210\n      jumpi\n        /* \"BFPayout.sol\":11017:11018  0 */\n      0x00\n        /* \"BFPayout.sol\":11002:11019  return address(0) */\n      swap1\n      pop\n      jump(tag_209)\n        /* \"BFPayout.sol\":10980:11019  if (sig.length != 65) return address(0) */\n    tag_210:\n        /* \"BFPayout.sol\":11029:11038  bytes32 r */\n      0x00\n        /* \"BFPayout.sol\":11048:11057  bytes32 s */\n      0x00\n        /* \"BFPayout.sol\":11067:11076  uint8   v */\n      0x00\n        /* \"BFPayout.sol\":11127:11137  sig.offset */\n      dup6\n        /* \"BFPayout.sol\":11114:11138  calldataload(sig.offset) */\n      calldataload\n        /* \"BFPayout.sol\":11109:11138  r := calldataload(sig.offset) */\n      swap3\n      pop\n        /* \"BFPayout.sol\":11185:11187  32 */\n      0x20\n        /* \"BFPayout.sol\":11173:11183  sig.offset */\n      dup7\n        /* \"BFPayout.sol\":11169:11188  add(sig.offset, 32) */\n      add\n        /* \"BFPayout.sol\":11156:11189  calldataload(add(sig.offset, 32)) */\n      calldataload\n        /* \"BFPayout.sol\":11151:11189  s := calldataload(add(sig.offset, 32)) */\n      swap2\n      pop\n        /* \"BFPayout.sol\":11244:11246  64 */\n      0x40\n        /* \"BFPayout.sol\":11232:11242  sig.offset */\n      dup7\n        /* \"BFPayout.sol\":11228:11247  add(sig.offset, 64) */\n      add\n        /* \"BFPayout.sol\":11215:11248  calldataload(add(sig.offset, 64)) */\n      calldataload\n        /* \"BFPayout.sol\":11212:11213  0 */\n      0x00\n        /* \"BFPayout.sol\":11207:11249  byte(0, calldataload(add(sig.offset, 64))) */\n      byte\n        /* \"BFPayout.sol\":11202:11249  v := byte(0, calldataload(add(sig.offset, 64))) */\n      swap1\n      pop\n        /* \"BFPayout.sol\":11276:11278  27 */\n      0x1b\n        /* \"BFPayout.sol\":11272:11273  v */\n      dup2\n        /* \"BFPayout.sol\":11272:11278  v < 27 */\n      0xff\n      and\n      lt\n        /* \"BFPayout.sol\":11268:11287  if (v < 27) v += 27 */\n      iszero\n      tag_211\n      jumpi\n        /* \"BFPayout.sol\":11285:11287  27 */\n      0x1b\n        /* \"BFPayout.sol\":11280:11287  v += 27 */\n      dup2\n      tag_212\n      swap2\n      swap1\n      tag_213\n      jump\t// in\n    tag_212:\n      swap1\n      pop\n        /* \"BFPayout.sol\":11268:11287  if (v < 27) v += 27 */\n    tag_211:\n        /* \"BFPayout.sol\":11306:11308  27 */\n      0x1b\n        /* \"BFPayout.sol\":11301:11302  v */\n      dup2\n        /* \"BFPayout.sol\":11301:11308  v != 27 */\n      0xff\n      and\n      eq\n      iszero\n        /* \"BFPayout.sol\":11301:11319  v != 27 && v != 28 */\n      dup1\n      iszero\n      tag_214\n      jumpi\n      pop\n        /* \"BFPayout.sol\":11317:11319  28 */\n      0x1c\n        /* \"BFPayout.sol\":11312:11313  v */\n      dup2\n        /* \"BFPayout.sol\":11312:11319  v != 28 */\n      0xff\n      and\n      eq\n      iszero\n        /* \"BFPayout.sol\":11301:11319  v != 27 && v != 28 */\n    tag_214:\n        /* \"BFPayout.sol\":11297:11338  if (v != 27 && v != 28) return address(0) */\n      iszero\n      tag_215\n      jumpi\n        /* \"BFPayout.sol\":11336:11337  0 */\n      0x00\n        /* \"BFPayout.sol\":11321:11338  return address(0) */\n      swap4\n      pop\n      pop\n      pop\n      pop\n      jump(tag_209)\n        /* \"BFPayout.sol\":11297:11338  if (v != 27 && v != 28) return address(0) */\n    tag_215:\n        /* \"BFPayout.sol\":11355:11379  ecrecover(hash, v, r, s) */\n      0x01\n        /* \"BFPayout.sol\":11365:11369  hash */\n      dup8\n        /* \"BFPayout.sol\":11371:11372  v */\n      dup3\n        /* \"BFPayout.sol\":11374:11375  r */\n      dup6\n        /* \"BFPayout.sol\":11377:11378  s */\n      dup6\n        /* \"BFPayout.sol\":11355:11379  ecrecover(hash, v, r, s) */\n      mload(0x40)\n      0x00\n      dup2\n      mstore\n      0x20\n      add\n      0x40\n      mstore\n      mload(0x40)\n      tag_216\n      swap5\n      swap4\n      swap3\n      swap2\n      swap1\n      tag_217\n      jump\t// in\n    tag_216:\n      0x20\n      mload(0x40)\n      0x20\n      dup2\n      sub\n      swap1\n      dup1\n      dup5\n      sub\n      swap1\n      dup6\n      gas\n      staticcall\n      iszero\n      dup1\n      iszero\n      tag_219\n      jumpi\n      returndatacopy(0x00, 0x00, returndatasize)\n      revert(0x00, returndatasize)\n    tag_219:\n      pop\n      pop\n      pop\n      mload(sub(mload(0x40), 0x20))\n        /* \"BFPayout.sol\":11348:11379  return ecrecover(hash, v, r, s) */\n      swap4\n      pop\n      pop\n      pop\n      pop\n        /* \"BFPayout.sol\":10886:11386  function _recover(bytes32 hash, bytes calldata sig) internal pure returns (address) {... */\n    tag_209:\n      swap4\n      swap3\n      pop\n      pop\n      pop\n      jump\t// out\n        /* \"#utility.yul\":7:133   */\n    tag_220:\n        /* \"#utility.yul\":44:51   */\n      0x00\n        /* \"#utility.yul\":84:126   */\n      0xffffffffffffffffffffffffffffffffffffffff\n        /* \"#utility.yul\":77:82   */\n      dup3\n        /* \"#utility.yul\":73:127   */\n      and\n        /* \"#utility.yul\":62:127   */\n      swap1\n      pop\n        /* \"#utility.yul\":7:133   */\n      swap2\n      swap1\n      pop\n      jump\t// out\n        /* \"#utility.yul\":139:235   */\n    tag_221:\n        /* \"#utility.yul\":176:183   */\n      0x00\n        /* \"#utility.yul\":205:229   */\n      tag_274\n        /* \"#utility.yul\":223:228   */\n      dup3\n        /* \"#utility.yul\":205:229   */\n      tag_220\n      jump\t// in\n    tag_274:\n        /* \"#utility.yul\":194:229   */\n      swap1\n      pop\n        /* \"#utility.yul\":139:235   */\n      swap2\n      swap1\n      pop\n      jump\t// out\n        /* \"#utility.yul\":241:359   */\n    tag_222:\n        /* \"#utility.yul\":328:352   */\n      tag_276\n        /* \"#utility.yul\":346:351   */\n      dup2\n        /* \"#utility.yul\":328:352   */\n      tag_221\n      jump\t// in\n    tag_276:\n        /* \"#utility.yul\":323:326   */\n      dup3\n        /* \"#utility.yul\":316:353   */\n      mstore\n        /* \"#utility.yul\":241:359   */\n      pop\n      pop\n      jump\t// out\n        /* \"#utility.yul\":365:587   */\n    tag_31:\n        /* \"#utility.yul\":458:462   */\n      0x00\n        /* \"#utility.yul\":496:498   */\n      0x20\n        /* \"#utility.yul\":485:494   */\n      dup3\n        /* \"#utility.yul\":481:499   */\n      add\n        /* \"#utility.yul\":473:499   */\n      swap1\n      pop\n        /* \"#utility.yul\":509:580   */\n      tag_278\n        /* \"#utility.yul\":577:578   */\n      0x00\n        /* \"#utility.yul\":566:575   */\n      dup4\n        /* \"#utility.yul\":562:579   */\n      add\n        /* \"#utility.yul\":553:559   */\n      dup5\n        /* \"#utility.yul\":509:580   */\n      tag_222\n      jump\t// in\n    tag_278:\n        /* \"#utility.yul\":365:587   */\n      swap3\n      swap2\n      pop\n      pop\n      jump\t// out\n        /* \"#utility.yul\":674:791   */\n    tag_224:\n        /* \"#utility.yul\":783:784   */\n      0x00\n        /* \"#utility.yul\":780:781   */\n      0x00\n        /* \"#utility.yul\":773:785   */\n      revert\n        /* \"#utility.yul\":797:914   */\n    tag_225:\n        /* \"#utility.yul\":906:907   */\n      0x00\n        /* \"#utility.yul\":903:904   */\n      0x00\n        /* \"#utility.yul\":896:908   */\n      revert\n        /* \"#utility.yul\":920:997   */\n    tag_226:\n        /* \"#utility.yul\":957:964   */\n      0x00\n        /* \"#utility.yul\":986:991   */\n      dup2\n        /* \"#utility.yul\":975:991   */\n      swap1\n      pop\n        /* \"#utility.yul\":920:997   */\n      swap2\n      swap1\n      pop\n      jump\t// out\n        /* \"#utility.yul\":1003:1125   */\n    tag_227:\n        /* \"#utility.yul\":1076:1100   */\n      tag_284\n        /* \"#utility.yul\":1094:1099   */\n      dup2\n        /* \"#utility.yul\":1076:1100   */\n      tag_226\n      jump\t// in\n    tag_284:\n        /* \"#utility.yul\":1069:1074   */\n      dup2\n        /* \"#utility.yul\":1066:1101   */\n      eq\n        /* \"#utility.yul\":1056:1119   */\n      tag_285\n      jumpi\n        /* \"#utility.yul\":1115:1116   */\n      0x00\n        /* \"#utility.yul\":1112:1113   */\n      0x00\n        /* \"#utility.yul\":1105:1117   */\n      revert\n        /* \"#utility.yul\":1056:1119   */\n    tag_285:\n        /* \"#utility.yul\":1003:1125   */\n      pop\n      jump\t// out\n        /* \"#utility.yul\":1131:1270   */\n    tag_228:\n        /* \"#utility.yul\":1177:1182   */\n      0x00\n        /* \"#utility.yul\":1215:1221   */\n      dup2\n        /* \"#utility.yul\":1202:1222   */\n      calldataload\n        /* \"#utility.yul\":1193:1222   */\n      swap1\n      pop\n        /* \"#utility.yul\":1231:1264   */\n      tag_287\n        /* \"#utility.yul\":1258:1263   */\n      dup2\n        /* \"#utility.yul\":1231:1264   */\n      tag_227\n      jump\t// in\n    tag_287:\n        /* \"#utility.yul\":1131:1270   */\n      swap3\n      swap2\n      pop\n      pop\n      jump\t// out\n        /* \"#utility.yul\":1276:1605   */\n    tag_34:\n        /* \"#utility.yul\":1335:1341   */\n      0x00\n        /* \"#utility.yul\":1384:1386   */\n      0x20\n        /* \"#utility.yul\":1372:1381   */\n      dup3\n        /* \"#utility.yul\":1363:1370   */\n      dup5\n        /* \"#utility.yul\":1359:1382   */\n      sub\n        /* \"#utility.yul\":1355:1387   */\n      slt\n        /* \"#utility.yul\":1352:1471   */\n      iszero\n      tag_289\n      jumpi\n        /* \"#utility.yul\":1390:1469   */\n      tag_290\n      tag_224\n      jump\t// in\n    tag_290:\n        /* \"#utility.yul\":1352:1471   */\n    tag_289:\n        /* \"#utility.yul\":1510:1511   */\n      0x00\n        /* \"#utility.yul\":1535:1588   */\n      tag_291\n        /* \"#utility.yul\":1580:1587   */\n      dup5\n        /* \"#utility.yul\":1571:1577   */\n      dup3\n        /* \"#utility.yul\":1560:1569   */\n      dup6\n        /* \"#utility.yul\":1556:1578   */\n      add\n        /* \"#utility.yul\":1535:1588   */\n      tag_228\n      jump\t// in\n    tag_291:\n        /* \"#utility.yul\":1525:1588   */\n      swap2\n      pop\n        /* \"#utility.yul\":1481:1598   */\n      pop\n        /* \"#utility.yul\":1276:1605   */\n      swap3\n      swap2\n      pop\n      pop\n      jump\t// out\n        /* \"#utility.yul\":1611:1729   */\n    tag_229:\n        /* \"#utility.yul\":1698:1722   */\n      tag_293\n        /* \"#utility.yul\":1716:1721   */\n      dup2\n        /* \"#utility.yul\":1698:1722   */\n      tag_226\n      jump\t// in\n    tag_293:\n        /* \"#utility.yul\":1693:1696   */\n      dup3\n        /* \"#utility.yul\":1686:1723   */\n      mstore\n        /* \"#utility.yul\":1611:1729   */\n      pop\n      pop\n      jump\t// out\n        /* \"#utility.yul\":1735:2177   */\n    tag_37:\n        /* \"#utility.yul\":1884:1888   */\n      0x00\n        /* \"#utility.yul\":1922:1924   */\n      0x60\n        /* \"#utility.yul\":1911:1920   */\n      dup3\n        /* \"#utility.yul\":1907:1925   */\n      add\n        /* \"#utility.yul\":1899:1925   */\n      swap1\n      pop\n        /* \"#utility.yul\":1935:2006   */\n      tag_295\n        /* \"#utility.yul\":2003:2004   */\n      0x00\n        /* \"#utility.yul\":1992:2001   */\n      dup4\n        /* \"#utility.yul\":1988:2005   */\n      add\n        /* \"#utility.yul\":1979:1985   */\n      dup7\n        /* \"#utility.yul\":1935:2006   */\n      tag_229\n      jump\t// in\n    tag_295:\n        /* \"#utility.yul\":2016:2088   */\n      tag_296\n        /* \"#utility.yul\":2084:2086   */\n      0x20\n        /* \"#utility.yul\":2073:2082   */\n      dup4\n        /* \"#utility.yul\":2069:2087   */\n      add\n        /* \"#utility.yul\":2060:2066   */\n      dup6\n        /* \"#utility.yul\":2016:2088   */\n      tag_229\n      jump\t// in\n    tag_296:\n        /* \"#utility.yul\":2098:2170   */\n      tag_297\n        /* \"#utility.yul\":2166:2168   */\n      0x40\n        /* \"#utility.yul\":2155:2164   */\n      dup4\n        /* \"#utility.yul\":2151:2169   */\n      add\n        /* \"#utility.yul\":2142:2148   */\n      dup5\n        /* \"#utility.yul\":2098:2170   */\n      tag_229\n      jump\t// in\n    tag_297:\n        /* \"#utility.yul\":1735:2177   */\n      swap5\n      swap4\n      pop\n      pop\n      pop\n      pop\n      jump\t// out\n        /* \"#utility.yul\":2183:2273   */\n    tag_230:\n        /* \"#utility.yul\":2217:2224   */\n      0x00\n        /* \"#utility.yul\":2260:2265   */\n      dup2\n        /* \"#utility.yul\":2253:2266   */\n      iszero\n        /* \"#utility.yul\":2246:2267   */\n      iszero\n        /* \"#utility.yul\":2235:2267   */\n      swap1\n      pop\n        /* \"#utility.yul\":2183:2273   */\n      swap2\n      swap1\n      pop\n      jump\t// out\n        /* \"#utility.yul\":2279:2395   */\n    tag_231:\n        /* \"#utility.yul\":2349:2370   */\n      tag_300\n        /* \"#utility.yul\":2364:2369   */\n      dup2\n        /* \"#utility.yul\":2349:2370   */\n      tag_230\n      jump\t// in\n    tag_300:\n        /* \"#utility.yul\":2342:2347   */\n      dup2\n        /* \"#utility.yul\":2339:2371   */\n      eq\n        /* \"#utility.yul\":2329:2389   */\n      tag_301\n      jumpi\n        /* \"#utility.yul\":2385:2386   */\n      0x00\n        /* \"#utility.yul\":2382:2383   */\n      0x00\n        /* \"#utility.yul\":2375:2387   */\n      revert\n        /* \"#utility.yul\":2329:2389   */\n    tag_301:\n        /* \"#utility.yul\":2279:2395   */\n      pop\n      jump\t// out\n        /* \"#utility.yul\":2401:2534   */\n    tag_232:\n        /* \"#utility.yul\":2444:2449   */\n      0x00\n        /* \"#utility.yul\":2482:2488   */\n      dup2\n        /* \"#utility.yul\":2469:2489   */\n      calldataload\n        /* \"#utility.yul\":2460:2489   */\n      swap1\n      pop\n        /* \"#utility.yul\":2498:2528   */\n      tag_303\n        /* \"#utility.yul\":2522:2527   */\n      dup2\n        /* \"#utility.yul\":2498:2528   */\n      tag_231\n      jump\t// in\n    tag_303:\n        /* \"#utility.yul\":2401:2534   */\n      swap3\n      swap2\n      pop\n      pop\n      jump\t// out\n        /* \"#utility.yul\":2540:2863   */\n    tag_40:\n        /* \"#utility.yul\":2596:2602   */\n      0x00\n        /* \"#utility.yul\":2645:2647   */\n      0x20\n        /* \"#utility.yul\":2633:2642   */\n      dup3\n        /* \"#utility.yul\":2624:2631   */\n      dup5\n        /* \"#utility.yul\":2620:2643   */\n      sub\n        /* \"#utility.yul\":2616:2648   */\n      slt\n        /* \"#utility.yul\":2613:2732   */\n      iszero\n      tag_305\n      jumpi\n        /* \"#utility.yul\":2651:2730   */\n      tag_306\n      tag_224\n      jump\t// in\n    tag_306:\n        /* \"#utility.yul\":2613:2732   */\n    tag_305:\n        /* \"#utility.yul\":2771:2772   */\n      0x00\n        /* \"#utility.yul\":2796:2846   */\n      tag_307\n        /* \"#utility.yul\":2838:2845   */\n      dup5\n        /* \"#utility.yul\":2829:2835   */\n      dup3\n        /* \"#utility.yul\":2818:2827   */\n      dup6\n        /* \"#utility.yul\":2814:2836   */\n      add\n        /* \"#utility.yul\":2796:2846   */\n      tag_232\n      jump\t// in\n    tag_307:\n        /* \"#utility.yul\":2786:2846   */\n      swap2\n      pop\n        /* \"#utility.yul\":2742:2856   */\n      pop\n        /* \"#utility.yul\":2540:2863   */\n      swap3\n      swap2\n      pop\n      pop\n      jump\t// out\n        /* \"#utility.yul\":2869:2991   */\n    tag_233:\n        /* \"#utility.yul\":2942:2966   */\n      tag_309\n        /* \"#utility.yul\":2960:2965   */\n      dup2\n        /* \"#utility.yul\":2942:2966   */\n      tag_221\n      jump\t// in\n    tag_309:\n        /* \"#utility.yul\":2935:2940   */\n      dup2\n        /* \"#utility.yul\":2932:2967   */\n      eq\n        /* \"#utility.yul\":2922:2985   */\n      tag_310\n      jumpi\n        /* \"#utility.yul\":2981:2982   */\n      0x00\n        /* \"#utility.yul\":2978:2979   */\n      0x00\n        /* \"#utility.yul\":2971:2983   */\n      revert\n        /* \"#utility.yul\":2922:2985   */\n    tag_310:\n        /* \"#utility.yul\":2869:2991   */\n      pop\n      jump\t// out\n        /* \"#utility.yul\":2997:3136   */\n    tag_234:\n        /* \"#utility.yul\":3043:3048   */\n      0x00\n        /* \"#utility.yul\":3081:3087   */\n      dup2\n        /* \"#utility.yul\":3068:3088   */\n      calldataload\n        /* \"#utility.yul\":3059:3088   */\n      swap1\n      pop\n        /* \"#utility.yul\":3097:3130   */\n      tag_312\n        /* \"#utility.yul\":3124:3129   */\n      dup2\n        /* \"#utility.yul\":3097:3130   */\n      tag_233\n      jump\t// in\n    tag_312:\n        /* \"#utility.yul\":2997:3136   */\n      swap3\n      swap2\n      pop\n      pop\n      jump\t// out\n        /* \"#utility.yul\":3142:3471   */\n    tag_44:\n        /* \"#utility.yul\":3201:3207   */\n      0x00\n        /* \"#utility.yul\":3250:3252   */\n      0x20\n        /* \"#utility.yul\":3238:3247   */\n      dup3\n        /* \"#utility.yul\":3229:3236   */\n      dup5\n        /* \"#utility.yul\":3225:3248   */\n      sub\n        /* \"#utility.yul\":3221:3253   */\n      slt\n        /* \"#utility.yul\":3218:3337   */\n      iszero\n      tag_314\n      jumpi\n        /* \"#utility.yul\":3256:3335   */\n      tag_315\n      tag_224\n      jump\t// in\n    tag_315:\n        /* \"#utility.yul\":3218:3337   */\n    tag_314:\n        /* \"#utility.yul\":3376:3377   */\n      0x00\n        /* \"#utility.yul\":3401:3454   */\n      tag_316\n        /* \"#utility.yul\":3446:3453   */\n      dup5\n        /* \"#utility.yul\":3437:3443   */\n      dup3\n        /* \"#utility.yul\":3426:3435   */\n      dup6\n        /* \"#utility.yul\":3422:3444   */\n      add\n        /* \"#utility.yul\":3401:3454   */\n      tag_234\n      jump\t// in\n    tag_316:\n        /* \"#utility.yul\":3391:3454   */\n      swap2\n      pop\n        /* \"#utility.yul\":3347:3464   */\n      pop\n        /* \"#utility.yul\":3142:3471   */\n      swap3\n      swap2\n      pop\n      pop\n      jump\t// out\n        /* \"#utility.yul\":3477:3699   */\n    tag_52:\n        /* \"#utility.yul\":3570:3574   */\n      0x00\n        /* \"#utility.yul\":3608:3610   */\n      0x20\n        /* \"#utility.yul\":3597:3606   */\n      dup3\n        /* \"#utility.yul\":3593:3611   */\n      add\n        /* \"#utility.yul\":3585:3611   */\n      swap1\n      pop\n        /* \"#utility.yul\":3621:3692   */\n      tag_318\n        /* \"#utility.yul\":3689:3690   */\n      0x00\n        /* \"#utility.yul\":3678:3687   */\n      dup4\n        /* \"#utility.yul\":3674:3691   */\n      add\n        /* \"#utility.yul\":3665:3671   */\n      dup5\n        /* \"#utility.yul\":3621:3692   */\n      tag_229\n      jump\t// in\n    tag_318:\n        /* \"#utility.yul\":3477:3699   */\n      swap3\n      swap2\n      pop\n      pop\n      jump\t// out\n        /* \"#utility.yul\":3705:3814   */\n    tag_235:\n        /* \"#utility.yul\":3786:3807   */\n      tag_320\n        /* \"#utility.yul\":3801:3806   */\n      dup2\n        /* \"#utility.yul\":3786:3807   */\n      tag_230\n      jump\t// in\n    tag_320:\n        /* \"#utility.yul\":3781:3784   */\n      dup3\n        /* \"#utility.yul\":3774:3808   */\n      mstore\n        /* \"#utility.yul\":3705:3814   */\n      pop\n      pop\n      jump\t// out\n        /* \"#utility.yul\":3820:4030   */\n    tag_62:\n        /* \"#utility.yul\":3907:3911   */\n      0x00\n        /* \"#utility.yul\":3945:3947   */\n      0x20\n        /* \"#utility.yul\":3934:3943   */\n      dup3\n        /* \"#utility.yul\":3930:3948   */\n      add\n        /* \"#utility.yul\":3922:3948   */\n      swap1\n      pop\n        /* \"#utility.yul\":3958:4023   */\n      tag_322\n        /* \"#utility.yul\":4020:4021   */\n      0x00\n        /* \"#utility.yul\":4009:4018   */\n      dup4\n        /* \"#utility.yul\":4005:4022   */\n      add\n        /* \"#utility.yul\":3996:4002   */\n      dup5\n        /* \"#utility.yul\":3958:4023   */\n      tag_235\n      jump\t// in\n    tag_322:\n        /* \"#utility.yul\":3820:4030   */\n      swap3\n      swap2\n      pop\n      pop\n      jump\t// out\n        /* \"#utility.yul\":4036:4113   */\n    tag_236:\n        /* \"#utility.yul\":4073:4080   */\n      0x00\n        /* \"#utility.yul\":4102:4107   */\n      dup2\n        /* \"#utility.yul\":4091:4107   */\n      swap1\n      pop\n        /* \"#utility.yul\":4036:4113   */\n      swap2\n      swap1\n      pop\n      jump\t// out\n        /* \"#utility.yul\":4119:4241   */\n    tag_237:\n        /* \"#utility.yul\":4192:4216   */\n      tag_325\n        /* \"#utility.yul\":4210:4215   */\n      dup2\n        /* \"#utility.yul\":4192:4216   */\n      tag_236\n      jump\t// in\n    tag_325:\n        /* \"#utility.yul\":4185:4190   */\n      dup2\n        /* \"#utility.yul\":4182:4217   */\n      eq\n        /* \"#utility.yul\":4172:4235   */\n      tag_326\n      jumpi\n        /* \"#utility.yul\":4231:4232   */\n      0x00\n        /* \"#utility.yul\":4228:4229   */\n      0x00\n        /* \"#utility.yul\":4221:4233   */\n      revert\n        /* \"#utility.yul\":4172:4235   */\n    tag_326:\n        /* \"#utility.yul\":4119:4241   */\n      pop\n      jump\t// out\n        /* \"#utility.yul\":4247:4386   */\n    tag_238:\n        /* \"#utility.yul\":4293:4298   */\n      0x00\n        /* \"#utility.yul\":4331:4337   */\n      dup2\n        /* \"#utility.yul\":4318:4338   */\n      calldataload\n        /* \"#utility.yul\":4309:4338   */\n      swap1\n      pop\n        /* \"#utility.yul\":4347:4380   */\n      tag_328\n        /* \"#utility.yul\":4374:4379   */\n      dup2\n        /* \"#utility.yul\":4347:4380   */\n      tag_237\n      jump\t// in\n    tag_328:\n        /* \"#utility.yul\":4247:4386   */\n      swap3\n      swap2\n      pop\n      pop\n      jump\t// out\n        /* \"#utility.yul\":4392:4509   */\n    tag_239:\n        /* \"#utility.yul\":4501:4502   */\n      0x00\n        /* \"#utility.yul\":4498:4499   */\n      0x00\n        /* \"#utility.yul\":4491:4503   */\n      revert\n        /* \"#utility.yul\":4515:4632   */\n    tag_240:\n        /* \"#utility.yul\":4624:4625   */\n      0x00\n        /* \"#utility.yul\":4621:4622   */\n      0x00\n        /* \"#utility.yul\":4614:4626   */\n      revert\n        /* \"#utility.yul\":4638:4755   */\n    tag_241:\n        /* \"#utility.yul\":4747:4748   */\n      0x00\n        /* \"#utility.yul\":4744:4745   */\n      0x00\n        /* \"#utility.yul\":4737:4749   */\n      revert\n        /* \"#utility.yul\":4774:5326   */\n    tag_242:\n        /* \"#utility.yul\":4831:4839   */\n      0x00\n        /* \"#utility.yul\":4841:4847   */\n      0x00\n        /* \"#utility.yul\":4891:4894   */\n      dup4\n        /* \"#utility.yul\":4884:4888   */\n      0x1f\n        /* \"#utility.yul\":4876:4882   */\n      dup5\n        /* \"#utility.yul\":4872:4889   */\n      add\n        /* \"#utility.yul\":4868:4895   */\n      slt\n        /* \"#utility.yul\":4858:4980   */\n      tag_333\n      jumpi\n        /* \"#utility.yul\":4899:4978   */\n      tag_334\n      tag_239\n      jump\t// in\n    tag_334:\n        /* \"#utility.yul\":4858:4980   */\n    tag_333:\n        /* \"#utility.yul\":5012:5018   */\n      dup3\n        /* \"#utility.yul\":4999:5019   */\n      calldataload\n        /* \"#utility.yul\":4989:5019   */\n      swap1\n      pop\n        /* \"#utility.yul\":5042:5060   */\n      0xffffffffffffffff\n        /* \"#utility.yul\":5034:5040   */\n      dup2\n        /* \"#utility.yul\":5031:5061   */\n      gt\n        /* \"#utility.yul\":5028:5145   */\n      iszero\n      tag_335\n      jumpi\n        /* \"#utility.yul\":5064:5143   */\n      tag_336\n      tag_240\n      jump\t// in\n    tag_336:\n        /* \"#utility.yul\":5028:5145   */\n    tag_335:\n        /* \"#utility.yul\":5178:5182   */\n      0x20\n        /* \"#utility.yul\":5170:5176   */\n      dup4\n        /* \"#utility.yul\":5166:5183   */\n      add\n        /* \"#utility.yul\":5154:5183   */\n      swap2\n      pop\n        /* \"#utility.yul\":5232:5235   */\n      dup4\n        /* \"#utility.yul\":5224:5228   */\n      0x01\n        /* \"#utility.yul\":5216:5222   */\n      dup3\n        /* \"#utility.yul\":5212:5229   */\n      mul\n        /* \"#utility.yul\":5202:5210   */\n      dup4\n        /* \"#utility.yul\":5198:5230   */\n      add\n        /* \"#utility.yul\":5195:5236   */\n      gt\n        /* \"#utility.yul\":5192:5320   */\n      iszero\n      tag_337\n      jumpi\n        /* \"#utility.yul\":5239:5318   */\n      tag_338\n      tag_241\n      jump\t// in\n    tag_338:\n        /* \"#utility.yul\":5192:5320   */\n    tag_337:\n        /* \"#utility.yul\":4774:5326   */\n      swap3\n      pop\n      swap3\n      swap1\n      pop\n      jump\t// out\n        /* \"#utility.yul\":5332:6441   */\n    tag_65:\n        /* \"#utility.yul\":5438:5444   */\n      0x00\n        /* \"#utility.yul\":5446:5452   */\n      0x00\n        /* \"#utility.yul\":5454:5460   */\n      0x00\n        /* \"#utility.yul\":5462:5468   */\n      0x00\n        /* \"#utility.yul\":5470:5476   */\n      0x00\n        /* \"#utility.yul\":5478:5484   */\n      0x00\n        /* \"#utility.yul\":5527:5530   */\n      0xa0\n        /* \"#utility.yul\":5515:5524   */\n      dup8\n        /* \"#utility.yul\":5506:5513   */\n      dup10\n        /* \"#utility.yul\":5502:5525   */\n      sub\n        /* \"#utility.yul\":5498:5531   */\n      slt\n        /* \"#utility.yul\":5495:5615   */\n      iszero\n      tag_340\n      jumpi\n        /* \"#utility.yul\":5534:5613   */\n      tag_341\n      tag_224\n      jump\t// in\n    tag_341:\n        /* \"#utility.yul\":5495:5615   */\n    tag_340:\n        /* \"#utility.yul\":5654:5655   */\n      0x00\n        /* \"#utility.yul\":5679:5732   */\n      tag_342\n        /* \"#utility.yul\":5724:5731   */\n      dup10\n        /* \"#utility.yul\":5715:5721   */\n      dup3\n        /* \"#utility.yul\":5704:5713   */\n      dup11\n        /* \"#utility.yul\":5700:5722   */\n      add\n        /* \"#utility.yul\":5679:5732   */\n      tag_234\n      jump\t// in\n    tag_342:\n        /* \"#utility.yul\":5669:5732   */\n      swap7\n      pop\n        /* \"#utility.yul\":5625:5742   */\n      pop\n        /* \"#utility.yul\":5781:5783   */\n      0x20\n        /* \"#utility.yul\":5807:5860   */\n      tag_343\n        /* \"#utility.yul\":5852:5859   */\n      dup10\n        /* \"#utility.yul\":5843:5849   */\n      dup3\n        /* \"#utility.yul\":5832:5841   */\n      dup11\n        /* \"#utility.yul\":5828:5850   */\n      add\n        /* \"#utility.yul\":5807:5860   */\n      tag_228\n      jump\t// in\n    tag_343:\n        /* \"#utility.yul\":5797:5860   */\n      swap6\n      pop\n        /* \"#utility.yul\":5752:5870   */\n      pop\n        /* \"#utility.yul\":5909:5911   */\n      0x40\n        /* \"#utility.yul\":5935:5988   */\n      tag_344\n        /* \"#utility.yul\":5980:5987   */\n      dup10\n        /* \"#utility.yul\":5971:5977   */\n      dup3\n        /* \"#utility.yul\":5960:5969   */\n      dup11\n        /* \"#utility.yul\":5956:5978   */\n      add\n        /* \"#utility.yul\":5935:5988   */\n      tag_238\n      jump\t// in\n    tag_344:\n        /* \"#utility.yul\":5925:5988   */\n      swap5\n      pop\n        /* \"#utility.yul\":5880:5998   */\n      pop\n        /* \"#utility.yul\":6037:6039   */\n      0x60\n        /* \"#utility.yul\":6063:6116   */\n      tag_345\n        /* \"#utility.yul\":6108:6115   */\n      dup10\n        /* \"#utility.yul\":6099:6105   */\n      dup3\n        /* \"#utility.yul\":6088:6097   */\n      dup11\n        /* \"#utility.yul\":6084:6106   */\n      add\n        /* \"#utility.yul\":6063:6116   */\n      tag_228\n      jump\t// in\n    tag_345:\n        /* \"#utility.yul\":6053:6116   */\n      swap4\n      pop\n        /* \"#utility.yul\":6008:6126   */\n      pop\n        /* \"#utility.yul\":6193:6196   */\n      0x80\n        /* \"#utility.yul\":6182:6191   */\n      dup8\n        /* \"#utility.yul\":6178:6197   */\n      add\n        /* \"#utility.yul\":6165:6198   */\n      calldataload\n        /* \"#utility.yul\":6225:6243   */\n      0xffffffffffffffff\n        /* \"#utility.yul\":6217:6223   */\n      dup2\n        /* \"#utility.yul\":6214:6244   */\n      gt\n        /* \"#utility.yul\":6211:6328   */\n      iszero\n      tag_346\n      jumpi\n        /* \"#utility.yul\":6247:6326   */\n      tag_347\n      tag_225\n      jump\t// in\n    tag_347:\n        /* \"#utility.yul\":6211:6328   */\n    tag_346:\n        /* \"#utility.yul\":6360:6424   */\n      tag_348\n        /* \"#utility.yul\":6416:6423   */\n      dup10\n        /* \"#utility.yul\":6407:6413   */\n      dup3\n        /* \"#utility.yul\":6396:6405   */\n      dup11\n        /* \"#utility.yul\":6392:6414   */\n      add\n        /* \"#utility.yul\":6360:6424   */\n      tag_242\n      jump\t// in\n    tag_348:\n        /* \"#utility.yul\":6342:6424   */\n      swap3\n      pop\n      swap3\n      pop\n        /* \"#utility.yul\":6136:6434   */\n      pop\n        /* \"#utility.yul\":5332:6441   */\n      swap3\n      swap6\n      pop\n      swap3\n      swap6\n      pop\n      swap3\n      swap6\n      jump\t// out\n        /* \"#utility.yul\":6447:6546   */\n    tag_243:\n        /* \"#utility.yul\":6499:6505   */\n      0x00\n        /* \"#utility.yul\":6533:6538   */\n      dup2\n        /* \"#utility.yul\":6527:6539   */\n      mload\n        /* \"#utility.yul\":6517:6539   */\n      swap1\n      pop\n        /* \"#utility.yul\":6447:6546   */\n      swap2\n      swap1\n      pop\n      jump\t// out\n        /* \"#utility.yul\":6552:6721   */\n    tag_244:\n        /* \"#utility.yul\":6636:6647   */\n      0x00\n        /* \"#utility.yul\":6670:6676   */\n      dup3\n        /* \"#utility.yul\":6665:6668   */\n      dup3\n        /* \"#utility.yul\":6658:6677   */\n      mstore\n        /* \"#utility.yul\":6710:6714   */\n      0x20\n        /* \"#utility.yul\":6705:6708   */\n      dup3\n        /* \"#utility.yul\":6701:6715   */\n      add\n        /* \"#utility.yul\":6686:6715   */\n      swap1\n      pop\n        /* \"#utility.yul\":6552:6721   */\n      swap3\n      swap2\n      pop\n      pop\n      jump\t// out\n        /* \"#utility.yul\":6727:6866   */\n    tag_245:\n        /* \"#utility.yul\":6816:6822   */\n      dup3\n        /* \"#utility.yul\":6811:6814   */\n      dup2\n        /* \"#utility.yul\":6806:6809   */\n      dup4\n        /* \"#utility.yul\":6800:6823   */\n      mcopy\n        /* \"#utility.yul\":6857:6858   */\n      0x00\n        /* \"#utility.yul\":6848:6854   */\n      dup4\n        /* \"#utility.yul\":6843:6846   */\n      dup4\n        /* \"#utility.yul\":6839:6855   */\n      add\n        /* \"#utility.yul\":6832:6859   */\n      mstore\n        /* \"#utility.yul\":6727:6866   */\n      pop\n      pop\n      pop\n      jump\t// out\n        /* \"#utility.yul\":6872:6974   */\n    tag_246:\n        /* \"#utility.yul\":6913:6919   */\n      0x00\n        /* \"#utility.yul\":6964:6966   */\n      0x1f\n        /* \"#utility.yul\":6960:6967   */\n      not\n        /* \"#utility.yul\":6955:6957   */\n      0x1f\n        /* \"#utility.yul\":6948:6953   */\n      dup4\n        /* \"#utility.yul\":6944:6958   */\n      add\n        /* \"#utility.yul\":6940:6968   */\n      and\n        /* \"#utility.yul\":6930:6968   */\n      swap1\n      pop\n        /* \"#utility.yul\":6872:6974   */\n      swap2\n      swap1\n      pop\n      jump\t// out\n        /* \"#utility.yul\":6980:7357   */\n    tag_247:\n        /* \"#utility.yul\":7068:7071   */\n      0x00\n        /* \"#utility.yul\":7096:7135   */\n      tag_354\n        /* \"#utility.yul\":7129:7134   */\n      dup3\n        /* \"#utility.yul\":7096:7135   */\n      tag_243\n      jump\t// in\n    tag_354:\n        /* \"#utility.yul\":7151:7222   */\n      tag_355\n        /* \"#utility.yul\":7215:7221   */\n      dup2\n        /* \"#utility.yul\":7210:7213   */\n      dup6\n        /* \"#utility.yul\":7151:7222   */\n      tag_244\n      jump\t// in\n    tag_355:\n        /* \"#utility.yul\":7144:7222   */\n      swap4\n      pop\n        /* \"#utility.yul\":7231:7296   */\n      tag_356\n        /* \"#utility.yul\":7289:7295   */\n      dup2\n        /* \"#utility.yul\":7284:7287   */\n      dup6\n        /* \"#utility.yul\":7277:7281   */\n      0x20\n        /* \"#utility.yul\":7270:7275   */\n      dup7\n        /* \"#utility.yul\":7266:7282   */\n      add\n        /* \"#utility.yul\":7231:7296   */\n      tag_245\n      jump\t// in\n    tag_356:\n        /* \"#utility.yul\":7321:7350   */\n      tag_357\n        /* \"#utility.yul\":7343:7349   */\n      dup2\n        /* \"#utility.yul\":7321:7350   */\n      tag_246\n      jump\t// in\n    tag_357:\n        /* \"#utility.yul\":7316:7319   */\n      dup5\n        /* \"#utility.yul\":7312:7351   */\n      add\n        /* \"#utility.yul\":7305:7351   */\n      swap2\n      pop\n        /* \"#utility.yul\":7072:7357   */\n      pop\n        /* \"#utility.yul\":6980:7357   */\n      swap3\n      swap2\n      pop\n      pop\n      jump\t// out\n        /* \"#utility.yul\":7363:7774   */\n    tag_68:\n        /* \"#utility.yul\":7498:7502   */\n      0x00\n        /* \"#utility.yul\":7536:7538   */\n      0x40\n        /* \"#utility.yul\":7525:7534   */\n      dup3\n        /* \"#utility.yul\":7521:7539   */\n      add\n        /* \"#utility.yul\":7513:7539   */\n      swap1\n      pop\n        /* \"#utility.yul\":7549:7614   */\n      tag_359\n        /* \"#utility.yul\":7611:7612   */\n      0x00\n        /* \"#utility.yul\":7600:7609   */\n      dup4\n        /* \"#utility.yul\":7596:7613   */\n      add\n        /* \"#utility.yul\":7587:7593   */\n      dup6\n        /* \"#utility.yul\":7549:7614   */\n      tag_235\n      jump\t// in\n    tag_359:\n        /* \"#utility.yul\":7661:7670   */\n      dup2\n        /* \"#utility.yul\":7655:7659   */\n      dup2\n        /* \"#utility.yul\":7651:7671   */\n      sub\n        /* \"#utility.yul\":7646:7648   */\n      0x20\n        /* \"#utility.yul\":7635:7644   */\n      dup4\n        /* \"#utility.yul\":7631:7649   */\n      add\n        /* \"#utility.yul\":7624:7672   */\n      mstore\n        /* \"#utility.yul\":7689:7767   */\n      tag_360\n        /* \"#utility.yul\":7762:7766   */\n      dup2\n        /* \"#utility.yul\":7753:7759   */\n      dup5\n        /* \"#utility.yul\":7689:7767   */\n      tag_247\n      jump\t// in\n    tag_360:\n        /* \"#utility.yul\":7681:7767   */\n      swap1\n      pop\n        /* \"#utility.yul\":7363:7774   */\n      swap4\n      swap3\n      pop\n      pop\n      pop\n      jump\t// out\n        /* \"#utility.yul\":7780:8254   */\n    tag_83:\n        /* \"#utility.yul\":7848:7854   */\n      0x00\n        /* \"#utility.yul\":7856:7862   */\n      0x00\n        /* \"#utility.yul\":7905:7907   */\n      0x40\n        /* \"#utility.yul\":7893:7902   */\n      dup4\n        /* \"#utility.yul\":7884:7891   */\n      dup6\n        /* \"#utility.yul\":7880:7903   */\n      sub\n        /* \"#utility.yul\":7876:7908   */\n      slt\n        /* \"#utility.yul\":7873:7992   */\n      iszero\n      tag_362\n      jumpi\n        /* \"#utility.yul\":7911:7990   */\n      tag_363\n      tag_224\n      jump\t// in\n    tag_363:\n        /* \"#utility.yul\":7873:7992   */\n    tag_362:\n        /* \"#utility.yul\":8031:8032   */\n      0x00\n        /* \"#utility.yul\":8056:8109   */\n      tag_364\n        /* \"#utility.yul\":8101:8108   */\n      dup6\n        /* \"#utility.yul\":8092:8098   */\n      dup3\n        /* \"#utility.yul\":8081:8090   */\n      dup7\n        /* \"#utility.yul\":8077:8099   */\n      add\n        /* \"#utility.yul\":8056:8109   */\n      tag_234\n      jump\t// in\n    tag_364:\n        /* \"#utility.yul\":8046:8109   */\n      swap3\n      pop\n        /* \"#utility.yul\":8002:8119   */\n      pop\n        /* \"#utility.yul\":8158:8160   */\n      0x20\n        /* \"#utility.yul\":8184:8237   */\n      tag_365\n        /* \"#utility.yul\":8229:8236   */\n      dup6\n        /* \"#utility.yul\":8220:8226   */\n      dup3\n        /* \"#utility.yul\":8209:8218   */\n      dup7\n        /* \"#utility.yul\":8205:8227   */\n      add\n        /* \"#utility.yul\":8184:8237   */\n      tag_228\n      jump\t// in\n    tag_365:\n        /* \"#utility.yul\":8174:8237   */\n      swap2\n      pop\n        /* \"#utility.yul\":8129:8247   */\n      pop\n        /* \"#utility.yul\":7780:8254   */\n      swap3\n      pop\n      swap3\n      swap1\n      pop\n      jump\t// out\n        /* \"#utility.yul\":8260:8320   */\n    tag_248:\n        /* \"#utility.yul\":8288:8291   */\n      0x00\n        /* \"#utility.yul\":8309:8314   */\n      dup2\n        /* \"#utility.yul\":8302:8314   */\n      swap1\n      pop\n        /* \"#utility.yul\":8260:8320   */\n      swap2\n      swap1\n      pop\n      jump\t// out\n        /* \"#utility.yul\":8326:8468   */\n    tag_249:\n        /* \"#utility.yul\":8376:8385   */\n      0x00\n        /* \"#utility.yul\":8409:8462   */\n      tag_368\n        /* \"#utility.yul\":8427:8461   */\n      tag_369\n        /* \"#utility.yul\":8436:8460   */\n      tag_370\n        /* \"#utility.yul\":8454:8459   */\n      dup5\n        /* \"#utility.yul\":8436:8460   */\n      tag_220\n      jump\t// in\n    tag_370:\n        /* \"#utility.yul\":8427:8461   */\n      tag_248\n      jump\t// in\n    tag_369:\n        /* \"#utility.yul\":8409:8462   */\n      tag_220\n      jump\t// in\n    tag_368:\n        /* \"#utility.yul\":8396:8462   */\n      swap1\n      pop\n        /* \"#utility.yul\":8326:8468   */\n      swap2\n      swap1\n      pop\n      jump\t// out\n        /* \"#utility.yul\":8474:8600   */\n    tag_250:\n        /* \"#utility.yul\":8524:8533   */\n      0x00\n        /* \"#utility.yul\":8557:8594   */\n      tag_372\n        /* \"#utility.yul\":8588:8593   */\n      dup3\n        /* \"#utility.yul\":8557:8594   */\n      tag_249\n      jump\t// in\n    tag_372:\n        /* \"#utility.yul\":8544:8594   */\n      swap1\n      pop\n        /* \"#utility.yul\":8474:8600   */\n      swap2\n      swap1\n      pop\n      jump\t// out\n        /* \"#utility.yul\":8606:8745   */\n    tag_251:\n        /* \"#utility.yul\":8669:8678   */\n      0x00\n        /* \"#utility.yul\":8702:8739   */\n      tag_374\n        /* \"#utility.yul\":8733:8738   */\n      dup3\n        /* \"#utility.yul\":8702:8739   */\n      tag_250\n      jump\t// in\n    tag_374:\n        /* \"#utility.yul\":8689:8739   */\n      swap1\n      pop\n        /* \"#utility.yul\":8606:8745   */\n      swap2\n      swap1\n      pop\n      jump\t// out\n        /* \"#utility.yul\":8751:8908   */\n    tag_252:\n        /* \"#utility.yul\":8851:8901   */\n      tag_376\n        /* \"#utility.yul\":8895:8900   */\n      dup2\n        /* \"#utility.yul\":8851:8901   */\n      tag_251\n      jump\t// in\n    tag_376:\n        /* \"#utility.yul\":8846:8849   */\n      dup3\n        /* \"#utility.yul\":8839:8902   */\n      mstore\n        /* \"#utility.yul\":8751:8908   */\n      pop\n      pop\n      jump\t// out\n        /* \"#utility.yul\":8914:9162   */\n    tag_97:\n        /* \"#utility.yul\":9020:9024   */\n      0x00\n        /* \"#utility.yul\":9058:9060   */\n      0x20\n        /* \"#utility.yul\":9047:9056   */\n      dup3\n        /* \"#utility.yul\":9043:9061   */\n      add\n        /* \"#utility.yul\":9035:9061   */\n      swap1\n      pop\n        /* \"#utility.yul\":9071:9155   */\n      tag_378\n        /* \"#utility.yul\":9152:9153   */\n      0x00\n        /* \"#utility.yul\":9141:9150   */\n      dup4\n        /* \"#utility.yul\":9137:9154   */\n      add\n        /* \"#utility.yul\":9128:9134   */\n      dup5\n        /* \"#utility.yul\":9071:9155   */\n      tag_252\n      jump\t// in\n    tag_378:\n        /* \"#utility.yul\":8914:9162   */\n      swap3\n      swap2\n      pop\n      pop\n      jump\t// out\n        /* \"#utility.yul\":9168:9497   */\n    tag_106:\n        /* \"#utility.yul\":9227:9233   */\n      0x00\n        /* \"#utility.yul\":9276:9278   */\n      0x20\n        /* \"#utility.yul\":9264:9273   */\n      dup3\n        /* \"#utility.yul\":9255:9262   */\n      dup5\n        /* \"#utility.yul\":9251:9274   */\n      sub\n        /* \"#utility.yul\":9247:9279   */\n      slt\n        /* \"#utility.yul\":9244:9363   */\n      iszero\n      tag_380\n      jumpi\n        /* \"#utility.yul\":9282:9361   */\n      tag_381\n      tag_224\n      jump\t// in\n    tag_381:\n        /* \"#utility.yul\":9244:9363   */\n    tag_380:\n        /* \"#utility.yul\":9402:9403   */\n      0x00\n        /* \"#utility.yul\":9427:9480   */\n      tag_382\n        /* \"#utility.yul\":9472:9479   */\n      dup5\n        /* \"#utility.yul\":9463:9469   */\n      dup3\n        /* \"#utility.yul\":9452:9461   */\n      dup6\n        /* \"#utility.yul\":9448:9470   */\n      add\n        /* \"#utility.yul\":9427:9480   */\n      tag_238\n      jump\t// in\n    tag_382:\n        /* \"#utility.yul\":9417:9480   */\n      swap2\n      pop\n        /* \"#utility.yul\":9373:9490   */\n      pop\n        /* \"#utility.yul\":9168:9497   */\n      swap3\n      swap2\n      pop\n      pop\n      jump\t// out\n        /* \"#utility.yul\":9503:9683   */\n    tag_253:\n        /* \"#utility.yul\":9551:9628   */\n      0x4e487b7100000000000000000000000000000000000000000000000000000000\n        /* \"#utility.yul\":9548:9549   */\n      0x00\n        /* \"#utility.yul\":9541:9629   */\n      mstore\n        /* \"#utility.yul\":9648:9652   */\n      0x11\n        /* \"#utility.yul\":9645:9646   */\n      0x04\n        /* \"#utility.yul\":9638:9653   */\n      mstore\n        /* \"#utility.yul\":9672:9676   */\n      0x24\n        /* \"#utility.yul\":9669:9670   */\n      0x00\n        /* \"#utility.yul\":9662:9677   */\n      revert\n        /* \"#utility.yul\":9689:10099   */\n    tag_111:\n        /* \"#utility.yul\":9729:9736   */\n      0x00\n        /* \"#utility.yul\":9752:9772   */\n      tag_385\n        /* \"#utility.yul\":9770:9771   */\n      dup3\n        /* \"#utility.yul\":9752:9772   */\n      tag_226\n      jump\t// in\n    tag_385:\n        /* \"#utility.yul\":9747:9772   */\n      swap2\n      pop\n        /* \"#utility.yul\":9786:9806   */\n      tag_386\n        /* \"#utility.yul\":9804:9805   */\n      dup4\n        /* \"#utility.yul\":9786:9806   */\n      tag_226\n      jump\t// in\n    tag_386:\n        /* \"#utility.yul\":9781:9806   */\n      swap3\n      pop\n        /* \"#utility.yul\":9841:9842   */\n      dup3\n        /* \"#utility.yul\":9838:9839   */\n      dup3\n        /* \"#utility.yul\":9834:9843   */\n      mul\n        /* \"#utility.yul\":9863:9893   */\n      tag_387\n        /* \"#utility.yul\":9881:9892   */\n      dup2\n        /* \"#utility.yul\":9863:9893   */\n      tag_226\n      jump\t// in\n    tag_387:\n        /* \"#utility.yul\":9852:9893   */\n      swap2\n      pop\n        /* \"#utility.yul\":10042:10043   */\n      dup3\n        /* \"#utility.yul\":10033:10040   */\n      dup3\n        /* \"#utility.yul\":10029:10044   */\n      div\n        /* \"#utility.yul\":10026:10027   */\n      dup5\n        /* \"#utility.yul\":10023:10045   */\n      eq\n        /* \"#utility.yul\":10003:10004   */\n      dup4\n        /* \"#utility.yul\":9996:10005   */\n      iszero\n        /* \"#utility.yul\":9976:10059   */\n      or\n        /* \"#utility.yul\":9953:10092   */\n      tag_388\n      jumpi\n        /* \"#utility.yul\":10072:10090   */\n      tag_389\n      tag_253\n      jump\t// in\n    tag_389:\n        /* \"#utility.yul\":9953:10092   */\n    tag_388:\n        /* \"#utility.yul\":9737:10099   */\n      pop\n        /* \"#utility.yul\":9689:10099   */\n      swap3\n      swap2\n      pop\n      pop\n      jump\t// out\n        /* \"#utility.yul\":10105:10285   */\n    tag_254:\n        /* \"#utility.yul\":10153:10230   */\n      0x4e487b7100000000000000000000000000000000000000000000000000000000\n        /* \"#utility.yul\":10150:10151   */\n      0x00\n        /* \"#utility.yul\":10143:10231   */\n      mstore\n        /* \"#utility.yul\":10250:10254   */\n      0x12\n        /* \"#utility.yul\":10247:10248   */\n      0x04\n        /* \"#utility.yul\":10240:10255   */\n      mstore\n        /* \"#utility.yul\":10274:10278   */\n      0x24\n        /* \"#utility.yul\":10271:10272   */\n      0x00\n        /* \"#utility.yul\":10264:10279   */\n      revert\n        /* \"#utility.yul\":10291:10476   */\n    tag_113:\n        /* \"#utility.yul\":10331:10332   */\n      0x00\n        /* \"#utility.yul\":10348:10368   */\n      tag_392\n        /* \"#utility.yul\":10366:10367   */\n      dup3\n        /* \"#utility.yul\":10348:10368   */\n      tag_226\n      jump\t// in\n    tag_392:\n        /* \"#utility.yul\":10343:10368   */\n      swap2\n      pop\n        /* \"#utility.yul\":10382:10402   */\n      tag_393\n        /* \"#utility.yul\":10400:10401   */\n      dup4\n        /* \"#utility.yul\":10382:10402   */\n      tag_226\n      jump\t// in\n    tag_393:\n        /* \"#utility.yul\":10377:10402   */\n      swap3\n      pop\n        /* \"#utility.yul\":10421:10422   */\n      dup3\n        /* \"#utility.yul\":10411:10446   */\n      tag_394\n      jumpi\n        /* \"#utility.yul\":10426:10444   */\n      tag_395\n      tag_254\n      jump\t// in\n    tag_395:\n        /* \"#utility.yul\":10411:10446   */\n    tag_394:\n        /* \"#utility.yul\":10468:10469   */\n      dup3\n        /* \"#utility.yul\":10465:10466   */\n      dup3\n        /* \"#utility.yul\":10461:10470   */\n      div\n        /* \"#utility.yul\":10456:10470   */\n      swap1\n      pop\n        /* \"#utility.yul\":10291:10476   */\n      swap3\n      swap2\n      pop\n      pop\n      jump\t// out\n        /* \"#utility.yul\":10482:10676   */\n    tag_117:\n        /* \"#utility.yul\":10522:10526   */\n      0x00\n        /* \"#utility.yul\":10542:10562   */\n      tag_397\n        /* \"#utility.yul\":10560:10561   */\n      dup3\n        /* \"#utility.yul\":10542:10562   */\n      tag_226\n      jump\t// in\n    tag_397:\n        /* \"#utility.yul\":10537:10562   */\n      swap2\n      pop\n        /* \"#utility.yul\":10576:10596   */\n      tag_398\n        /* \"#utility.yul\":10594:10595   */\n      dup4\n        /* \"#utility.yul\":10576:10596   */\n      tag_226\n      jump\t// in\n    tag_398:\n        /* \"#utility.yul\":10571:10596   */\n      swap3\n      pop\n        /* \"#utility.yul\":10620:10621   */\n      dup3\n        /* \"#utility.yul\":10617:10618   */\n      dup3\n        /* \"#utility.yul\":10613:10622   */\n      sub\n        /* \"#utility.yul\":10605:10622   */\n      swap1\n      pop\n        /* \"#utility.yul\":10644:10645   */\n      dup2\n        /* \"#utility.yul\":10638:10642   */\n      dup2\n        /* \"#utility.yul\":10635:10646   */\n      gt\n        /* \"#utility.yul\":10632:10669   */\n      iszero\n      tag_399\n      jumpi\n        /* \"#utility.yul\":10649:10667   */\n      tag_400\n      tag_253\n      jump\t// in\n    tag_400:\n        /* \"#utility.yul\":10632:10669   */\n    tag_399:\n        /* \"#utility.yul\":10482:10676   */\n      swap3\n      swap2\n      pop\n      pop\n      jump\t// out\n        /* \"#utility.yul\":10682:10825   */\n    tag_255:\n        /* \"#utility.yul\":10739:10744   */\n      0x00\n        /* \"#utility.yul\":10770:10776   */\n      dup2\n        /* \"#utility.yul\":10764:10777   */\n      mload\n        /* \"#utility.yul\":10755:10777   */\n      swap1\n      pop\n        /* \"#utility.yul\":10786:10819   */\n      tag_402\n        /* \"#utility.yul\":10813:10818   */\n      dup2\n        /* \"#utility.yul\":10786:10819   */\n      tag_227\n      jump\t// in\n    tag_402:\n        /* \"#utility.yul\":10682:10825   */\n      swap3\n      swap2\n      pop\n      pop\n      jump\t// out\n        /* \"#utility.yul\":10831:11182   */\n    tag_138:\n        /* \"#utility.yul\":10901:10907   */\n      0x00\n        /* \"#utility.yul\":10950:10952   */\n      0x20\n        /* \"#utility.yul\":10938:10947   */\n      dup3\n        /* \"#utility.yul\":10929:10936   */\n      dup5\n        /* \"#utility.yul\":10925:10948   */\n      sub\n        /* \"#utility.yul\":10921:10953   */\n      slt\n        /* \"#utility.yul\":10918:11037   */\n      iszero\n      tag_404\n      jumpi\n        /* \"#utility.yul\":10956:11035   */\n      tag_405\n      tag_224\n      jump\t// in\n    tag_405:\n        /* \"#utility.yul\":10918:11037   */\n    tag_404:\n        /* \"#utility.yul\":11076:11077   */\n      0x00\n        /* \"#utility.yul\":11101:11165   */\n      tag_406\n        /* \"#utility.yul\":11157:11164   */\n      dup5\n        /* \"#utility.yul\":11148:11154   */\n      dup3\n        /* \"#utility.yul\":11137:11146   */\n      dup6\n        /* \"#utility.yul\":11133:11155   */\n      add\n        /* \"#utility.yul\":11101:11165   */\n      tag_255\n      jump\t// in\n    tag_406:\n        /* \"#utility.yul\":11091:11165   */\n      swap2\n      pop\n        /* \"#utility.yul\":11047:11175   */\n      pop\n        /* \"#utility.yul\":10831:11182   */\n      swap3\n      swap2\n      pop\n      pop\n      jump\t// out\n        /* \"#utility.yul\":11188:11520   */\n    tag_155:\n        /* \"#utility.yul\":11309:11313   */\n      0x00\n        /* \"#utility.yul\":11347:11349   */\n      0x40\n        /* \"#utility.yul\":11336:11345   */\n      dup3\n        /* \"#utility.yul\":11332:11350   */\n      add\n        /* \"#utility.yul\":11324:11350   */\n      swap1\n      pop\n        /* \"#utility.yul\":11360:11431   */\n      tag_408\n        /* \"#utility.yul\":11428:11429   */\n      0x00\n        /* \"#utility.yul\":11417:11426   */\n      dup4\n        /* \"#utility.yul\":11413:11430   */\n      add\n        /* \"#utility.yul\":11404:11410   */\n      dup6\n        /* \"#utility.yul\":11360:11431   */\n      tag_222\n      jump\t// in\n    tag_408:\n        /* \"#utility.yul\":11441:11513   */\n      tag_409\n        /* \"#utility.yul\":11509:11511   */\n      0x20\n        /* \"#utility.yul\":11498:11507   */\n      dup4\n        /* \"#utility.yul\":11494:11512   */\n      add\n        /* \"#utility.yul\":11485:11491   */\n      dup5\n        /* \"#utility.yul\":11441:11513   */\n      tag_229\n      jump\t// in\n    tag_409:\n        /* \"#utility.yul\":11188:11520   */\n      swap4\n      swap3\n      pop\n      pop\n      pop\n      jump\t// out\n        /* \"#utility.yul\":11526:11663   */\n    tag_256:\n        /* \"#utility.yul\":11580:11585   */\n      0x00\n        /* \"#utility.yul\":11611:11617   */\n      dup2\n        /* \"#utility.yul\":11605:11618   */\n      mload\n        /* \"#utility.yul\":11596:11618   */\n      swap1\n      pop\n        /* \"#utility.yul\":11627:11657   */\n      tag_411\n        /* \"#utility.yul\":11651:11656   */\n      dup2\n        /* \"#utility.yul\":11627:11657   */\n      tag_231\n      jump\t// in\n    tag_411:\n        /* \"#utility.yul\":11526:11663   */\n      swap3\n      swap2\n      pop\n      pop\n      jump\t// out\n        /* \"#utility.yul\":11669:12014   */\n    tag_159:\n        /* \"#utility.yul\":11736:11742   */\n      0x00\n        /* \"#utility.yul\":11785:11787   */\n      0x20\n        /* \"#utility.yul\":11773:11782   */\n      dup3\n        /* \"#utility.yul\":11764:11771   */\n      dup5\n        /* \"#utility.yul\":11760:11783   */\n      sub\n        /* \"#utility.yul\":11756:11788   */\n      slt\n        /* \"#utility.yul\":11753:11872   */\n      iszero\n      tag_413\n      jumpi\n        /* \"#utility.yul\":11791:11870   */\n      tag_414\n      tag_224\n      jump\t// in\n    tag_414:\n        /* \"#utility.yul\":11753:11872   */\n    tag_413:\n        /* \"#utility.yul\":11911:11912   */\n      0x00\n        /* \"#utility.yul\":11936:11997   */\n      tag_415\n        /* \"#utility.yul\":11989:11996   */\n      dup5\n        /* \"#utility.yul\":11980:11986   */\n      dup3\n        /* \"#utility.yul\":11969:11978   */\n      dup6\n        /* \"#utility.yul\":11965:11987   */\n      add\n        /* \"#utility.yul\":11936:11997   */\n      tag_256\n      jump\t// in\n    tag_415:\n        /* \"#utility.yul\":11926:11997   */\n      swap2\n      pop\n        /* \"#utility.yul\":11882:12007   */\n      pop\n        /* \"#utility.yul\":11669:12014   */\n      swap3\n      swap2\n      pop\n      pop\n      jump\t// out\n        /* \"#utility.yul\":12020:12462   */\n    tag_184:\n        /* \"#utility.yul\":12169:12173   */\n      0x00\n        /* \"#utility.yul\":12207:12209   */\n      0x60\n        /* \"#utility.yul\":12196:12205   */\n      dup3\n        /* \"#utility.yul\":12192:12210   */\n      add\n        /* \"#utility.yul\":12184:12210   */\n      swap1\n      pop\n        /* \"#utility.yul\":12220:12291   */\n      tag_417\n        /* \"#utility.yul\":12288:12289   */\n      0x00\n        /* \"#utility.yul\":12277:12286   */\n      dup4\n        /* \"#utility.yul\":12273:12290   */\n      add\n        /* \"#utility.yul\":12264:12270   */\n      dup7\n        /* \"#utility.yul\":12220:12291   */\n      tag_222\n      jump\t// in\n    tag_417:\n        /* \"#utility.yul\":12301:12373   */\n      tag_418\n        /* \"#utility.yul\":12369:12371   */\n      0x20\n        /* \"#utility.yul\":12358:12367   */\n      dup4\n        /* \"#utility.yul\":12354:12372   */\n      add\n        /* \"#utility.yul\":12345:12351   */\n      dup6\n        /* \"#utility.yul\":12301:12373   */\n      tag_222\n      jump\t// in\n    tag_418:\n        /* \"#utility.yul\":12383:12455   */\n      tag_419\n        /* \"#utility.yul\":12451:12453   */\n      0x40\n        /* \"#utility.yul\":12440:12449   */\n      dup4\n        /* \"#utility.yul\":12436:12454   */\n      add\n        /* \"#utility.yul\":12427:12433   */\n      dup5\n        /* \"#utility.yul\":12383:12455   */\n      tag_229\n      jump\t// in\n    tag_419:\n        /* \"#utility.yul\":12020:12462   */\n      swap5\n      swap4\n      pop\n      pop\n      pop\n      pop\n      jump\t// out\n        /* \"#utility.yul\":12468:12586   */\n    tag_257:\n        /* \"#utility.yul\":12555:12579   */\n      tag_421\n        /* \"#utility.yul\":12573:12578   */\n      dup2\n        /* \"#utility.yul\":12555:12579   */\n      tag_236\n      jump\t// in\n    tag_421:\n        /* \"#utility.yul\":12550:12553   */\n      dup3\n        /* \"#utility.yul\":12543:12580   */\n      mstore\n        /* \"#utility.yul\":12468:12586   */\n      pop\n      pop\n      jump\t// out\n        /* \"#utility.yul\":12592:13145   */\n    tag_200:\n        /* \"#utility.yul\":12769:12773   */\n      0x00\n        /* \"#utility.yul\":12807:12810   */\n      0x80\n        /* \"#utility.yul\":12796:12805   */\n      dup3\n        /* \"#utility.yul\":12792:12811   */\n      add\n        /* \"#utility.yul\":12784:12811   */\n      swap1\n      pop\n        /* \"#utility.yul\":12821:12892   */\n      tag_423\n        /* \"#utility.yul\":12889:12890   */\n      0x00\n        /* \"#utility.yul\":12878:12887   */\n      dup4\n        /* \"#utility.yul\":12874:12891   */\n      add\n        /* \"#utility.yul\":12865:12871   */\n      dup8\n        /* \"#utility.yul\":12821:12892   */\n      tag_229\n      jump\t// in\n    tag_423:\n        /* \"#utility.yul\":12902:12974   */\n      tag_424\n        /* \"#utility.yul\":12970:12972   */\n      0x20\n        /* \"#utility.yul\":12959:12968   */\n      dup4\n        /* \"#utility.yul\":12955:12973   */\n      add\n        /* \"#utility.yul\":12946:12952   */\n      dup7\n        /* \"#utility.yul\":12902:12974   */\n      tag_229\n      jump\t// in\n    tag_424:\n        /* \"#utility.yul\":12984:13056   */\n      tag_425\n        /* \"#utility.yul\":13052:13054   */\n      0x40\n        /* \"#utility.yul\":13041:13050   */\n      dup4\n        /* \"#utility.yul\":13037:13055   */\n      add\n        /* \"#utility.yul\":13028:13034   */\n      dup6\n        /* \"#utility.yul\":12984:13056   */\n      tag_229\n      jump\t// in\n    tag_425:\n        /* \"#utility.yul\":13066:13138   */\n      tag_426\n        /* \"#utility.yul\":13134:13136   */\n      0x60\n        /* \"#utility.yul\":13123:13132   */\n      dup4\n        /* \"#utility.yul\":13119:13137   */\n      add\n        /* \"#utility.yul\":13110:13116   */\n      dup5\n        /* \"#utility.yul\":13066:13138   */\n      tag_257\n      jump\t// in\n    tag_426:\n        /* \"#utility.yul\":12592:13145   */\n      swap6\n      swap5\n      pop\n      pop\n      pop\n      pop\n      pop\n      jump\t// out\n        /* \"#utility.yul\":13151:13230   */\n    tag_258:\n        /* \"#utility.yul\":13190:13197   */\n      0x00\n        /* \"#utility.yul\":13219:13224   */\n      dup2\n        /* \"#utility.yul\":13208:13224   */\n      swap1\n      pop\n        /* \"#utility.yul\":13151:13230   */\n      swap2\n      swap1\n      pop\n      jump\t// out\n        /* \"#utility.yul\":13236:13393   */\n    tag_259:\n        /* \"#utility.yul\":13341:13386   */\n      tag_429\n        /* \"#utility.yul\":13361:13385   */\n      tag_430\n        /* \"#utility.yul\":13379:13384   */\n      dup3\n        /* \"#utility.yul\":13361:13385   */\n      tag_226\n      jump\t// in\n    tag_430:\n        /* \"#utility.yul\":13341:13386   */\n      tag_258\n      jump\t// in\n    tag_429:\n        /* \"#utility.yul\":13336:13339   */\n      dup3\n        /* \"#utility.yul\":13329:13387   */\n      mstore\n        /* \"#utility.yul\":13236:13393   */\n      pop\n      pop\n      jump\t// out\n        /* \"#utility.yul\":13399:13493   */\n    tag_260:\n        /* \"#utility.yul\":13432:13440   */\n      0x00\n        /* \"#utility.yul\":13480:13485   */\n      dup2\n        /* \"#utility.yul\":13476:13478   */\n      0x60\n        /* \"#utility.yul\":13472:13486   */\n      shl\n        /* \"#utility.yul\":13451:13486   */\n      swap1\n      pop\n        /* \"#utility.yul\":13399:13493   */\n      swap2\n      swap1\n      pop\n      jump\t// out\n        /* \"#utility.yul\":13499:13593   */\n    tag_261:\n        /* \"#utility.yul\":13538:13545   */\n      0x00\n        /* \"#utility.yul\":13567:13587   */\n      tag_433\n        /* \"#utility.yul\":13581:13586   */\n      dup3\n        /* \"#utility.yul\":13567:13587   */\n      tag_260\n      jump\t// in\n    tag_433:\n        /* \"#utility.yul\":13556:13587   */\n      swap1\n      pop\n        /* \"#utility.yul\":13499:13593   */\n      swap2\n      swap1\n      pop\n      jump\t// out\n        /* \"#utility.yul\":13599:13699   */\n    tag_262:\n        /* \"#utility.yul\":13638:13645   */\n      0x00\n        /* \"#utility.yul\":13667:13693   */\n      tag_435\n        /* \"#utility.yul\":13687:13692   */\n      dup3\n        /* \"#utility.yul\":13667:13693   */\n      tag_261\n      jump\t// in\n    tag_435:\n        /* \"#utility.yul\":13656:13693   */\n      swap1\n      pop\n        /* \"#utility.yul\":13599:13699   */\n      swap2\n      swap1\n      pop\n      jump\t// out\n        /* \"#utility.yul\":13705:13862   */\n    tag_263:\n        /* \"#utility.yul\":13810:13855   */\n      tag_437\n        /* \"#utility.yul\":13830:13854   */\n      tag_438\n        /* \"#utility.yul\":13848:13853   */\n      dup3\n        /* \"#utility.yul\":13830:13854   */\n      tag_221\n      jump\t// in\n    tag_438:\n        /* \"#utility.yul\":13810:13855   */\n      tag_262\n      jump\t// in\n    tag_437:\n        /* \"#utility.yul\":13805:13808   */\n      dup3\n        /* \"#utility.yul\":13798:13856   */\n      mstore\n        /* \"#utility.yul\":13705:13862   */\n      pop\n      pop\n      jump\t// out\n        /* \"#utility.yul\":13868:13947   */\n    tag_264:\n        /* \"#utility.yul\":13907:13914   */\n      0x00\n        /* \"#utility.yul\":13936:13941   */\n      dup2\n        /* \"#utility.yul\":13925:13941   */\n      swap1\n      pop\n        /* \"#utility.yul\":13868:13947   */\n      swap2\n      swap1\n      pop\n      jump\t// out\n        /* \"#utility.yul\":13953:14110   */\n    tag_265:\n        /* \"#utility.yul\":14058:14103   */\n      tag_441\n        /* \"#utility.yul\":14078:14102   */\n      tag_442\n        /* \"#utility.yul\":14096:14101   */\n      dup3\n        /* \"#utility.yul\":14078:14102   */\n      tag_236\n      jump\t// in\n    tag_442:\n        /* \"#utility.yul\":14058:14103   */\n      tag_264\n      jump\t// in\n    tag_441:\n        /* \"#utility.yul\":14053:14056   */\n      dup3\n        /* \"#utility.yul\":14046:14104   */\n      mstore\n        /* \"#utility.yul\":13953:14110   */\n      pop\n      pop\n      jump\t// out\n        /* \"#utility.yul\":14116:15077   */\n    tag_206:\n        /* \"#utility.yul\":14368:14371   */\n      0x00\n        /* \"#utility.yul\":14383:14458   */\n      tag_444\n        /* \"#utility.yul\":14454:14457   */\n      dup3\n        /* \"#utility.yul\":14445:14451   */\n      dup10\n        /* \"#utility.yul\":14383:14458   */\n      tag_259\n      jump\t// in\n    tag_444:\n        /* \"#utility.yul\":14483:14485   */\n      0x20\n        /* \"#utility.yul\":14478:14481   */\n      dup3\n        /* \"#utility.yul\":14474:14486   */\n      add\n        /* \"#utility.yul\":14467:14486   */\n      swap2\n      pop\n        /* \"#utility.yul\":14496:14571   */\n      tag_445\n        /* \"#utility.yul\":14567:14570   */\n      dup3\n        /* \"#utility.yul\":14558:14564   */\n      dup9\n        /* \"#utility.yul\":14496:14571   */\n      tag_263\n      jump\t// in\n    tag_445:\n        /* \"#utility.yul\":14596:14598   */\n      0x14\n        /* \"#utility.yul\":14591:14594   */\n      dup3\n        /* \"#utility.yul\":14587:14599   */\n      add\n        /* \"#utility.yul\":14580:14599   */\n      swap2\n      pop\n        /* \"#utility.yul\":14609:14684   */\n      tag_446\n        /* \"#utility.yul\":14680:14683   */\n      dup3\n        /* \"#utility.yul\":14671:14677   */\n      dup8\n        /* \"#utility.yul\":14609:14684   */\n      tag_263\n      jump\t// in\n    tag_446:\n        /* \"#utility.yul\":14709:14711   */\n      0x14\n        /* \"#utility.yul\":14704:14707   */\n      dup3\n        /* \"#utility.yul\":14700:14712   */\n      add\n        /* \"#utility.yul\":14693:14712   */\n      swap2\n      pop\n        /* \"#utility.yul\":14722:14797   */\n      tag_447\n        /* \"#utility.yul\":14793:14796   */\n      dup3\n        /* \"#utility.yul\":14784:14790   */\n      dup7\n        /* \"#utility.yul\":14722:14797   */\n      tag_259\n      jump\t// in\n    tag_447:\n        /* \"#utility.yul\":14822:14824   */\n      0x20\n        /* \"#utility.yul\":14817:14820   */\n      dup3\n        /* \"#utility.yul\":14813:14825   */\n      add\n        /* \"#utility.yul\":14806:14825   */\n      swap2\n      pop\n        /* \"#utility.yul\":14835:14910   */\n      tag_448\n        /* \"#utility.yul\":14906:14909   */\n      dup3\n        /* \"#utility.yul\":14897:14903   */\n      dup6\n        /* \"#utility.yul\":14835:14910   */\n      tag_265\n      jump\t// in\n    tag_448:\n        /* \"#utility.yul\":14935:14937   */\n      0x20\n        /* \"#utility.yul\":14930:14933   */\n      dup3\n        /* \"#utility.yul\":14926:14938   */\n      add\n        /* \"#utility.yul\":14919:14938   */\n      swap2\n      pop\n        /* \"#utility.yul\":14948:15023   */\n      tag_449\n        /* \"#utility.yul\":15019:15022   */\n      dup3\n        /* \"#utility.yul\":15010:15016   */\n      dup5\n        /* \"#utility.yul\":14948:15023   */\n      tag_259\n      jump\t// in\n    tag_449:\n        /* \"#utility.yul\":15048:15050   */\n      0x20\n        /* \"#utility.yul\":15043:15046   */\n      dup3\n        /* \"#utility.yul\":15039:15051   */\n      add\n        /* \"#utility.yul\":15032:15051   */\n      swap2\n      pop\n        /* \"#utility.yul\":15068:15071   */\n      dup2\n        /* \"#utility.yul\":15061:15071   */\n      swap1\n      pop\n        /* \"#utility.yul\":14116:15077   */\n      swap8\n      swap7\n      pop\n      pop\n      pop\n      pop\n      pop\n      pop\n      pop\n      jump\t// out\n        /* \"#utility.yul\":15083:15231   */\n    tag_266:\n        /* \"#utility.yul\":15185:15196   */\n      0x00\n        /* \"#utility.yul\":15222:15225   */\n      dup2\n        /* \"#utility.yul\":15207:15225   */\n      swap1\n      pop\n        /* \"#utility.yul\":15083:15231   */\n      swap3\n      swap2\n      pop\n      pop\n      jump\t// out\n        /* \"#utility.yul\":15237:15451   */\n    tag_267:\n        /* \"#utility.yul\":15377:15443   */\n      0x19457468657265756d205369676e6564204d6573736167653a0a333200000000\n        /* \"#utility.yul\":15373:15374   */\n      0x00\n        /* \"#utility.yul\":15365:15371   */\n      dup3\n        /* \"#utility.yul\":15361:15375   */\n      add\n        /* \"#utility.yul\":15354:15444   */\n      mstore\n        /* \"#utility.yul\":15237:15451   */\n      pop\n      jump\t// out\n        /* \"#utility.yul\":15457:15859   */\n    tag_268:\n        /* \"#utility.yul\":15617:15620   */\n      0x00\n        /* \"#utility.yul\":15638:15723   */\n      tag_453\n        /* \"#utility.yul\":15720:15722   */\n      0x1c\n        /* \"#utility.yul\":15715:15718   */\n      dup4\n        /* \"#utility.yul\":15638:15723   */\n      tag_266\n      jump\t// in\n    tag_453:\n        /* \"#utility.yul\":15631:15723   */\n      swap2\n      pop\n        /* \"#utility.yul\":15732:15825   */\n      tag_454\n        /* \"#utility.yul\":15821:15824   */\n      dup3\n        /* \"#utility.yul\":15732:15825   */\n      tag_267\n      jump\t// in\n    tag_454:\n        /* \"#utility.yul\":15850:15852   */\n      0x1c\n        /* \"#utility.yul\":15845:15848   */\n      dup3\n        /* \"#utility.yul\":15841:15853   */\n      add\n        /* \"#utility.yul\":15834:15853   */\n      swap1\n      pop\n        /* \"#utility.yul\":15457:15859   */\n      swap2\n      swap1\n      pop\n      jump\t// out\n        /* \"#utility.yul\":15865:16387   */\n    tag_208:\n        /* \"#utility.yul\":16078:16081   */\n      0x00\n        /* \"#utility.yul\":16100:16248   */\n      tag_456\n        /* \"#utility.yul\":16244:16247   */\n      dup3\n        /* \"#utility.yul\":16100:16248   */\n      tag_268\n      jump\t// in\n    tag_456:\n        /* \"#utility.yul\":16093:16248   */\n      swap2\n      pop\n        /* \"#utility.yul\":16258:16333   */\n      tag_457\n        /* \"#utility.yul\":16329:16332   */\n      dup3\n        /* \"#utility.yul\":16320:16326   */\n      dup5\n        /* \"#utility.yul\":16258:16333   */\n      tag_265\n      jump\t// in\n    tag_457:\n        /* \"#utility.yul\":16358:16360   */\n      0x20\n        /* \"#utility.yul\":16353:16356   */\n      dup3\n        /* \"#utility.yul\":16349:16361   */\n      add\n        /* \"#utility.yul\":16342:16361   */\n      swap2\n      pop\n        /* \"#utility.yul\":16378:16381   */\n      dup2\n        /* \"#utility.yul\":16371:16381   */\n      swap1\n      pop\n        /* \"#utility.yul\":15865:16387   */\n      swap3\n      swap2\n      pop\n      pop\n      jump\t// out\n        /* \"#utility.yul\":16393:16479   */\n    tag_269:\n        /* \"#utility.yul\":16428:16435   */\n      0x00\n        /* \"#utility.yul\":16468:16472   */\n      0xff\n        /* \"#utility.yul\":16461:16466   */\n      dup3\n        /* \"#utility.yul\":16457:16473   */\n      and\n        /* \"#utility.yul\":16446:16473   */\n      swap1\n      pop\n        /* \"#utility.yul\":16393:16479   */\n      swap2\n      swap1\n      pop\n      jump\t// out\n        /* \"#utility.yul\":16485:16673   */\n    tag_213:\n        /* \"#utility.yul\":16523:16526   */\n      0x00\n        /* \"#utility.yul\":16542:16560   */\n      tag_460\n        /* \"#utility.yul\":16558:16559   */\n      dup3\n        /* \"#utility.yul\":16542:16560   */\n      tag_269\n      jump\t// in\n    tag_460:\n        /* \"#utility.yul\":16537:16560   */\n      swap2\n      pop\n        /* \"#utility.yul\":16574:16592   */\n      tag_461\n        /* \"#utility.yul\":16590:16591   */\n      dup4\n        /* \"#utility.yul\":16574:16592   */\n      tag_269\n      jump\t// in\n    tag_461:\n        /* \"#utility.yul\":16569:16592   */\n      swap3\n      pop\n        /* \"#utility.yul\":16615:16616   */\n      dup3\n        /* \"#utility.yul\":16612:16613   */\n      dup3\n        /* \"#utility.yul\":16608:16617   */\n      add\n        /* \"#utility.yul\":16601:16617   */\n      swap1\n      pop\n        /* \"#utility.yul\":16638:16642   */\n      0xff\n        /* \"#utility.yul\":16633:16636   */\n      dup2\n        /* \"#utility.yul\":16630:16643   */\n      gt\n        /* \"#utility.yul\":16627:16666   */\n      iszero\n      tag_462\n      jumpi\n        /* \"#utility.yul\":16646:16664   */\n      tag_463\n      tag_253\n      jump\t// in\n    tag_463:\n        /* \"#utility.yul\":16627:16666   */\n    tag_462:\n        /* \"#utility.yul\":16485:16673   */\n      swap3\n      swap2\n      pop\n      pop\n      jump\t// out\n        /* \"#utility.yul\":16679:16791   */\n    tag_270:\n        /* \"#utility.yul\":16762:16784   */\n      tag_465\n        /* \"#utility.yul\":16778:16783   */\n      dup2\n        /* \"#utility.yul\":16762:16784   */\n      tag_269\n      jump\t// in\n    tag_465:\n        /* \"#utility.yul\":16757:16760   */\n      dup3\n        /* \"#utility.yul\":16750:16785   */\n      mstore\n        /* \"#utility.yul\":16679:16791   */\n      pop\n      pop\n      jump\t// out\n        /* \"#utility.yul\":16797:17342   */\n    tag_217:\n        /* \"#utility.yul\":16970:16974   */\n      0x00\n        /* \"#utility.yul\":17008:17011   */\n      0x80\n        /* \"#utility.yul\":16997:17006   */\n      dup3\n        /* \"#utility.yul\":16993:17012   */\n      add\n        /* \"#utility.yul\":16985:17012   */\n      swap1\n      pop\n        /* \"#utility.yul\":17022:17093   */\n      tag_467\n        /* \"#utility.yul\":17090:17091   */\n      0x00\n        /* \"#utility.yul\":17079:17088   */\n      dup4\n        /* \"#utility.yul\":17075:17092   */\n      add\n        /* \"#utility.yul\":17066:17072   */\n      dup8\n        /* \"#utility.yul\":17022:17093   */\n      tag_257\n      jump\t// in\n    tag_467:\n        /* \"#utility.yul\":17103:17171   */\n      tag_468\n        /* \"#utility.yul\":17167:17169   */\n      0x20\n        /* \"#utility.yul\":17156:17165   */\n      dup4\n        /* \"#utility.yul\":17152:17170   */\n      add\n        /* \"#utility.yul\":17143:17149   */\n      dup7\n        /* \"#utility.yul\":17103:17171   */\n      tag_270\n      jump\t// in\n    tag_468:\n        /* \"#utility.yul\":17181:17253   */\n      tag_469\n        /* \"#utility.yul\":17249:17251   */\n      0x40\n        /* \"#utility.yul\":17238:17247   */\n      dup4\n        /* \"#utility.yul\":17234:17252   */\n      add\n        /* \"#utility.yul\":17225:17231   */\n      dup6\n        /* \"#utility.yul\":17181:17253   */\n      tag_257\n      jump\t// in\n    tag_469:\n        /* \"#utility.yul\":17263:17335   */\n      tag_470\n        /* \"#utility.yul\":17331:17333   */\n      0x60\n        /* \"#utility.yul\":17320:17329   */\n      dup4\n        /* \"#utility.yul\":17316:17334   */\n      add\n        /* \"#utility.yul\":17307:17313   */\n      dup5\n        /* \"#utility.yul\":17263:17335   */\n      tag_257\n      jump\t// in\n    tag_470:\n        /* \"#utility.yul\":16797:17342   */\n      swap6\n      swap5\n      pop\n      pop\n      pop\n      pop\n      pop\n      jump\t// out\n\n    auxdata: 0xa26469706673582212201d0fc8e9d56d71857fca96deb6a630ce9e453b4e22572f1a43a155a5d0bedba064736f6c634300081e0033\n}\n",
				"bytecode": {
					"linkReferences": {},
					"object": "608060405234801561000f575f5ffd5b506040516124ef3803806124ef83398181016040528101906100319190610218565b335f5f6101000a81548173ffffffffffffffffffffffffffffffffffffffff021916908373ffffffffffffffffffffffffffffffffffffffff1602179055508460055f6101000a81548173ffffffffffffffffffffffffffffffffffffffff021916908373ffffffffffffffffffffffffffffffffffffffff1602179055508360025f6101000a81548173ffffffffffffffffffffffffffffffffffffffff021916908373ffffffffffffffffffffffffffffffffffffffff1602179055508260035f6101000a81548173ffffffffffffffffffffffffffffffffffffffff021916908373ffffffffffffffffffffffffffffffffffffffff1602179055508160045f6101000a81548173ffffffffffffffffffffffffffffffffffffffff021916908373ffffffffffffffffffffffffffffffffffffffff1602179055508060015f6101000a81548173ffffffffffffffffffffffffffffffffffffffff021916908373ffffffffffffffffffffffffffffffffffffffff160217905550505050505061028f565b5f5ffd5b5f73ffffffffffffffffffffffffffffffffffffffff82169050919050565b5f6101e7826101be565b9050919050565b6101f7816101dd565b8114610201575f5ffd5b50565b5f81519050610212816101ee565b92915050565b5f5f5f5f5f60a08688031215610231576102306101ba565b5b5f61023e88828901610204565b955050602061024f88828901610204565b945050604061026088828901610204565b935050606061027188828901610204565b925050608061028288828901610204565b9150509295509295909350565b6122538061029c5f395ff3fe608060405234801561000f575f5ffd5b5060043610610140575f3560e01c80636c19e783116100b6578063b38c4eef1161007a578063b38c4eef1461033f578063bf3b80f61461035d578063ca5fa06114610379578063f2fde38b14610397578063fbfa77cf146103b3578063feb61724146103d157610140565b80636c19e783146102ad57806377a64fd5146102c95780638da5cb5b146102e757806395ccea6714610305578063a37a9fc01461032157610140565b8063249d39e911610108578063249d39e9146101ea57806335ef11c0146102085780633ded61d6146102245780635c975abb1461024257806365d5ab8c146102605780636817031b1461029157610140565b8063062287491461014457806313a6c05f1461016257806316c38b3c146101945780631c4ba3ed146101b0578063238ac933146101cc575b5f5ffd5b61014c610401565b6040516101599190611996565b60405180910390f35b61017c600480360381019061017791906119ea565b610426565b60405161018b93929190611a24565b60405180910390f35b6101ae60048036038101906101a99190611a8e565b610482565b005b6101ca60048036038101906101c59190611ae3565b61055b565b005b6101d461069e565b6040516101e19190611996565b60405180910390f35b6101f26106c3565b6040516101ff9190611b0e565b60405180910390f35b610222600480360381019061021d9190611ae3565b6106c9565b005b61022c61080c565b6040516102399190611b0e565b60405180910390f35b61024a610812565b6040516102579190611b36565b60405180910390f35b61027a60048036038101906102759190611be3565b610825565b604051610288929190611ce9565b60405180910390f35b6102ab60048036038101906102a69190611ae3565b610b6d565b005b6102c760048036038101906102c29190611ae3565b610cb0565b005b6102d1610df3565b6040516102de9190611b0e565b60405180910390f35b6102ef610df9565b6040516102fc9190611996565b60405180910390f35b61031f600480360381019061031a9190611d17565b610e1d565b005b610329610fc6565b6040516103369190611b0e565b60405180910390f35b610347610fcb565b6040516103549190611996565b60405180910390f35b61037760048036038101906103729190611be3565b610ff0565b005b6103816116fa565b60405161038e9190611db0565b60405180910390f35b6103b160048036038101906103ac9190611ae3565b61171f565b005b6103bb6117e6565b6040516103c89190611996565b60405180910390f35b6103eb60048036038101906103e69190611dc9565b61180b565b6040516103f89190611b36565b60405180910390f35b60045f9054906101000a900473ffffffffffffffffffffffffffffffffffffffff1681565b5f5f5f6127106101c28561043a9190611e21565b6104449190611e8f565b91506127106064856104569190611e21565b6104609190611e8f565b905080828561046f9190611ebf565b6104799190611ebf565b92509193909250565b5f5f9054906101000a900473ffffffffffffffffffffffffffffffffffffffff1673ffffffffffffffffffffffffffffffffffffffff163373ffffffffffffffffffffffffffffffffffffffff1614610507576040517f30cd747100000000000000000000000000000000000000000000000000000000815260040160405180910390fd5b80600560146101000a81548160ff0219169083151502179055507f0e2fb031ee032dc02d8011dc50b816eb450cf856abd8261680dac74f72165bd2816040516105509190611b36565b60405180910390a150565b5f5f9054906101000a900473ffffffffffffffffffffffffffffffffffffffff1673ffffffffffffffffffffffffffffffffffffffff163373ffffffffffffffffffffffffffffffffffffffff16146105e0576040517f30cd747100000000000000000000000000000000000000000000000000000000815260040160405180910390fd5b8073ffffffffffffffffffffffffffffffffffffffff1660045f9054906101000a900473ffffffffffffffffffffffffffffffffffffffff1673ffffffffffffffffffffffffffffffffffffffff167fe678f864bcd4f50e0554d3b42d5a0007424f154c8b29d4845c7c727f319cfd9260405160405180910390a38060045f6101000a81548173ffffffffffffffffffffffffffffffffffffffff021916908373ffffffffffffffffffffffffffffffffffffffff16021790555050565b60015f9054906101000a900473ffffffffffffffffffffffffffffffffffffffff1681565b61271081565b5f5f9054906101000a900473ffffffffffffffffffffffffffffffffffffffff1673ffffffffffffffffffffffffffffffffffffffff163373ffffffffffffffffffffffffffffffffffffffff161461074e576040517f30cd747100000000000000000000000000000000000000000000000000000000815260040160405180910390fd5b8073ffffffffffffffffffffffffffffffffffffffff1660035f9054906101000a900473ffffffffffffffffffffffffffffffffffffffff1673ffffffffffffffffffffffffffffffffffffffff167f95ee0ef5b75494271372b2583bc15b87408ee97ee99ef93c011ab8c3132dc26560405160405180910390a38060035f6101000a81548173ffffffffffffffffffffffffffffffffffffffff021916908373ffffffffffffffffffffffffffffffffffffffff16021790555050565b6124ea81565b600560149054906101000a900460ff1681565b5f6060600560149054906101000a900460ff161561087d575f6040518060400160405280600681526020017f706175736564000000000000000000000000000000000000000000000000000081525091509150610b62565b5f87036108c4575f6040518060400160405280600b81526020017f7a65726f20616d6f756e7400000000000000000000000000000000000000000081525091509150610b62565b8442111561090c575f6040518060400160405280600781526020017f657870697265640000000000000000000000000000000000000000000000000081525091509150610b62565b60065f8781526020019081526020015f205f9054906101000a900460ff161561096f575f6040518060400160405280600a81526020017f6e6f6e636520757365640000000000000000000000000000000000000000000081525091509150610b62565b8660055f9054906101000a900473ffffffffffffffffffffffffffffffffffffffff1673ffffffffffffffffffffffffffffffffffffffff166370a0823160025f9054906101000a900473ffffffffffffffffffffffffffffffffffffffff166040518263ffffffff1660e01b81526004016109eb9190611996565b602060405180830381865afa158015610a06573d5f5f3e3d5ffd5b505050506040513d601f19601f82011682018060405250810190610a2a9190611f06565b1015610a70575f6040518060400160405280601a81526020017f696e73756666696369656e74207661756c742062616c616e636500000000000081525091509150610b62565b5f610a7d89898989611828565b90505f610a8b82878761188f565b905060015f9054906101000a900473ffffffffffffffffffffffffffffffffffffffff1673ffffffffffffffffffffffffffffffffffffffff168173ffffffffffffffffffffffffffffffffffffffff1614610b23575f6040518060400160405280601181526020017f696e76616c6964207369676e6174757265000000000000000000000000000000815250935093505050610b62565b60016040518060400160405280600281526020017f6f6b0000000000000000000000000000000000000000000000000000000000008152509350935050505b965096945050505050565b5f5f9054906101000a900473ffffffffffffffffffffffffffffffffffffffff1673ffffffffffffffffffffffffffffffffffffffff163373ffffffffffffffffffffffffffffffffffffffff1614610bf2576040517f30cd747100000000000000000000000000000000000000000000000000000000815260040160405180910390fd5b8073ffffffffffffffffffffffffffffffffffffffff1660025f9054906101000a900473ffffffffffffffffffffffffffffffffffffffff1673ffffffffffffffffffffffffffffffffffffffff167f483bdedaaf23706a9800ac1af0d852b34927780d79f9d6ba60a80c7cad75ea3960405160405180910390a38060025f6101000a81548173ffffffffffffffffffffffffffffffffffffffff021916908373ffffffffffffffffffffffffffffffffffffffff16021790555050565b5f5f9054906101000a900473ffffffffffffffffffffffffffffffffffffffff1673ffffffffffffffffffffffffffffffffffffffff163373ffffffffffffffffffffffffffffffffffffffff1614610d35576040517f30cd747100000000000000000000000000000000000000000000000000000000815260040160405180910390fd5b8073ffffffffffffffffffffffffffffffffffffffff1660015f9054906101000a900473ffffffffffffffffffffffffffffffffffffffff1673ffffffffffffffffffffffffffffffffffffffff167f2d025324f0a785e8c12d0a0d91a9caa49df4ef20ff87e0df7213a1d4f3157beb60405160405180910390a38060015f6101000a81548173ffffffffffffffffffffffffffffffffffffffff021916908373ffffffffffffffffffffffffffffffffffffffff16021790555050565b6101c281565b5f5f9054906101000a900473ffffffffffffffffffffffffffffffffffffffff1681565b5f5f9054906101000a900473ffffffffffffffffffffffffffffffffffffffff1673ffffffffffffffffffffffffffffffffffffffff163373ffffffffffffffffffffffffffffffffffffffff1614610ea2576040517f30cd747100000000000000000000000000000000000000000000000000000000815260040160405180910390fd5b60055f9054906101000a900473ffffffffffffffffffffffffffffffffffffffff1673ffffffffffffffffffffffffffffffffffffffff1663a9059cbb83836040518363ffffffff1660e01b8152600401610efe929190611f31565b6020604051808303815f875af1158015610f1a573d5f5f3e3d5ffd5b505050506040513d601f19601f82011682018060405250810190610f3e9190611f6c565b610f74576040517f90b8ec1800000000000000000000000000000000000000000000000000000000815260040160405180910390fd5b8173ffffffffffffffffffffffffffffffffffffffff167f5fafa99d0643513820be26656b45130b01e1c03062e1266bf36f88cbd3bd969582604051610fba9190611b0e565b60405180910390a25050565b606481565b60035f9054906101000a900473ffffffffffffffffffffffffffffffffffffffff1681565b600560149054906101000a900460ff1615611037576040517fab35696f00000000000000000000000000000000000000000000000000000000815260040160405180910390fd5b5f8503611070576040517f1f2a200500000000000000000000000000000000000000000000000000000000815260040160405180910390fd5b824211156110aa576040517f82a49d9e00000000000000000000000000000000000000000000000000000000815260040160405180910390fd5b60065f8581526020019081526020015f205f9054906101000a900460ff16156110ff576040517f1f6d5aef00000000000000000000000000000000000000000000000000000000815260040160405180910390fd5b8573ffffffffffffffffffffffffffffffffffffffff163373ffffffffffffffffffffffffffffffffffffffff1614611164576040517f8baa579f00000000000000000000000000000000000000000000000000000000815260040160405180910390fd5b5f61117187878787611828565b90505f61117f82858561188f565b905060015f9054906101000a900473ffffffffffffffffffffffffffffffffffffffff1673ffffffffffffffffffffffffffffffffffffffff168173ffffffffffffffffffffffffffffffffffffffff1614611207576040517f8baa579f00000000000000000000000000000000000000000000000000000000815260040160405180910390fd5b5f6127106101c2896112199190611e21565b6112239190611e8f565b90505f61271060648a6112369190611e21565b6112409190611e8f565b90505f81838b6112509190611ebf565b61125a9190611ebf565b90508960055f9054906101000a900473ffffffffffffffffffffffffffffffffffffffff1673ffffffffffffffffffffffffffffffffffffffff166370a0823160025f9054906101000a900473ffffffffffffffffffffffffffffffffffffffff166040518263ffffffff1660e01b81526004016112d89190611996565b602060405180830381865afa1580156112f3573d5f5f3e3d5ffd5b505050506040513d601f19601f820116820180604052508101906113179190611f06565b101561134f576040517f14ecd6c700000000000000000000000000000000000000000000000000000000815260040160405180910390fd5b600160065f8b81526020019081526020015f205f6101000a81548160ff02191690831515021790555060055f9054906101000a900473ffffffffffffffffffffffffffffffffffffffff1673ffffffffffffffffffffffffffffffffffffffff166323b872dd60025f9054906101000a900473ffffffffffffffffffffffffffffffffffffffff168d846040518463ffffffff1660e01b81526004016113f793929190611f97565b6020604051808303815f875af1158015611413573d5f5f3e3d5ffd5b505050506040513d601f19601f820116820180604052508101906114379190611f6c565b61146d576040517f90b8ec1800000000000000000000000000000000000000000000000000000000815260040160405180910390fd5b60055f9054906101000a900473ffffffffffffffffffffffffffffffffffffffff1673ffffffffffffffffffffffffffffffffffffffff166323b872dd60025f9054906101000a900473ffffffffffffffffffffffffffffffffffffffff1660035f9054906101000a900473ffffffffffffffffffffffffffffffffffffffff16866040518463ffffffff1660e01b815260040161150d93929190611f97565b6020604051808303815f875af1158015611529573d5f5f3e3d5ffd5b505050506040513d601f19601f8201168201806040525081019061154d9190611f6c565b611583576040517f90b8ec1800000000000000000000000000000000000000000000000000000000815260040160405180910390fd5b60055f9054906101000a900473ffffffffffffffffffffffffffffffffffffffff1673ffffffffffffffffffffffffffffffffffffffff166323b872dd60025f9054906101000a900473ffffffffffffffffffffffffffffffffffffffff1660045f9054906101000a900473ffffffffffffffffffffffffffffffffffffffff16856040518463ffffffff1660e01b815260040161162393929190611f97565b6020604051808303815f875af115801561163f573d5f5f3e3d5ffd5b505050506040513d601f19601f820116820180604052508101906116639190611f6c565b611699576040517f90b8ec1800000000000000000000000000000000000000000000000000000000815260040160405180910390fd5b8a73ffffffffffffffffffffffffffffffffffffffff167fcd827817efd761ae05fe6df882e96a826f460e64ad6954603c5a2e959cf214878285858d6040516116e59493929190611fdb565b60405180910390a25050505050505050505050565b60055f9054906101000a900473ffffffffffffffffffffffffffffffffffffffff1681565b5f5f9054906101000a900473ffffffffffffffffffffffffffffffffffffffff1673ffffffffffffffffffffffffffffffffffffffff163373ffffffffffffffffffffffffffffffffffffffff16146117a4576040517f30cd747100000000000000000000000000000000000000000000000000000000815260040160405180910390fd5b805f5f6101000a81548173ffffffffffffffffffffffffffffffffffffffff021916908373ffffffffffffffffffffffffffffffffffffffff16021790555050565b60025f9054906101000a900473ffffffffffffffffffffffffffffffffffffffff1681565b6006602052805f5260405f205f915054906101000a900460ff1681565b5f5f463087878787604051602001611845969594939291906120a3565b6040516020818303038152906040528051906020012090508060405160200161186e9190612166565b60405160208183030381529060405280519060200120915050949350505050565b5f604183839050146118a3575f9050611950565b5f5f5f853592506020860135915060408601355f1a9050601b8160ff1610156118d657601b816118d39190612197565b90505b601b8160ff16141580156118ee5750601c8160ff1614155b156118fe575f9350505050611950565b6001878285856040515f815260200160405260405161192094939291906121da565b6020604051602081039080840390855afa158015611940573d5f5f3e3d5ffd5b5050506020604051035193505050505b9392505050565b5f73ffffffffffffffffffffffffffffffffffffffff82169050919050565b5f61198082611957565b9050919050565b61199081611976565b82525050565b5f6020820190506119a95f830184611987565b92915050565b5f5ffd5b5f5ffd5b5f819050919050565b6119c9816119b7565b81146119d3575f5ffd5b50565b5f813590506119e4816119c0565b92915050565b5f602082840312156119ff576119fe6119af565b5b5f611a0c848285016119d6565b91505092915050565b611a1e816119b7565b82525050565b5f606082019050611a375f830186611a15565b611a446020830185611a15565b611a516040830184611a15565b949350505050565b5f8115159050919050565b611a6d81611a59565b8114611a77575f5ffd5b50565b5f81359050611a8881611a64565b92915050565b5f60208284031215611aa357611aa26119af565b5b5f611ab084828501611a7a565b91505092915050565b611ac281611976565b8114611acc575f5ffd5b50565b5f81359050611add81611ab9565b92915050565b5f60208284031215611af857611af76119af565b5b5f611b0584828501611acf565b91505092915050565b5f602082019050611b215f830184611a15565b92915050565b611b3081611a59565b82525050565b5f602082019050611b495f830184611b27565b92915050565b5f819050919050565b611b6181611b4f565b8114611b6b575f5ffd5b50565b5f81359050611b7c81611b58565b92915050565b5f5ffd5b5f5ffd5b5f5ffd5b5f5f83601f840112611ba357611ba2611b82565b5b8235905067ffffffffffffffff811115611bc057611bbf611b86565b5b602083019150836001820283011115611bdc57611bdb611b8a565b5b9250929050565b5f5f5f5f5f5f60a08789031215611bfd57611bfc6119af565b5b5f611c0a89828a01611acf565b9650506020611c1b89828a016119d6565b9550506040611c2c89828a01611b6e565b9450506060611c3d89828a016119d6565b935050608087013567ffffffffffffffff811115611c5e57611c5d6119b3565b5b611c6a89828a01611b8e565b92509250509295509295509295565b5f81519050919050565b5f82825260208201905092915050565b8281835e5f83830152505050565b5f601f19601f8301169050919050565b5f611cbb82611c79565b611cc58185611c83565b9350611cd5818560208601611c93565b611cde81611ca1565b840191505092915050565b5f604082019050611cfc5f830185611b27565b8181036020830152611d0e8184611cb1565b90509392505050565b5f5f60408385031215611d2d57611d2c6119af565b5b5f611d3a85828601611acf565b9250506020611d4b858286016119d6565b9150509250929050565b5f819050919050565b5f611d78611d73611d6e84611957565b611d55565b611957565b9050919050565b5f611d8982611d5e565b9050919050565b5f611d9a82611d7f565b9050919050565b611daa81611d90565b82525050565b5f602082019050611dc35f830184611da1565b92915050565b5f60208284031215611dde57611ddd6119af565b5b5f611deb84828501611b6e565b91505092915050565b7f4e487b71000000000000000000000000000000000000000000000000000000005f52601160045260245ffd5b5f611e2b826119b7565b9150611e36836119b7565b9250828202611e44816119b7565b91508282048414831517611e5b57611e5a611df4565b5b5092915050565b7f4e487b71000000000000000000000000000000000000000000000000000000005f52601260045260245ffd5b5f611e99826119b7565b9150611ea4836119b7565b925082611eb457611eb3611e62565b5b828204905092915050565b5f611ec9826119b7565b9150611ed4836119b7565b9250828203905081811115611eec57611eeb611df4565b5b92915050565b5f81519050611f00816119c0565b92915050565b5f60208284031215611f1b57611f1a6119af565b5b5f611f2884828501611ef2565b91505092915050565b5f604082019050611f445f830185611987565b611f516020830184611a15565b9392505050565b5f81519050611f6681611a64565b92915050565b5f60208284031215611f8157611f806119af565b5b5f611f8e84828501611f58565b91505092915050565b5f606082019050611faa5f830186611987565b611fb76020830185611987565b611fc46040830184611a15565b949350505050565b611fd581611b4f565b82525050565b5f608082019050611fee5f830187611a15565b611ffb6020830186611a15565b6120086040830185611a15565b6120156060830184611fcc565b95945050505050565b5f819050919050565b612038612033826119b7565b61201e565b82525050565b5f8160601b9050919050565b5f6120548261203e565b9050919050565b5f6120658261204a565b9050919050565b61207d61207882611976565b61205b565b82525050565b5f819050919050565b61209d61209882611b4f565b612083565b82525050565b5f6120ae8289612027565b6020820191506120be828861206c565b6014820191506120ce828761206c565b6014820191506120de8286612027565b6020820191506120ee828561208c565b6020820191506120fe8284612027565b602082019150819050979650505050505050565b5f81905092915050565b7f19457468657265756d205369676e6564204d6573736167653a0a3332000000005f82015250565b5f612150601c83612112565b915061215b8261211c565b601c82019050919050565b5f61217082612144565b915061217c828461208c565b60208201915081905092915050565b5f60ff82169050919050565b5f6121a18261218b565b91506121ac8361218b565b9250828201905060ff8111156121c5576121c4611df4565b5b92915050565b6121d48161218b565b82525050565b5f6080820190506121ed5f830187611fcc565b6121fa60208301866121cb565b6122076040830185611fcc565b6122146060830184611fcc565b9594505050505056fea26469706673582212201d0fc8e9d56d71857fca96deb6a630ce9e453b4e22572f1a43a155a5d0bedba064736f6c634300081e0033",
					"opcodes": "PUSH1 0x80 PUSH1 0x40 MSTORE CALLVALUE DUP1 ISZERO PUSH2 0xF JUMPI PUSH0 PUSH0 REVERT JUMPDEST POP PUSH1 0x40 MLOAD PUSH2 0x24EF CODESIZE SUB DUP1 PUSH2 0x24EF DUP4 CODECOPY DUP2 DUP2 ADD PUSH1 0x40 MSTORE DUP2 ADD SWAP1 PUSH2 0x31 SWAP2 SWAP1 PUSH2 0x218 JUMP JUMPDEST CALLER PUSH0 PUSH0 PUSH2 0x100 EXP DUP2 SLOAD DUP2 PUSH20 0xFFFFFFFFFFFFFFFFFFFFFFFFFFFFFFFFFFFFFFFF MUL NOT AND SWAP1 DUP4 PUSH20 0xFFFFFFFFFFFFFFFFFFFFFFFFFFFFFFFFFFFFFFFF AND MUL OR SWAP1 SSTORE POP DUP5 PUSH1 0x5 PUSH0 PUSH2 0x100 EXP DUP2 SLOAD DUP2 PUSH20 0xFFFFFFFFFFFFFFFFFFFFFFFFFFFFFFFFFFFFFFFF MUL NOT AND SWAP1 DUP4 PUSH20 0xFFFFFFFFFFFFFFFFFFFFFFFFFFFFFFFFFFFFFFFF AND MUL OR SWAP1 SSTORE POP DUP4 PUSH1 0x2 PUSH0 PUSH2 0x100 EXP DUP2 SLOAD DUP2 PUSH20 0xFFFFFFFFFFFFFFFFFFFFFFFFFFFFFFFFFFFFFFFF MUL NOT AND SWAP1 DUP4 PUSH20 0xFFFFFFFFFFFFFFFFFFFFFFFFFFFFFFFFFFFFFFFF AND MUL OR SWAP1 SSTORE POP DUP3 PUSH1 0x3 PUSH0 PUSH2 0x100 EXP DUP2 SLOAD DUP2 PUSH20 0xFFFFFFFFFFFFFFFFFFFFFFFFFFFFFFFFFFFFFFFF MUL NOT AND SWAP1 DUP4 PUSH20 0xFFFFFFFFFFFFFFFFFFFFFFFFFFFFFFFFFFFFFFFF AND MUL OR SWAP1 SSTORE POP DUP2 PUSH1 0x4 PUSH0 PUSH2 0x100 EXP DUP2 SLOAD DUP2 PUSH20 0xFFFFFFFFFFFFFFFFFFFFFFFFFFFFFFFFFFFFFFFF MUL NOT AND SWAP1 DUP4 PUSH20 0xFFFFFFFFFFFFFFFFFFFFFFFFFFFFFFFFFFFFFFFF AND MUL OR SWAP1 SSTORE POP DUP1 PUSH1 0x1 PUSH0 PUSH2 0x100 EXP DUP2 SLOAD DUP2 PUSH20 0xFFFFFFFFFFFFFFFFFFFFFFFFFFFFFFFFFFFFFFFF MUL NOT AND SWAP1 DUP4 PUSH20 0xFFFFFFFFFFFFFFFFFFFFFFFFFFFFFFFFFFFFFFFF AND MUL OR SWAP1 SSTORE POP POP POP POP POP POP PUSH2 0x28F JUMP JUMPDEST PUSH0 PUSH0 REVERT JUMPDEST PUSH0 PUSH20 0xFFFFFFFFFFFFFFFFFFFFFFFFFFFFFFFFFFFFFFFF DUP3 AND SWAP1 POP SWAP2 SWAP1 POP JUMP JUMPDEST PUSH0 PUSH2 0x1E7 DUP3 PUSH2 0x1BE JUMP JUMPDEST SWAP1 POP SWAP2 SWAP1 POP JUMP JUMPDEST PUSH2 0x1F7 DUP2 PUSH2 0x1DD JUMP JUMPDEST DUP2 EQ PUSH2 0x201 JUMPI PUSH0 PUSH0 REVERT JUMPDEST POP JUMP JUMPDEST PUSH0 DUP2 MLOAD SWAP1 POP PUSH2 0x212 DUP2 PUSH2 0x1EE JUMP JUMPDEST SWAP3 SWAP2 POP POP JUMP JUMPDEST PUSH0 PUSH0 PUSH0 PUSH0 PUSH0 PUSH1 0xA0 DUP7 DUP9 SUB SLT ISZERO PUSH2 0x231 JUMPI PUSH2 0x230 PUSH2 0x1BA JUMP JUMPDEST JUMPDEST PUSH0 PUSH2 0x23E DUP9 DUP3 DUP10 ADD PUSH2 0x204 JUMP JUMPDEST SWAP6 POP POP PUSH1 0x20 PUSH2 0x24F DUP9 DUP3 DUP10 ADD PUSH2 0x204 JUMP JUMPDEST SWAP5 POP POP PUSH1 0x40 PUSH2 0x260 DUP9 DUP3 DUP10 ADD PUSH2 0x204 JUMP JUMPDEST SWAP4 POP POP PUSH1 0x60 PUSH2 0x271 DUP9 DUP3 DUP10 ADD PUSH2 0x204 JUMP JUMPDEST SWAP3 POP POP PUSH1 0x80 PUSH2 0x282 DUP9 DUP3 DUP10 ADD PUSH2 0x204 JUMP JUMPDEST SWAP2 POP POP SWAP3 SWAP6 POP SWAP3 SWAP6 SWAP1 SWAP4 POP JUMP JUMPDEST PUSH2 0x2253 DUP1 PUSH2 0x29C PUSH0 CODECOPY PUSH0 RETURN INVALID PUSH1 0x80 PUSH1 0x40 MSTORE CALLVALUE DUP1 ISZERO PUSH2 0xF JUMPI PUSH0 PUSH0 REVERT JUMPDEST POP PUSH1 0x4 CALLDATASIZE LT PUSH2 0x140 JUMPI PUSH0 CALLDATALOAD PUSH1 0xE0 SHR DUP1 PUSH4 0x6C19E783 GT PUSH2 0xB6 JUMPI DUP1 PUSH4 0xB38C4EEF GT PUSH2 0x7A JUMPI DUP1 PUSH4 0xB38C4EEF EQ PUSH2 0x33F JUMPI DUP1 PUSH4 0xBF3B80F6 EQ PUSH2 0x35D JUMPI DUP1 PUSH4 0xCA5FA061 EQ PUSH2 0x379 JUMPI DUP1 PUSH4 0xF2FDE38B EQ PUSH2 0x397 JUMPI DUP1 PUSH4 0xFBFA77CF EQ PUSH2 0x3B3 JUMPI DUP1 PUSH4 0xFEB61724 EQ PUSH2 0x3D1 JUMPI PUSH2 0x140 JUMP JUMPDEST DUP1 PUSH4 0x6C19E783 EQ PUSH2 0x2AD JUMPI DUP1 PUSH4 0x77A64FD5 EQ PUSH2 0x2C9 JUMPI DUP1 PUSH4 0x8DA5CB5B EQ PUSH2 0x2E7 JUMPI DUP1 PUSH4 0x95CCEA67 EQ PUSH2 0x305 JUMPI DUP1 PUSH4 0xA37A9FC0 EQ PUSH2 0x321 JUMPI PUSH2 0x140 JUMP JUMPDEST DUP1 PUSH4 0x249D39E9 GT PUSH2 0x108 JUMPI DUP1 PUSH4 0x249D39E9 EQ PUSH2 0x1EA JUMPI DUP1 PUSH4 0x35EF11C0 EQ PUSH2 0x208 JUMPI DUP1 PUSH4 0x3DED61D6 EQ PUSH2 0x224 JUMPI DUP1 PUSH4 0x5C975ABB EQ PUSH2 0x242 JUMPI DUP1 PUSH4 0x65D5AB8C EQ PUSH2 0x260 JUMPI DUP1 PUSH4 0x6817031B EQ PUSH2 0x291 JUMPI PUSH2 0x140 JUMP JUMPDEST DUP1 PUSH4 0x6228749 EQ PUSH2 0x144 JUMPI DUP1 PUSH4 0x13A6C05F EQ PUSH2 0x162 JUMPI DUP1 PUSH4 0x16C38B3C EQ PUSH2 0x194 JUMPI DUP1 PUSH4 0x1C4BA3ED EQ PUSH2 0x1B0 JUMPI DUP1 PUSH4 0x238AC933 EQ PUSH2 0x1CC JUMPI JUMPDEST PUSH0 PUSH0 REVERT JUMPDEST PUSH2 0x14C PUSH2 0x401 JUMP JUMPDEST PUSH1 0x40 MLOAD PUSH2 0x159 SWAP2 SWAP1 PUSH2 0x1996 JUMP JUMPDEST PUSH1 0x40 MLOAD DUP1 SWAP2 SUB SWAP1 RETURN JUMPDEST PUSH2 0x17C PUSH1 0x4 DUP1 CALLDATASIZE SUB DUP2 ADD SWAP1 PUSH2 0x177 SWAP2 SWAP1 PUSH2 0x19EA JUMP JUMPDEST PUSH2 0x426 JUMP JUMPDEST PUSH1 0x40 MLOAD PUSH2 0x18B SWAP4 SWAP3 SWAP2 SWAP1 PUSH2 0x1A24 JUMP JUMPDEST PUSH1 0x40 MLOAD DUP1 SWAP2 SUB SWAP1 RETURN JUMPDEST PUSH2 0x1AE PUSH1 0x4 DUP1 CALLDATASIZE SUB DUP2 ADD SWAP1 PUSH2 0x1A9 SWAP2 SWAP1 PUSH2 0x1A8E JUMP JUMPDEST PUSH2 0x482 JUMP JUMPDEST STOP JUMPDEST PUSH2 0x1CA PUSH1 0x4 DUP1 CALLDATASIZE SUB DUP2 ADD SWAP1 PUSH2 0x1C5 SWAP2 SWAP1 PUSH2 0x1AE3 JUMP JUMPDEST PUSH2 0x55B JUMP JUMPDEST STOP JUMPDEST PUSH2 0x1D4 PUSH2 0x69E JUMP JUMPDEST PUSH1 0x40 MLOAD PUSH2 0x1E1 SWAP2 SWAP1 PUSH2 0x1996 JUMP JUMPDEST PUSH1 0x40 MLOAD DUP1 SWAP2 SUB SWAP1 RETURN JUMPDEST PUSH2 0x1F2 PUSH2 0x6C3 JUMP JUMPDEST PUSH1 0x40 MLOAD PUSH2 0x1FF SWAP2 SWAP1 PUSH2 0x1B0E JUMP JUMPDEST PUSH1 0x40 MLOAD DUP1 SWAP2 SUB SWAP1 RETURN JUMPDEST PUSH2 0x222 PUSH1 0x4 DUP1 CALLDATASIZE SUB DUP2 ADD SWAP1 PUSH2 0x21D SWAP2 SWAP1 PUSH2 0x1AE3 JUMP JUMPDEST PUSH2 0x6C9 JUMP JUMPDEST STOP JUMPDEST PUSH2 0x22C PUSH2 0x80C JUMP JUMPDEST PUSH1 0x40 MLOAD PUSH2 0x239 SWAP2 SWAP1 PUSH2 0x1B0E JUMP JUMPDEST PUSH1 0x40 MLOAD DUP1 SWAP2 SUB SWAP1 RETURN JUMPDEST PUSH2 0x24A PUSH2 0x812 JUMP JUMPDEST PUSH1 0x40 MLOAD PUSH2 0x257 SWAP2 SWAP1 PUSH2 0x1B36 JUMP JUMPDEST PUSH1 0x40 MLOAD DUP1 SWAP2 SUB SWAP1 RETURN JUMPDEST PUSH2 0x27A PUSH1 0x4 DUP1 CALLDATASIZE SUB DUP2 ADD SWAP1 PUSH2 0x275 SWAP2 SWAP1 PUSH2 0x1BE3 JUMP JUMPDEST PUSH2 0x825 JUMP JUMPDEST PUSH1 0x40 MLOAD PUSH2 0x288 SWAP3 SWAP2 SWAP1 PUSH2 0x1CE9 JUMP JUMPDEST PUSH1 0x40 MLOAD DUP1 SWAP2 SUB SWAP1 RETURN JUMPDEST PUSH2 0x2AB PUSH1 0x4 DUP1 CALLDATASIZE SUB DUP2 ADD SWAP1 PUSH2 0x2A6 SWAP2 SWAP1 PUSH2 0x1AE3 JUMP JUMPDEST PUSH2 0xB6D JUMP JUMPDEST STOP JUMPDEST PUSH2 0x2C7 PUSH1 0x4 DUP1 CALLDATASIZE SUB DUP2 ADD SWAP1 PUSH2 0x2C2 SWAP2 SWAP1 PUSH2 0x1AE3 JUMP JUMPDEST PUSH2 0xCB0 JUMP JUMPDEST STOP JUMPDEST PUSH2 0x2D1 PUSH2 0xDF3 JUMP JUMPDEST PUSH1 0x40 MLOAD PUSH2 0x2DE SWAP2 SWAP1 PUSH2 0x1B0E JUMP JUMPDEST PUSH1 0x40 MLOAD DUP1 SWAP2 SUB SWAP1 RETURN JUMPDEST PUSH2 0x2EF PUSH2 0xDF9 JUMP JUMPDEST PUSH1 0x40 MLOAD PUSH2 0x2FC SWAP2 SWAP1 PUSH2 0x1996 JUMP JUMPDEST PUSH1 0x40 MLOAD DUP1 SWAP2 SUB SWAP1 RETURN JUMPDEST PUSH2 0x31F PUSH1 0x4 DUP1 CALLDATASIZE SUB DUP2 ADD SWAP1 PUSH2 0x31A SWAP2 SWAP1 PUSH2 0x1D17 JUMP JUMPDEST PUSH2 0xE1D JUMP JUMPDEST STOP JUMPDEST PUSH2 0x329 PUSH2 0xFC6 JUMP JUMPDEST PUSH1 0x40 MLOAD PUSH2 0x336 SWAP2 SWAP1 PUSH2 0x1B0E JUMP JUMPDEST PUSH1 0x40 MLOAD DUP1 SWAP2 SUB SWAP1 RETURN JUMPDEST PUSH2 0x347 PUSH2 0xFCB JUMP JUMPDEST PUSH1 0x40 MLOAD PUSH2 0x354 SWAP2 SWAP1 PUSH2 0x1996 JUMP JUMPDEST PUSH1 0x40 MLOAD DUP1 SWAP2 SUB SWAP1 RETURN JUMPDEST PUSH2 0x377 PUSH1 0x4 DUP1 CALLDATASIZE SUB DUP2 ADD SWAP1 PUSH2 0x372 SWAP2 SWAP1 PUSH2 0x1BE3 JUMP JUMPDEST PUSH2 0xFF0 JUMP JUMPDEST STOP JUMPDEST PUSH2 0x381 PUSH2 0x16FA JUMP JUMPDEST PUSH1 0x40 MLOAD PUSH2 0x38E SWAP2 SWAP1 PUSH2 0x1DB0 JUMP JUMPDEST PUSH1 0x40 MLOAD DUP1 SWAP2 SUB SWAP1 RETURN JUMPDEST PUSH2 0x3B1 PUSH1 0x4 DUP1 CALLDATASIZE SUB DUP2 ADD SWAP1 PUSH2 0x3AC SWAP2 SWAP1 PUSH2 0x1AE3 JUMP JUMPDEST PUSH2 0x171F JUMP JUMPDEST STOP JUMPDEST PUSH2 0x3BB PUSH2 0x17E6 JUMP JUMPDEST PUSH1 0x40 MLOAD PUSH2 0x3C8 SWAP2 SWAP1 PUSH2 0x1996 JUMP JUMPDEST PUSH1 0x40 MLOAD DUP1 SWAP2 SUB SWAP1 RETURN JUMPDEST PUSH2 0x3EB PUSH1 0x4 DUP1 CALLDATASIZE SUB DUP2 ADD SWAP1 PUSH2 0x3E6 SWAP2 SWAP1 PUSH2 0x1DC9 JUMP JUMPDEST PUSH2 0x180B JUMP JUMPDEST PUSH1 0x40 MLOAD PUSH2 0x3F8 SWAP2 SWAP1 PUSH2 0x1B36 JUMP JUMPDEST PUSH1 0x40 MLOAD DUP1 SWAP2 SUB SWAP1 RETURN JUMPDEST PUSH1 0x4 PUSH0 SWAP1 SLOAD SWAP1 PUSH2 0x100 EXP SWAP1 DIV PUSH20 0xFFFFFFFFFFFFFFFFFFFFFFFFFFFFFFFFFFFFFFFF AND DUP2 JUMP JUMPDEST PUSH0 PUSH0 PUSH0 PUSH2 0x2710 PUSH2 0x1C2 DUP6 PUSH2 0x43A SWAP2 SWAP1 PUSH2 0x1E21 JUMP JUMPDEST PUSH2 0x444 SWAP2 SWAP1 PUSH2 0x1E8F JUMP JUMPDEST SWAP2 POP PUSH2 0x2710 PUSH1 0x64 DUP6 PUSH2 0x456 SWAP2 SWAP1 PUSH2 0x1E21 JUMP JUMPDEST PUSH2 0x460 SWAP2 SWAP1 PUSH2 0x1E8F JUMP JUMPDEST SWAP1 POP DUP1 DUP3 DUP6 PUSH2 0x46F SWAP2 SWAP1 PUSH2 0x1EBF JUMP JUMPDEST PUSH2 0x479 SWAP2 SWAP1 PUSH2 0x1EBF JUMP JUMPDEST SWAP3 POP SWAP2 SWAP4 SWAP1 SWAP3 POP JUMP JUMPDEST PUSH0 PUSH0 SWAP1 SLOAD SWAP1 PUSH2 0x100 EXP SWAP1 DIV PUSH20 0xFFFFFFFFFFFFFFFFFFFFFFFFFFFFFFFFFFFFFFFF AND PUSH20 0xFFFFFFFFFFFFFFFFFFFFFFFFFFFFFFFFFFFFFFFF AND CALLER PUSH20 0xFFFFFFFFFFFFFFFFFFFFFFFFFFFFFFFFFFFFFFFF AND EQ PUSH2 0x507 JUMPI PUSH1 0x40 MLOAD PUSH32 0x30CD747100000000000000000000000000000000000000000000000000000000 DUP2 MSTORE PUSH1 0x4 ADD PUSH1 0x40 MLOAD DUP1 SWAP2 SUB SWAP1 REVERT JUMPDEST DUP1 PUSH1 0x5 PUSH1 0x14 PUSH2 0x100 EXP DUP2 SLOAD DUP2 PUSH1 0xFF MUL NOT AND SWAP1 DUP4 ISZERO ISZERO MUL OR SWAP1 SSTORE POP PUSH32 0xE2FB031EE032DC02D8011DC50B816EB450CF856ABD8261680DAC74F72165BD2 DUP2 PUSH1 0x40 MLOAD PUSH2 0x550 SWAP2 SWAP1 PUSH2 0x1B36 JUMP JUMPDEST PUSH1 0x40 MLOAD DUP1 SWAP2 SUB SWAP1 LOG1 POP JUMP JUMPDEST PUSH0 PUSH0 SWAP1 SLOAD SWAP1 PUSH2 0x100 EXP SWAP1 DIV PUSH20 0xFFFFFFFFFFFFFFFFFFFFFFFFFFFFFFFFFFFFFFFF AND PUSH20 0xFFFFFFFFFFFFFFFFFFFFFFFFFFFFFFFFFFFFFFFF AND CALLER PUSH20 0xFFFFFFFFFFFFFFFFFFFFFFFFFFFFFFFFFFFFFFFF AND EQ PUSH2 0x5E0 JUMPI PUSH1 0x40 MLOAD PUSH32 0x30CD747100000000000000000000000000000000000000000000000000000000 DUP2 MSTORE PUSH1 0x4 ADD PUSH1 0x40 MLOAD DUP1 SWAP2 SUB SWAP1 REVERT JUMPDEST DUP1 PUSH20 0xFFFFFFFFFFFFFFFFFFFFFFFFFFFFFFFFFFFFFFFF AND PUSH1 0x4 PUSH0 SWAP1 SLOAD SWAP1 PUSH2 0x100 EXP SWAP1 DIV PUSH20 0xFFFFFFFFFFFFFFFFFFFFFFFFFFFFFFFFFFFFFFFF AND PUSH20 0xFFFFFFFFFFFFFFFFFFFFFFFFFFFFFFFFFFFFFFFF AND PUSH32 0xE678F864BCD4F50E0554D3B42D5A0007424F154C8B29D4845C7C727F319CFD92 PUSH1 0x40 MLOAD PUSH1 0x40 MLOAD DUP1 SWAP2 SUB SWAP1 LOG3 DUP1 PUSH1 0x4 PUSH0 PUSH2 0x100 EXP DUP2 SLOAD DUP2 PUSH20 0xFFFFFFFFFFFFFFFFFFFFFFFFFFFFFFFFFFFFFFFF MUL NOT AND SWAP1 DUP4 PUSH20 0xFFFFFFFFFFFFFFFFFFFFFFFFFFFFFFFFFFFFFFFF AND MUL OR SWAP1 SSTORE POP POP JUMP JUMPDEST PUSH1 0x1 PUSH0 SWAP1 SLOAD SWAP1 PUSH2 0x100 EXP SWAP1 DIV PUSH20 0xFFFFFFFFFFFFFFFFFFFFFFFFFFFFFFFFFFFFFFFF AND DUP2 JUMP JUMPDEST PUSH2 0x2710 DUP2 JUMP JUMPDEST PUSH0 PUSH0 SWAP1 SLOAD SWAP1 PUSH2 0x100 EXP SWAP1 DIV PUSH20 0xFFFFFFFFFFFFFFFFFFFFFFFFFFFFFFFFFFFFFFFF AND PUSH20 0xFFFFFFFFFFFFFFFFFFFFFFFFFFFFFFFFFFFFFFFF AND CALLER PUSH20 0xFFFFFFFFFFFFFFFFFFFFFFFFFFFFFFFFFFFFFFFF AND EQ PUSH2 0x74E JUMPI PUSH1 0x40 MLOAD PUSH32 0x30CD747100000000000000000000000000000000000000000000000000000000 DUP2 MSTORE PUSH1 0x4 ADD PUSH1 0x40 MLOAD DUP1 SWAP2 SUB SWAP1 REVERT JUMPDEST DUP1 PUSH20 0xFFFFFFFFFFFFFFFFFFFFFFFFFFFFFFFFFFFFFFFF AND PUSH1 0x3 PUSH0 SWAP1 SLOAD SWAP1 PUSH2 0x100 EXP SWAP1 DIV PUSH20 0xFFFFFFFFFFFFFFFFFFFFFFFFFFFFFFFFFFFFFFFF AND PUSH20 0xFFFFFFFFFFFFFFFFFFFFFFFFFFFFFFFFFFFFFFFF AND PUSH32 0x95EE0EF5B75494271372B2583BC15B87408EE97EE99EF93C011AB8C3132DC265 PUSH1 0x40 MLOAD PUSH1 0x40 MLOAD DUP1 SWAP2 SUB SWAP1 LOG3 DUP1 PUSH1 0x3 PUSH0 PUSH2 0x100 EXP DUP2 SLOAD DUP2 PUSH20 0xFFFFFFFFFFFFFFFFFFFFFFFFFFFFFFFFFFFFFFFF MUL NOT AND SWAP1 DUP4 PUSH20 0xFFFFFFFFFFFFFFFFFFFFFFFFFFFFFFFFFFFFFFFF AND MUL OR SWAP1 SSTORE POP POP JUMP JUMPDEST PUSH2 0x24EA DUP2 JUMP JUMPDEST PUSH1 0x5 PUSH1 0x14 SWAP1 SLOAD SWAP1 PUSH2 0x100 EXP SWAP1 DIV PUSH1 0xFF AND DUP2 JUMP JUMPDEST PUSH0 PUSH1 0x60 PUSH1 0x5 PUSH1 0x14 SWAP1 SLOAD SWAP1 PUSH2 0x100 EXP SWAP1 DIV PUSH1 0xFF AND ISZERO PUSH2 0x87D JUMPI PUSH0 PUSH1 0x40 MLOAD DUP1 PUSH1 0x40 ADD PUSH1 0x40 MSTORE DUP1 PUSH1 0x6 DUP2 MSTORE PUSH1 0x20 ADD PUSH32 0x7061757365640000000000000000000000000000000000000000000000000000 DUP2 MSTORE POP SWAP2 POP SWAP2 POP PUSH2 0xB62 JUMP JUMPDEST PUSH0 DUP8 SUB PUSH2 0x8C4 JUMPI PUSH0 PUSH1 0x40 MLOAD DUP1 PUSH1 0x40 ADD PUSH1 0x40 MSTORE DUP1 PUSH1 0xB DUP2 MSTORE PUSH1 0x20 ADD PUSH32 0x7A65726F20616D6F756E74000000000000000000000000000000000000000000 DUP2 MSTORE POP SWAP2 POP SWAP2 POP PUSH2 0xB62 JUMP JUMPDEST DUP5 TIMESTAMP GT ISZERO PUSH2 0x90C JUMPI PUSH0 PUSH1 0x40 MLOAD DUP1 PUSH1 0x40 ADD PUSH1 0x40 MSTORE DUP1 PUSH1 0x7 DUP2 MSTORE PUSH1 0x20 ADD PUSH32 0x6578706972656400000000000000000000000000000000000000000000000000 DUP2 MSTORE POP SWAP2 POP SWAP2 POP PUSH2 0xB62 JUMP JUMPDEST PUSH1 0x6 PUSH0 DUP8 DUP2 MSTORE PUSH1 0x20 ADD SWAP1 DUP2 MSTORE PUSH1 0x20 ADD PUSH0 KECCAK256 PUSH0 SWAP1 SLOAD SWAP1 PUSH2 0x100 EXP SWAP1 DIV PUSH1 0xFF AND ISZERO PUSH2 0x96F JUMPI PUSH0 PUSH1 0x40 MLOAD DUP1 PUSH1 0x40 ADD PUSH1 0x40 MSTORE DUP1 PUSH1 0xA DUP2 MSTORE PUSH1 0x20 ADD PUSH32 0x6E6F6E6365207573656400000000000000000000000000000000000000000000 DUP2 MSTORE POP SWAP2 POP SWAP2 POP PUSH2 0xB62 JUMP JUMPDEST DUP7 PUSH1 0x5 PUSH0 SWAP1 SLOAD SWAP1 PUSH2 0x100 EXP SWAP1 DIV PUSH20 0xFFFFFFFFFFFFFFFFFFFFFFFFFFFFFFFFFFFFFFFF AND PUSH20 0xFFFFFFFFFFFFFFFFFFFFFFFFFFFFFFFFFFFFFFFF AND PUSH4 0x70A08231 PUSH1 0x2 PUSH0 SWAP1 SLOAD SWAP1 PUSH2 0x100 EXP SWAP1 DIV PUSH20 0xFFFFFFFFFFFFFFFFFFFFFFFFFFFFFFFFFFFFFFFF AND PUSH1 0x40 MLOAD DUP3 PUSH4 0xFFFFFFFF AND PUSH1 0xE0 SHL DUP2 MSTORE PUSH1 0x4 ADD PUSH2 0x9EB SWAP2 SWAP1 PUSH2 0x1996 JUMP JUMPDEST PUSH1 0x20 PUSH1 0x40 MLOAD DUP1 DUP4 SUB DUP2 DUP7 GAS STATICCALL ISZERO DUP1 ISZERO PUSH2 0xA06 JUMPI RETURNDATASIZE PUSH0 PUSH0 RETURNDATACOPY RETURNDATASIZE PUSH0 REVERT JUMPDEST POP POP POP POP PUSH1 0x40 MLOAD RETURNDATASIZE PUSH1 0x1F NOT PUSH1 0x1F DUP3 ADD AND DUP3 ADD DUP1 PUSH1 0x40 MSTORE POP DUP2 ADD SWAP1 PUSH2 0xA2A SWAP2 SWAP1 PUSH2 0x1F06 JUMP JUMPDEST LT ISZERO PUSH2 0xA70 JUMPI PUSH0 PUSH1 0x40 MLOAD DUP1 PUSH1 0x40 ADD PUSH1 0x40 MSTORE DUP1 PUSH1 0x1A DUP2 MSTORE PUSH1 0x20 ADD PUSH32 0x696E73756666696369656E74207661756C742062616C616E6365000000000000 DUP2 MSTORE POP SWAP2 POP SWAP2 POP PUSH2 0xB62 JUMP JUMPDEST PUSH0 PUSH2 0xA7D DUP10 DUP10 DUP10 DUP10 PUSH2 0x1828 JUMP JUMPDEST SWAP1 POP PUSH0 PUSH2 0xA8B DUP3 DUP8 DUP8 PUSH2 0x188F JUMP JUMPDEST SWAP1 POP PUSH1 0x1 PUSH0 SWAP1 SLOAD SWAP1 PUSH2 0x100 EXP SWAP1 DIV PUSH20 0xFFFFFFFFFFFFFFFFFFFFFFFFFFFFFFFFFFFFFFFF AND PUSH20 0xFFFFFFFFFFFFFFFFFFFFFFFFFFFFFFFFFFFFFFFF AND DUP2 PUSH20 0xFFFFFFFFFFFFFFFFFFFFFFFFFFFFFFFFFFFFFFFF AND EQ PUSH2 0xB23 JUMPI PUSH0 PUSH1 0x40 MLOAD DUP1 PUSH1 0x40 ADD PUSH1 0x40 MSTORE DUP1 PUSH1 0x11 DUP2 MSTORE PUSH1 0x20 ADD PUSH32 0x696E76616C6964207369676E6174757265000000000000000000000000000000 DUP2 MSTORE POP SWAP4 POP SWAP4 POP POP POP PUSH2 0xB62 JUMP JUMPDEST PUSH1 0x1 PUSH1 0x40 MLOAD DUP1 PUSH1 0x40 ADD PUSH1 0x40 MSTORE DUP1 PUSH1 0x2 DUP2 MSTORE PUSH1 0x20 ADD PUSH32 0x6F6B000000000000000000000000000000000000000000000000000000000000 DUP2 MSTORE POP SWAP4 POP SWAP4 POP POP POP JUMPDEST SWAP7 POP SWAP7 SWAP5 POP POP POP POP POP JUMP JUMPDEST PUSH0 PUSH0 SWAP1 SLOAD SWAP1 PUSH2 0x100 EXP SWAP1 DIV PUSH20 0xFFFFFFFFFFFFFFFFFFFFFFFFFFFFFFFFFFFFFFFF AND PUSH20 0xFFFFFFFFFFFFFFFFFFFFFFFFFFFFFFFFFFFFFFFF AND CALLER PUSH20 0xFFFFFFFFFFFFFFFFFFFFFFFFFFFFFFFFFFFFFFFF AND EQ PUSH2 0xBF2 JUMPI PUSH1 0x40 MLOAD PUSH32 0x30CD747100000000000000000000000000000000000000000000000000000000 DUP2 MSTORE PUSH1 0x4 ADD PUSH1 0x40 MLOAD DUP1 SWAP2 SUB SWAP1 REVERT JUMPDEST DUP1 PUSH20 0xFFFFFFFFFFFFFFFFFFFFFFFFFFFFFFFFFFFFFFFF AND PUSH1 0x2 PUSH0 SWAP1 SLOAD SWAP1 PUSH2 0x100 EXP SWAP1 DIV PUSH20 0xFFFFFFFFFFFFFFFFFFFFFFFFFFFFFFFFFFFFFFFF AND PUSH20 0xFFFFFFFFFFFFFFFFFFFFFFFFFFFFFFFFFFFFFFFF AND PUSH32 0x483BDEDAAF23706A9800AC1AF0D852B34927780D79F9D6BA60A80C7CAD75EA39 PUSH1 0x40 MLOAD PUSH1 0x40 MLOAD DUP1 SWAP2 SUB SWAP1 LOG3 DUP1 PUSH1 0x2 PUSH0 PUSH2 0x100 EXP DUP2 SLOAD DUP2 PUSH20 0xFFFFFFFFFFFFFFFFFFFFFFFFFFFFFFFFFFFFFFFF MUL NOT AND SWAP1 DUP4 PUSH20 0xFFFFFFFFFFFFFFFFFFFFFFFFFFFFFFFFFFFFFFFF AND MUL OR SWAP1 SSTORE POP POP JUMP JUMPDEST PUSH0 PUSH0 SWAP1 SLOAD SWAP1 PUSH2 0x100 EXP SWAP1 DIV PUSH20 0xFFFFFFFFFFFFFFFFFFFFFFFFFFFFFFFFFFFFFFFF AND PUSH20 0xFFFFFFFFFFFFFFFFFFFFFFFFFFFFFFFFFFFFFFFF AND CALLER PUSH20 0xFFFFFFFFFFFFFFFFFFFFFFFFFFFFFFFFFFFFFFFF AND EQ PUSH2 0xD35 JUMPI PUSH1 0x40 MLOAD PUSH32 0x30CD747100000000000000000000000000000000000000000000000000000000 DUP2 MSTORE PUSH1 0x4 ADD PUSH1 0x40 MLOAD DUP1 SWAP2 SUB SWAP1 REVERT JUMPDEST DUP1 PUSH20 0xFFFFFFFFFFFFFFFFFFFFFFFFFFFFFFFFFFFFFFFF AND PUSH1 0x1 PUSH0 SWAP1 SLOAD SWAP1 PUSH2 0x100 EXP SWAP1 DIV PUSH20 0xFFFFFFFFFFFFFFFFFFFFFFFFFFFFFFFFFFFFFFFF AND PUSH20 0xFFFFFFFFFFFFFFFFFFFFFFFFFFFFFFFFFFFFFFFF AND PUSH32 0x2D025324F0A785E8C12D0A0D91A9CAA49DF4EF20FF87E0DF7213A1D4F3157BEB PUSH1 0x40 MLOAD PUSH1 0x40 MLOAD DUP1 SWAP2 SUB SWAP1 LOG3 DUP1 PUSH1 0x1 PUSH0 PUSH2 0x100 EXP DUP2 SLOAD DUP2 PUSH20 0xFFFFFFFFFFFFFFFFFFFFFFFFFFFFFFFFFFFFFFFF MUL NOT AND SWAP1 DUP4 PUSH20 0xFFFFFFFFFFFFFFFFFFFFFFFFFFFFFFFFFFFFFFFF AND MUL OR SWAP1 SSTORE POP POP JUMP JUMPDEST PUSH2 0x1C2 DUP2 JUMP JUMPDEST PUSH0 PUSH0 SWAP1 SLOAD SWAP1 PUSH2 0x100 EXP SWAP1 DIV PUSH20 0xFFFFFFFFFFFFFFFFFFFFFFFFFFFFFFFFFFFFFFFF AND DUP2 JUMP JUMPDEST PUSH0 PUSH0 SWAP1 SLOAD SWAP1 PUSH2 0x100 EXP SWAP1 DIV PUSH20 0xFFFFFFFFFFFFFFFFFFFFFFFFFFFFFFFFFFFFFFFF AND PUSH20 0xFFFFFFFFFFFFFFFFFFFFFFFFFFFFFFFFFFFFFFFF AND CALLER PUSH20 0xFFFFFFFFFFFFFFFFFFFFFFFFFFFFFFFFFFFFFFFF AND EQ PUSH2 0xEA2 JUMPI PUSH1 0x40 MLOAD PUSH32 0x30CD747100000000000000000000000000000000000000000000000000000000 DUP2 MSTORE PUSH1 0x4 ADD PUSH1 0x40 MLOAD DUP1 SWAP2 SUB SWAP1 REVERT JUMPDEST PUSH1 0x5 PUSH0 SWAP1 SLOAD SWAP1 PUSH2 0x100 EXP SWAP1 DIV PUSH20 0xFFFFFFFFFFFFFFFFFFFFFFFFFFFFFFFFFFFFFFFF AND PUSH20 0xFFFFFFFFFFFFFFFFFFFFFFFFFFFFFFFFFFFFFFFF AND PUSH4 0xA9059CBB DUP4 DUP4 PUSH1 0x40 MLOAD DUP4 PUSH4 0xFFFFFFFF AND PUSH1 0xE0 SHL DUP2 MSTORE PUSH1 0x4 ADD PUSH2 0xEFE SWAP3 SWAP2 SWAP1 PUSH2 0x1F31 JUMP JUMPDEST PUSH1 0x20 PUSH1 0x40 MLOAD DUP1 DUP4 SUB DUP2 PUSH0 DUP8 GAS CALL ISZERO DUP1 ISZERO PUSH2 0xF1A JUMPI RETURNDATASIZE PUSH0 PUSH0 RETURNDATACOPY RETURNDATASIZE PUSH0 REVERT JUMPDEST POP POP POP POP PUSH1 0x40 MLOAD RETURNDATASIZE PUSH1 0x1F NOT PUSH1 0x1F DUP3 ADD AND DUP3 ADD DUP1 PUSH1 0x40 MSTORE POP DUP2 ADD SWAP1 PUSH2 0xF3E SWAP2 SWAP1 PUSH2 0x1F6C JUMP JUMPDEST PUSH2 0xF74 JUMPI PUSH1 0x40 MLOAD PUSH32 0x90B8EC1800000000000000000000000000000000000000000000000000000000 DUP2 MSTORE PUSH1 0x4 ADD PUSH1 0x40 MLOAD DUP1 SWAP2 SUB SWAP1 REVERT JUMPDEST DUP2 PUSH20 0xFFFFFFFFFFFFFFFFFFFFFFFFFFFFFFFFFFFFFFFF AND PUSH32 0x5FAFA99D0643513820BE26656B45130B01E1C03062E1266BF36F88CBD3BD9695 DUP3 PUSH1 0x40 MLOAD PUSH2 0xFBA SWAP2 SWAP1 PUSH2 0x1B0E JUMP JUMPDEST PUSH1 0x40 MLOAD DUP1 SWAP2 SUB SWAP1 LOG2 POP POP JUMP JUMPDEST PUSH1 0x64 DUP2 JUMP JUMPDEST PUSH1 0x3 PUSH0 SWAP1 SLOAD SWAP1 PUSH2 0x100 EXP SWAP1 DIV PUSH20 0xFFFFFFFFFFFFFFFFFFFFFFFFFFFFFFFFFFFFFFFF AND DUP2 JUMP JUMPDEST PUSH1 0x5 PUSH1 0x14 SWAP1 SLOAD SWAP1 PUSH2 0x100 EXP SWAP1 DIV PUSH1 0xFF AND ISZERO PUSH2 0x1037 JUMPI PUSH1 0x40 MLOAD PUSH32 0xAB35696F00000000000000000000000000000000000000000000000000000000 DUP2 MSTORE PUSH1 0x4 ADD PUSH1 0x40 MLOAD DUP1 SWAP2 SUB SWAP1 REVERT JUMPDEST PUSH0 DUP6 SUB PUSH2 0x1070 JUMPI PUSH1 0x40 MLOAD PUSH32 0x1F2A200500000000000000000000000000000000000000000000000000000000 DUP2 MSTORE PUSH1 0x4 ADD PUSH1 0x40 MLOAD DUP1 SWAP2 SUB SWAP1 REVERT JUMPDEST DUP3 TIMESTAMP GT ISZERO PUSH2 0x10AA JUMPI PUSH1 0x40 MLOAD PUSH32 0x82A49D9E00000000000000000000000000000000000000000000000000000000 DUP2 MSTORE PUSH1 0x4 ADD PUSH1 0x40 MLOAD DUP1 SWAP2 SUB SWAP1 REVERT JUMPDEST PUSH1 0x6 PUSH0 DUP6 DUP2 MSTORE PUSH1 0x20 ADD SWAP1 DUP2 MSTORE PUSH1 0x20 ADD PUSH0 KECCAK256 PUSH0 SWAP1 SLOAD SWAP1 PUSH2 0x100 EXP SWAP1 DIV PUSH1 0xFF AND ISZERO PUSH2 0x10FF JUMPI PUSH1 0x40 MLOAD PUSH32 0x1F6D5AEF00000000000000000000000000000000000000000000000000000000 DUP2 MSTORE PUSH1 0x4 ADD PUSH1 0x40 MLOAD DUP1 SWAP2 SUB SWAP1 REVERT JUMPDEST DUP6 PUSH20 0xFFFFFFFFFFFFFFFFFFFFFFFFFFFFFFFFFFFFFFFF AND CALLER PUSH20 0xFFFFFFFFFFFFFFFFFFFFFFFFFFFFFFFFFFFFFFFF AND EQ PUSH2 0x1164 JUMPI PUSH1 0x40 MLOAD PUSH32 0x8BAA579F00000000000000000000000000000000000000000000000000000000 DUP2 MSTORE PUSH1 0x4 ADD PUSH1 0x40 MLOAD DUP1 SWAP2 SUB SWAP1 REVERT JUMPDEST PUSH0 PUSH2 0x1171 DUP8 DUP8 DUP8 DUP8 PUSH2 0x1828 JUMP JUMPDEST SWAP1 POP PUSH0 PUSH2 0x117F DUP3 DUP6 DUP6 PUSH2 0x188F JUMP JUMPDEST SWAP1 POP PUSH1 0x1 PUSH0 SWAP1 SLOAD SWAP1 PUSH2 0x100 EXP SWAP1 DIV PUSH20 0xFFFFFFFFFFFFFFFFFFFFFFFFFFFFFFFFFFFFFFFF AND PUSH20 0xFFFFFFFFFFFFFFFFFFFFFFFFFFFFFFFFFFFFFFFF AND DUP2 PUSH20 0xFFFFFFFFFFFFFFFFFFFFFFFFFFFFFFFFFFFFFFFF AND EQ PUSH2 0x1207 JUMPI PUSH1 0x40 MLOAD PUSH32 0x8BAA579F00000000000000000000000000000000000000000000000000000000 DUP2 MSTORE PUSH1 0x4 ADD PUSH1 0x40 MLOAD DUP1 SWAP2 SUB SWAP1 REVERT JUMPDEST PUSH0 PUSH2 0x2710 PUSH2 0x1C2 DUP10 PUSH2 0x1219 SWAP2 SWAP1 PUSH2 0x1E21 JUMP JUMPDEST PUSH2 0x1223 SWAP2 SWAP1 PUSH2 0x1E8F JUMP JUMPDEST SWAP1 POP PUSH0 PUSH2 0x2710 PUSH1 0x64 DUP11 PUSH2 0x1236 SWAP2 SWAP1 PUSH2 0x1E21 JUMP JUMPDEST PUSH2 0x1240 SWAP2 SWAP1 PUSH2 0x1E8F JUMP JUMPDEST SWAP1 POP PUSH0 DUP2 DUP4 DUP12 PUSH2 0x1250 SWAP2 SWAP1 PUSH2 0x1EBF JUMP JUMPDEST PUSH2 0x125A SWAP2 SWAP1 PUSH2 0x1EBF JUMP JUMPDEST SWAP1 POP DUP10 PUSH1 0x5 PUSH0 SWAP1 SLOAD SWAP1 PUSH2 0x100 EXP SWAP1 DIV PUSH20 0xFFFFFFFFFFFFFFFFFFFFFFFFFFFFFFFFFFFFFFFF AND PUSH20 0xFFFFFFFFFFFFFFFFFFFFFFFFFFFFFFFFFFFFFFFF AND PUSH4 0x70A08231 PUSH1 0x2 PUSH0 SWAP1 SLOAD SWAP1 PUSH2 0x100 EXP SWAP1 DIV PUSH20 0xFFFFFFFFFFFFFFFFFFFFFFFFFFFFFFFFFFFFFFFF AND PUSH1 0x40 MLOAD DUP3 PUSH4 0xFFFFFFFF AND PUSH1 0xE0 SHL DUP2 MSTORE PUSH1 0x4 ADD PUSH2 0x12D8 SWAP2 SWAP1 PUSH2 0x1996 JUMP JUMPDEST PUSH1 0x20 PUSH1 0x40 MLOAD DUP1 DUP4 SUB DUP2 DUP7 GAS STATICCALL ISZERO DUP1 ISZERO PUSH2 0x12F3 JUMPI RETURNDATASIZE PUSH0 PUSH0 RETURNDATACOPY RETURNDATASIZE PUSH0 REVERT JUMPDEST POP POP POP POP PUSH1 0x40 MLOAD RETURNDATASIZE PUSH1 0x1F NOT PUSH1 0x1F DUP3 ADD AND DUP3 ADD DUP1 PUSH1 0x40 MSTORE POP DUP2 ADD SWAP1 PUSH2 0x1317 SWAP2 SWAP1 PUSH2 0x1F06 JUMP JUMPDEST LT ISZERO PUSH2 0x134F JUMPI PUSH1 0x40 MLOAD PUSH32 0x14ECD6C700000000000000000000000000000000000000000000000000000000 DUP2 MSTORE PUSH1 0x4 ADD PUSH1 0x40 MLOAD DUP1 SWAP2 SUB SWAP1 REVERT JUMPDEST PUSH1 0x1 PUSH1 0x6 PUSH0 DUP12 DUP2 MSTORE PUSH1 0x20 ADD SWAP1 DUP2 MSTORE PUSH1 0x20 ADD PUSH0 KECCAK256 PUSH0 PUSH2 0x100 EXP DUP2 SLOAD DUP2 PUSH1 0xFF MUL NOT AND SWAP1 DUP4 ISZERO ISZERO MUL OR SWAP1 SSTORE POP PUSH1 0x5 PUSH0 SWAP1 SLOAD SWAP1 PUSH2 0x100 EXP SWAP1 DIV PUSH20 0xFFFFFFFFFFFFFFFFFFFFFFFFFFFFFFFFFFFFFFFF AND PUSH20 0xFFFFFFFFFFFFFFFFFFFFFFFFFFFFFFFFFFFFFFFF AND PUSH4 0x23B872DD PUSH1 0x2 PUSH0 SWAP1 SLOAD SWAP1 PUSH2 0x100 EXP SWAP1 DIV PUSH20 0xFFFFFFFFFFFFFFFFFFFFFFFFFFFFFFFFFFFFFFFF AND DUP14 DUP5 PUSH1 0x40 MLOAD DUP5 PUSH4 0xFFFFFFFF AND PUSH1 0xE0 SHL DUP2 MSTORE PUSH1 0x4 ADD PUSH2 0x13F7 SWAP4 SWAP3 SWAP2 SWAP1 PUSH2 0x1F97 JUMP JUMPDEST PUSH1 0x20 PUSH1 0x40 MLOAD DUP1 DUP4 SUB DUP2 PUSH0 DUP8 GAS CALL ISZERO DUP1 ISZERO PUSH2 0x1413 JUMPI RETURNDATASIZE PUSH0 PUSH0 RETURNDATACOPY RETURNDATASIZE PUSH0 REVERT JUMPDEST POP POP POP POP PUSH1 0x40 MLOAD RETURNDATASIZE PUSH1 0x1F NOT PUSH1 0x1F DUP3 ADD AND DUP3 ADD DUP1 PUSH1 0x40 MSTORE POP DUP2 ADD SWAP1 PUSH2 0x1437 SWAP2 SWAP1 PUSH2 0x1F6C JUMP JUMPDEST PUSH2 0x146D JUMPI PUSH1 0x40 MLOAD PUSH32 0x90B8EC1800000000000000000000000000000000000000000000000000000000 DUP2 MSTORE PUSH1 0x4 ADD PUSH1 0x40 MLOAD DUP1 SWAP2 SUB SWAP1 REVERT JUMPDEST PUSH1 0x5 PUSH0 SWAP1 SLOAD SWAP1 PUSH2 0x100 EXP SWAP1 DIV PUSH20 0xFFFFFFFFFFFFFFFFFFFFFFFFFFFFFFFFFFFFFFFF AND PUSH20 0xFFFFFFFFFFFFFFFFFFFFFFFFFFFFFFFFFFFFFFFF AND PUSH4 0x23B872DD PUSH1 0x2 PUSH0 SWAP1 SLOAD SWAP1 PUSH2 0x100 EXP SWAP1 DIV PUSH20 0xFFFFFFFFFFFFFFFFFFFFFFFFFFFFFFFFFFFFFFFF AND PUSH1 0x3 PUSH0 SWAP1 SLOAD SWAP1 PUSH2 0x100 EXP SWAP1 DIV PUSH20 0xFFFFFFFFFFFFFFFFFFFFFFFFFFFFFFFFFFFFFFFF AND DUP7 PUSH1 0x40 MLOAD DUP5 PUSH4 0xFFFFFFFF AND PUSH1 0xE0 SHL DUP2 MSTORE PUSH1 0x4 ADD PUSH2 0x150D SWAP4 SWAP3 SWAP2 SWAP1 PUSH2 0x1F97 JUMP JUMPDEST PUSH1 0x20 PUSH1 0x40 MLOAD DUP1 DUP4 SUB DUP2 PUSH0 DUP8 GAS CALL ISZERO DUP1 ISZERO PUSH2 0x1529 JUMPI RETURNDATASIZE PUSH0 PUSH0 RETURNDATACOPY RETURNDATASIZE PUSH0 REVERT JUMPDEST POP POP POP POP PUSH1 0x40 MLOAD RETURNDATASIZE PUSH1 0x1F NOT PUSH1 0x1F DUP3 ADD AND DUP3 ADD DUP1 PUSH1 0x40 MSTORE POP DUP2 ADD SWAP1 PUSH2 0x154D SWAP2 SWAP1 PUSH2 0x1F6C JUMP JUMPDEST PUSH2 0x1583 JUMPI PUSH1 0x40 MLOAD PUSH32 0x90B8EC1800000000000000000000000000000000000000000000000000000000 DUP2 MSTORE PUSH1 0x4 ADD PUSH1 0x40 MLOAD DUP1 SWAP2 SUB SWAP1 REVERT JUMPDEST PUSH1 0x5 PUSH0 SWAP1 SLOAD SWAP1 PUSH2 0x100 EXP SWAP1 DIV PUSH20 0xFFFFFFFFFFFFFFFFFFFFFFFFFFFFFFFFFFFFFFFF AND PUSH20 0xFFFFFFFFFFFFFFFFFFFFFFFFFFFFFFFFFFFFFFFF AND PUSH4 0x23B872DD PUSH1 0x2 PUSH0 SWAP1 SLOAD SWAP1 PUSH2 0x100 EXP SWAP1 DIV PUSH20 0xFFFFFFFFFFFFFFFFFFFFFFFFFFFFFFFFFFFFFFFF AND PUSH1 0x4 PUSH0 SWAP1 SLOAD SWAP1 PUSH2 0x100 EXP SWAP1 DIV PUSH20 0xFFFFFFFFFFFFFFFFFFFFFFFFFFFFFFFFFFFFFFFF AND DUP6 PUSH1 0x40 MLOAD DUP5 PUSH4 0xFFFFFFFF AND PUSH1 0xE0 SHL DUP2 MSTORE PUSH1 0x4 ADD PUSH2 0x1623 SWAP4 SWAP3 SWAP2 SWAP1 PUSH2 0x1F97 JUMP JUMPDEST PUSH1 0x20 PUSH1 0x40 MLOAD DUP1 DUP4 SUB DUP2 PUSH0 DUP8 GAS CALL ISZERO DUP1 ISZERO PUSH2 0x163F JUMPI RETURNDATASIZE PUSH0 PUSH0 RETURNDATACOPY RETURNDATASIZE PUSH0 REVERT JUMPDEST POP POP POP POP PUSH1 0x40 MLOAD RETURNDATASIZE PUSH1 0x1F NOT PUSH1 0x1F DUP3 ADD AND DUP3 ADD DUP1 PUSH1 0x40 MSTORE POP DUP2 ADD SWAP1 PUSH2 0x1663 SWAP2 SWAP1 PUSH2 0x1F6C JUMP JUMPDEST PUSH2 0x1699 JUMPI PUSH1 0x40 MLOAD PUSH32 0x90B8EC1800000000000000000000000000000000000000000000000000000000 DUP2 MSTORE PUSH1 0x4 ADD PUSH1 0x40 MLOAD DUP1 SWAP2 SUB SWAP1 REVERT JUMPDEST DUP11 PUSH20 0xFFFFFFFFFFFFFFFFFFFFFFFFFFFFFFFFFFFFFFFF AND PUSH32 0xCD827817EFD761AE05FE6DF882E96A826F460E64AD6954603C5A2E959CF21487 DUP3 DUP6 DUP6 DUP14 PUSH1 0x40 MLOAD PUSH2 0x16E5 SWAP5 SWAP4 SWAP3 SWAP2 SWAP1 PUSH2 0x1FDB JUMP JUMPDEST PUSH1 0x40 MLOAD DUP1 SWAP2 SUB SWAP1 LOG2 POP POP POP POP POP POP POP POP POP POP POP JUMP JUMPDEST PUSH1 0x5 PUSH0 SWAP1 SLOAD SWAP1 PUSH2 0x100 EXP SWAP1 DIV PUSH20 0xFFFFFFFFFFFFFFFFFFFFFFFFFFFFFFFFFFFFFFFF AND DUP2 JUMP JUMPDEST PUSH0 PUSH0 SWAP1 SLOAD SWAP1 PUSH2 0x100 EXP SWAP1 DIV PUSH20 0xFFFFFFFFFFFFFFFFFFFFFFFFFFFFFFFFFFFFFFFF AND PUSH20 0xFFFFFFFFFFFFFFFFFFFFFFFFFFFFFFFFFFFFFFFF AND CALLER PUSH20 0xFFFFFFFFFFFFFFFFFFFFFFFFFFFFFFFFFFFFFFFF AND EQ PUSH2 0x17A4 JUMPI PUSH1 0x40 MLOAD PUSH32 0x30CD747100000000000000000000000000000000000000000000000000000000 DUP2 MSTORE PUSH1 0x4 ADD PUSH1 0x40 MLOAD DUP1 SWAP2 SUB SWAP1 REVERT JUMPDEST DUP1 PUSH0 PUSH0 PUSH2 0x100 EXP DUP2 SLOAD DUP2 PUSH20 0xFFFFFFFFFFFFFFFFFFFFFFFFFFFFFFFFFFFFFFFF MUL NOT AND SWAP1 DUP4 PUSH20 0xFFFFFFFFFFFFFFFFFFFFFFFFFFFFFFFFFFFFFFFF AND MUL OR SWAP1 SSTORE POP POP JUMP JUMPDEST PUSH1 0x2 PUSH0 SWAP1 SLOAD SWAP1 PUSH2 0x100 EXP SWAP1 DIV PUSH20 0xFFFFFFFFFFFFFFFFFFFFFFFFFFFFFFFFFFFFFFFF AND DUP2 JUMP JUMPDEST PUSH1 0x6 PUSH1 0x20 MSTORE DUP1 PUSH0 MSTORE PUSH1 0x40 PUSH0 KECCAK256 PUSH0 SWAP2 POP SLOAD SWAP1 PUSH2 0x100 EXP SWAP1 DIV PUSH1 0xFF AND DUP2 JUMP JUMPDEST PUSH0 PUSH0 CHAINID ADDRESS DUP8 DUP8 DUP8 DUP8 PUSH1 0x40 MLOAD PUSH1 0x20 ADD PUSH2 0x1845 SWAP7 SWAP6 SWAP5 SWAP4 SWAP3 SWAP2 SWAP1 PUSH2 0x20A3 JUMP JUMPDEST PUSH1 0x40 MLOAD PUSH1 0x20 DUP2 DUP4 SUB SUB DUP2 MSTORE SWAP1 PUSH1 0x40 MSTORE DUP1 MLOAD SWAP1 PUSH1 0x20 ADD KECCAK256 SWAP1 POP DUP1 PUSH1 0x40 MLOAD PUSH1 0x20 ADD PUSH2 0x186E SWAP2 SWAP1 PUSH2 0x2166 JUMP JUMPDEST PUSH1 0x40 MLOAD PUSH1 0x20 DUP2 DUP4 SUB SUB DUP2 MSTORE SWAP1 PUSH1 0x40 MSTORE DUP1 MLOAD SWAP1 PUSH1 0x20 ADD KECCAK256 SWAP2 POP POP SWAP5 SWAP4 POP POP POP POP JUMP JUMPDEST PUSH0 PUSH1 0x41 DUP4 DUP4 SWAP1 POP EQ PUSH2 0x18A3 JUMPI PUSH0 SWAP1 POP PUSH2 0x1950 JUMP JUMPDEST PUSH0 PUSH0 PUSH0 DUP6 CALLDATALOAD SWAP3 POP PUSH1 0x20 DUP7 ADD CALLDATALOAD SWAP2 POP PUSH1 0x40 DUP7 ADD CALLDATALOAD PUSH0 BYTE SWAP1 POP PUSH1 0x1B DUP2 PUSH1 0xFF AND LT ISZERO PUSH2 0x18D6 JUMPI PUSH1 0x1B DUP2 PUSH2 0x18D3 SWAP2 SWAP1 PUSH2 0x2197 JUMP JUMPDEST SWAP1 POP JUMPDEST PUSH1 0x1B DUP2 PUSH1 0xFF AND EQ ISZERO DUP1 ISZERO PUSH2 0x18EE JUMPI POP PUSH1 0x1C DUP2 PUSH1 0xFF AND EQ ISZERO JUMPDEST ISZERO PUSH2 0x18FE JUMPI PUSH0 SWAP4 POP POP POP POP PUSH2 0x1950 JUMP JUMPDEST PUSH1 0x1 DUP8 DUP3 DUP6 DUP6 PUSH1 0x40 MLOAD PUSH0 DUP2 MSTORE PUSH1 0x20 ADD PUSH1 0x40 MSTORE PUSH1 0x40 MLOAD PUSH2 0x1920 SWAP5 SWAP4 SWAP3 SWAP2 SWAP1 PUSH2 0x21DA JUMP JUMPDEST PUSH1 0x20 PUSH1 0x40 MLOAD PUSH1 0x20 DUP2 SUB SWAP1 DUP1 DUP5 SUB SWAP1 DUP6 GAS STATICCALL ISZERO DUP1 ISZERO PUSH2 0x1940 JUMPI RETURNDATASIZE PUSH0 PUSH0 RETURNDATACOPY RETURNDATASIZE PUSH0 REVERT JUMPDEST POP POP POP PUSH1 0x20 PUSH1 0x40 MLOAD SUB MLOAD SWAP4 POP POP POP POP JUMPDEST SWAP4 SWAP3 POP POP POP JUMP JUMPDEST PUSH0 PUSH20 0xFFFFFFFFFFFFFFFFFFFFFFFFFFFFFFFFFFFFFFFF DUP3 AND SWAP1 POP SWAP2 SWAP1 POP JUMP JUMPDEST PUSH0 PUSH2 0x1980 DUP3 PUSH2 0x1957 JUMP JUMPDEST SWAP1 POP SWAP2 SWAP1 POP JUMP JUMPDEST PUSH2 0x1990 DUP2 PUSH2 0x1976 JUMP JUMPDEST DUP3 MSTORE POP POP JUMP JUMPDEST PUSH0 PUSH1 0x20 DUP3 ADD SWAP1 POP PUSH2 0x19A9 PUSH0 DUP4 ADD DUP5 PUSH2 0x1987 JUMP JUMPDEST SWAP3 SWAP2 POP POP JUMP JUMPDEST PUSH0 PUSH0 REVERT JUMPDEST PUSH0 PUSH0 REVERT JUMPDEST PUSH0 DUP2 SWAP1 POP SWAP2 SWAP1 POP JUMP JUMPDEST PUSH2 0x19C9 DUP2 PUSH2 0x19B7 JUMP JUMPDEST DUP2 EQ PUSH2 0x19D3 JUMPI PUSH0 PUSH0 REVERT JUMPDEST POP JUMP JUMPDEST PUSH0 DUP2 CALLDATALOAD SWAP1 POP PUSH2 0x19E4 DUP2 PUSH2 0x19C0 JUMP JUMPDEST SWAP3 SWAP2 POP POP JUMP JUMPDEST PUSH0 PUSH1 0x20 DUP3 DUP5 SUB SLT ISZERO PUSH2 0x19FF JUMPI PUSH2 0x19FE PUSH2 0x19AF JUMP JUMPDEST JUMPDEST PUSH0 PUSH2 0x1A0C DUP5 DUP3 DUP6 ADD PUSH2 0x19D6 JUMP JUMPDEST SWAP2 POP POP SWAP3 SWAP2 POP POP JUMP JUMPDEST PUSH2 0x1A1E DUP2 PUSH2 0x19B7 JUMP JUMPDEST DUP3 MSTORE POP POP JUMP JUMPDEST PUSH0 PUSH1 0x60 DUP3 ADD SWAP1 POP PUSH2 0x1A37 PUSH0 DUP4 ADD DUP7 PUSH2 0x1A15 JUMP JUMPDEST PUSH2 0x1A44 PUSH1 0x20 DUP4 ADD DUP6 PUSH2 0x1A15 JUMP JUMPDEST PUSH2 0x1A51 PUSH1 0x40 DUP4 ADD DUP5 PUSH2 0x1A15 JUMP JUMPDEST SWAP5 SWAP4 POP POP POP POP JUMP JUMPDEST PUSH0 DUP2 ISZERO ISZERO SWAP1 POP SWAP2 SWAP1 POP JUMP JUMPDEST PUSH2 0x1A6D DUP2 PUSH2 0x1A59 JUMP JUMPDEST DUP2 EQ PUSH2 0x1A77 JUMPI PUSH0 PUSH0 REVERT JUMPDEST POP JUMP JUMPDEST PUSH0 DUP2 CALLDATALOAD SWAP1 POP PUSH2 0x1A88 DUP2 PUSH2 0x1A64 JUMP JUMPDEST SWAP3 SWAP2 POP POP JUMP JUMPDEST PUSH0 PUSH1 0x20 DUP3 DUP5 SUB SLT ISZERO PUSH2 0x1AA3 JUMPI PUSH2 0x1AA2 PUSH2 0x19AF JUMP JUMPDEST JUMPDEST PUSH0 PUSH2 0x1AB0 DUP5 DUP3 DUP6 ADD PUSH2 0x1A7A JUMP JUMPDEST SWAP2 POP POP SWAP3 SWAP2 POP POP JUMP JUMPDEST PUSH2 0x1AC2 DUP2 PUSH2 0x1976 JUMP JUMPDEST DUP2 EQ PUSH2 0x1ACC JUMPI PUSH0 PUSH0 REVERT JUMPDEST POP JUMP JUMPDEST PUSH0 DUP2 CALLDATALOAD SWAP1 POP PUSH2 0x1ADD DUP2 PUSH2 0x1AB9 JUMP JUMPDEST SWAP3 SWAP2 POP POP JUMP JUMPDEST PUSH0 PUSH1 0x20 DUP3 DUP5 SUB SLT ISZERO PUSH2 0x1AF8 JUMPI PUSH2 0x1AF7 PUSH2 0x19AF JUMP JUMPDEST JUMPDEST PUSH0 PUSH2 0x1B05 DUP5 DUP3 DUP6 ADD PUSH2 0x1ACF JUMP JUMPDEST SWAP2 POP POP SWAP3 SWAP2 POP POP JUMP JUMPDEST PUSH0 PUSH1 0x20 DUP3 ADD SWAP1 POP PUSH2 0x1B21 PUSH0 DUP4 ADD DUP5 PUSH2 0x1A15 JUMP JUMPDEST SWAP3 SWAP2 POP POP JUMP JUMPDEST PUSH2 0x1B30 DUP2 PUSH2 0x1A59 JUMP JUMPDEST DUP3 MSTORE POP POP JUMP JUMPDEST PUSH0 PUSH1 0x20 DUP3 ADD SWAP1 POP PUSH2 0x1B49 PUSH0 DUP4 ADD DUP5 PUSH2 0x1B27 JUMP JUMPDEST SWAP3 SWAP2 POP POP JUMP JUMPDEST PUSH0 DUP2 SWAP1 POP SWAP2 SWAP1 POP JUMP JUMPDEST PUSH2 0x1B61 DUP2 PUSH2 0x1B4F JUMP JUMPDEST DUP2 EQ PUSH2 0x1B6B JUMPI PUSH0 PUSH0 REVERT JUMPDEST POP JUMP JUMPDEST PUSH0 DUP2 CALLDATALOAD SWAP1 POP PUSH2 0x1B7C DUP2 PUSH2 0x1B58 JUMP JUMPDEST SWAP3 SWAP2 POP POP JUMP JUMPDEST PUSH0 PUSH0 REVERT JUMPDEST PUSH0 PUSH0 REVERT JUMPDEST PUSH0 PUSH0 REVERT JUMPDEST PUSH0 PUSH0 DUP4 PUSH1 0x1F DUP5 ADD SLT PUSH2 0x1BA3 JUMPI PUSH2 0x1BA2 PUSH2 0x1B82 JUMP JUMPDEST JUMPDEST DUP3 CALLDATALOAD SWAP1 POP PUSH8 0xFFFFFFFFFFFFFFFF DUP2 GT ISZERO PUSH2 0x1BC0 JUMPI PUSH2 0x1BBF PUSH2 0x1B86 JUMP JUMPDEST JUMPDEST PUSH1 0x20 DUP4 ADD SWAP2 POP DUP4 PUSH1 0x1 DUP3 MUL DUP4 ADD GT ISZERO PUSH2 0x1BDC JUMPI PUSH2 0x1BDB PUSH2 0x1B8A JUMP JUMPDEST JUMPDEST SWAP3 POP SWAP3 SWAP1 POP JUMP JUMPDEST PUSH0 PUSH0 PUSH0 PUSH0 PUSH0 PUSH0 PUSH1 0xA0 DUP8 DUP10 SUB SLT ISZERO PUSH2 0x1BFD JUMPI PUSH2 0x1BFC PUSH2 0x19AF JUMP JUMPDEST JUMPDEST PUSH0 PUSH2 0x1C0A DUP10 DUP3 DUP11 ADD PUSH2 0x1ACF JUMP JUMPDEST SWAP7 POP POP PUSH1 0x20 PUSH2 0x1C1B DUP10 DUP3 DUP11 ADD PUSH2 0x19D6 JUMP JUMPDEST SWAP6 POP POP PUSH1 0x40 PUSH2 0x1C2C DUP10 DUP3 DUP11 ADD PUSH2 0x1B6E JUMP JUMPDEST SWAP5 POP POP PUSH1 0x60 PUSH2 0x1C3D DUP10 DUP3 DUP11 ADD PUSH2 0x19D6 JUMP JUMPDEST SWAP4 POP POP PUSH1 0x80 DUP8 ADD CALLDATALOAD PUSH8 0xFFFFFFFFFFFFFFFF DUP2 GT ISZERO PUSH2 0x1C5E JUMPI PUSH2 0x1C5D PUSH2 0x19B3 JUMP JUMPDEST JUMPDEST PUSH2 0x1C6A DUP10 DUP3 DUP11 ADD PUSH2 0x1B8E JUMP JUMPDEST SWAP3 POP SWAP3 POP POP SWAP3 SWAP6 POP SWAP3 SWAP6 POP SWAP3 SWAP6 JUMP JUMPDEST PUSH0 DUP2 MLOAD SWAP1 POP SWAP2 SWAP1 POP JUMP JUMPDEST PUSH0 DUP3 DUP3 MSTORE PUSH1 0x20 DUP3 ADD SWAP1 POP SWAP3 SWAP2 POP POP JUMP JUMPDEST DUP3 DUP2 DUP4 MCOPY PUSH0 DUP4 DUP4 ADD MSTORE POP POP POP JUMP JUMPDEST PUSH0 PUSH1 0x1F NOT PUSH1 0x1F DUP4 ADD AND SWAP1 POP SWAP2 SWAP1 POP JUMP JUMPDEST PUSH0 PUSH2 0x1CBB DUP3 PUSH2 0x1C79 JUMP JUMPDEST PUSH2 0x1CC5 DUP2 DUP6 PUSH2 0x1C83 JUMP JUMPDEST SWAP4 POP PUSH2 0x1CD5 DUP2 DUP6 PUSH1 0x20 DUP7 ADD PUSH2 0x1C93 JUMP JUMPDEST PUSH2 0x1CDE DUP2 PUSH2 0x1CA1 JUMP JUMPDEST DUP5 ADD SWAP2 POP POP SWAP3 SWAP2 POP POP JUMP JUMPDEST PUSH0 PUSH1 0x40 DUP3 ADD SWAP1 POP PUSH2 0x1CFC PUSH0 DUP4 ADD DUP6 PUSH2 0x1B27 JUMP JUMPDEST DUP2 DUP2 SUB PUSH1 0x20 DUP4 ADD MSTORE PUSH2 0x1D0E DUP2 DUP5 PUSH2 0x1CB1 JUMP JUMPDEST SWAP1 POP SWAP4 SWAP3 POP POP POP JUMP JUMPDEST PUSH0 PUSH0 PUSH1 0x40 DUP4 DUP6 SUB SLT ISZERO PUSH2 0x1D2D JUMPI PUSH2 0x1D2C PUSH2 0x19AF JUMP JUMPDEST JUMPDEST PUSH0 PUSH2 0x1D3A DUP6 DUP3 DUP7 ADD PUSH2 0x1ACF JUMP JUMPDEST SWAP3 POP POP PUSH1 0x20 PUSH2 0x1D4B DUP6 DUP3 DUP7 ADD PUSH2 0x19D6 JUMP JUMPDEST SWAP2 POP POP SWAP3 POP SWAP3 SWAP1 POP JUMP JUMPDEST PUSH0 DUP2 SWAP1 POP SWAP2 SWAP1 POP JUMP JUMPDEST PUSH0 PUSH2 0x1D78 PUSH2 0x1D73 PUSH2 0x1D6E DUP5 PUSH2 0x1957 JUMP JUMPDEST PUSH2 0x1D55 JUMP JUMPDEST PUSH2 0x1957 JUMP JUMPDEST SWAP1 POP SWAP2 SWAP1 POP JUMP JUMPDEST PUSH0 PUSH2 0x1D89 DUP3 PUSH2 0x1D5E JUMP JUMPDEST SWAP1 POP SWAP2 SWAP1 POP JUMP JUMPDEST PUSH0 PUSH2 0x1D9A DUP3 PUSH2 0x1D7F JUMP JUMPDEST SWAP1 POP SWAP2 SWAP1 POP JUMP JUMPDEST PUSH2 0x1DAA DUP2 PUSH2 0x1D90 JUMP JUMPDEST DUP3 MSTORE POP POP JUMP JUMPDEST PUSH0 PUSH1 0x20 DUP3 ADD SWAP1 POP PUSH2 0x1DC3 PUSH0 DUP4 ADD DUP5 PUSH2 0x1DA1 JUMP JUMPDEST SWAP3 SWAP2 POP POP JUMP JUMPDEST PUSH0 PUSH1 0x20 DUP3 DUP5 SUB SLT ISZERO PUSH2 0x1DDE JUMPI PUSH2 0x1DDD PUSH2 0x19AF JUMP JUMPDEST JUMPDEST PUSH0 PUSH2 0x1DEB DUP5 DUP3 DUP6 ADD PUSH2 0x1B6E JUMP JUMPDEST SWAP2 POP POP SWAP3 SWAP2 POP POP JUMP JUMPDEST PUSH32 0x4E487B7100000000000000000000000000000000000000000000000000000000 PUSH0 MSTORE PUSH1 0x11 PUSH1 0x4 MSTORE PUSH1 0x24 PUSH0 REVERT JUMPDEST PUSH0 PUSH2 0x1E2B DUP3 PUSH2 0x19B7 JUMP JUMPDEST SWAP2 POP PUSH2 0x1E36 DUP4 PUSH2 0x19B7 JUMP JUMPDEST SWAP3 POP DUP3 DUP3 MUL PUSH2 0x1E44 DUP2 PUSH2 0x19B7 JUMP JUMPDEST SWAP2 POP DUP3 DUP3 DIV DUP5 EQ DUP4 ISZERO OR PUSH2 0x1E5B JUMPI PUSH2 0x1E5A PUSH2 0x1DF4 JUMP JUMPDEST JUMPDEST POP SWAP3 SWAP2 POP POP JUMP JUMPDEST PUSH32 0x4E487B7100000000000000000000000000000000000000000000000000000000 PUSH0 MSTORE PUSH1 0x12 PUSH1 0x4 MSTORE PUSH1 0x24 PUSH0 REVERT JUMPDEST PUSH0 PUSH2 0x1E99 DUP3 PUSH2 0x19B7 JUMP JUMPDEST SWAP2 POP PUSH2 0x1EA4 DUP4 PUSH2 0x19B7 JUMP JUMPDEST SWAP3 POP DUP3 PUSH2 0x1EB4 JUMPI PUSH2 0x1EB3 PUSH2 0x1E62 JUMP JUMPDEST JUMPDEST DUP3 DUP3 DIV SWAP1 POP SWAP3 SWAP2 POP POP JUMP JUMPDEST PUSH0 PUSH2 0x1EC9 DUP3 PUSH2 0x19B7 JUMP JUMPDEST SWAP2 POP PUSH2 0x1ED4 DUP4 PUSH2 0x19B7 JUMP JUMPDEST SWAP3 POP DUP3 DUP3 SUB SWAP1 POP DUP2 DUP2 GT ISZERO PUSH2 0x1EEC JUMPI PUSH2 0x1EEB PUSH2 0x1DF4 JUMP JUMPDEST JUMPDEST SWAP3 SWAP2 POP POP JUMP JUMPDEST PUSH0 DUP2 MLOAD SWAP1 POP PUSH2 0x1F00 DUP2 PUSH2 0x19C0 JUMP JUMPDEST SWAP3 SWAP2 POP POP JUMP JUMPDEST PUSH0 PUSH1 0x20 DUP3 DUP5 SUB SLT ISZERO PUSH2 0x1F1B JUMPI PUSH2 0x1F1A PUSH2 0x19AF JUMP JUMPDEST JUMPDEST PUSH0 PUSH2 0x1F28 DUP5 DUP3 DUP6 ADD PUSH2 0x1EF2 JUMP JUMPDEST SWAP2 POP POP SWAP3 SWAP2 POP POP JUMP JUMPDEST PUSH0 PUSH1 0x40 DUP3 ADD SWAP1 POP PUSH2 0x1F44 PUSH0 DUP4 ADD DUP6 PUSH2 0x1987 JUMP JUMPDEST PUSH2 0x1F51 PUSH1 0x20 DUP4 ADD DUP5 PUSH2 0x1A15 JUMP JUMPDEST SWAP4 SWAP3 POP POP POP JUMP JUMPDEST PUSH0 DUP2 MLOAD SWAP1 POP PUSH2 0x1F66 DUP2 PUSH2 0x1A64 JUMP JUMPDEST SWAP3 SWAP2 POP POP JUMP JUMPDEST PUSH0 PUSH1 0x20 DUP3 DUP5 SUB SLT ISZERO PUSH2 0x1F81 JUMPI PUSH2 0x1F80 PUSH2 0x19AF JUMP JUMPDEST JUMPDEST PUSH0 PUSH2 0x1F8E DUP5 DUP3 DUP6 ADD PUSH2 0x1F58 JUMP JUMPDEST SWAP2 POP POP SWAP3 SWAP2 POP POP JUMP JUMPDEST PUSH0 PUSH1 0x60 DUP3 ADD SWAP1 POP PUSH2 0x1FAA PUSH0 DUP4 ADD DUP7 PUSH2 0x1987 JUMP JUMPDEST PUSH2 0x1FB7 PUSH1 0x20 DUP4 ADD DUP6 PUSH2 0x1987 JUMP JUMPDEST PUSH2 0x1FC4 PUSH1 0x40 DUP4 ADD DUP5 PUSH2 0x1A15 JUMP JUMPDEST SWAP5 SWAP4 POP POP POP POP JUMP JUMPDEST PUSH2 0x1FD5 DUP2 PUSH2 0x1B4F JUMP JUMPDEST DUP3 MSTORE POP POP JUMP JUMPDEST PUSH0 PUSH1 0x80 DUP3 ADD SWAP1 POP PUSH2 0x1FEE PUSH0 DUP4 ADD DUP8 PUSH2 0x1A15 JUMP JUMPDEST PUSH2 0x1FFB PUSH1 0x20 DUP4 ADD DUP7 PUSH2 0x1A15 JUMP JUMPDEST PUSH2 0x2008 PUSH1 0x40 DUP4 ADD DUP6 PUSH2 0x1A15 JUMP JUMPDEST PUSH2 0x2015 PUSH1 0x60 DUP4 ADD DUP5 PUSH2 0x1FCC JUMP JUMPDEST SWAP6 SWAP5 POP POP POP POP POP JUMP JUMPDEST PUSH0 DUP2 SWAP1 POP SWAP2 SWAP1 POP JUMP JUMPDEST PUSH2 0x2038 PUSH2 0x2033 DUP3 PUSH2 0x19B7 JUMP JUMPDEST PUSH2 0x201E JUMP JUMPDEST DUP3 MSTORE POP POP JUMP JUMPDEST PUSH0 DUP2 PUSH1 0x60 SHL SWAP1 POP SWAP2 SWAP1 POP JUMP JUMPDEST PUSH0 PUSH2 0x2054 DUP3 PUSH2 0x203E JUMP JUMPDEST SWAP1 POP SWAP2 SWAP1 POP JUMP JUMPDEST PUSH0 PUSH2 0x2065 DUP3 PUSH2 0x204A JUMP JUMPDEST SWAP1 POP SWAP2 SWAP1 POP JUMP JUMPDEST PUSH2 0x207D PUSH2 0x2078 DUP3 PUSH2 0x1976 JUMP JUMPDEST PUSH2 0x205B JUMP JUMPDEST DUP3 MSTORE POP POP JUMP JUMPDEST PUSH0 DUP2 SWAP1 POP SWAP2 SWAP1 POP JUMP JUMPDEST PUSH2 0x209D PUSH2 0x2098 DUP3 PUSH2 0x1B4F JUMP JUMPDEST PUSH2 0x2083 JUMP JUMPDEST DUP3 MSTORE POP POP JUMP JUMPDEST PUSH0 PUSH2 0x20AE DUP3 DUP10 PUSH2 0x2027 JUMP JUMPDEST PUSH1 0x20 DUP3 ADD SWAP2 POP PUSH2 0x20BE DUP3 DUP9 PUSH2 0x206C JUMP JUMPDEST PUSH1 0x14 DUP3 ADD SWAP2 POP PUSH2 0x20CE DUP3 DUP8 PUSH2 0x206C JUMP JUMPDEST PUSH1 0x14 DUP3 ADD SWAP2 POP PUSH2 0x20DE DUP3 DUP7 PUSH2 0x2027 JUMP JUMPDEST PUSH1 0x20 DUP3 ADD SWAP2 POP PUSH2 0x20EE DUP3 DUP6 PUSH2 0x208C JUMP JUMPDEST PUSH1 0x20 DUP3 ADD SWAP2 POP PUSH2 0x20FE DUP3 DUP5 PUSH2 0x2027 JUMP JUMPDEST PUSH1 0x20 DUP3 ADD SWAP2 POP DUP2 SWAP1 POP SWAP8 SWAP7 POP POP POP POP POP POP POP JUMP JUMPDEST PUSH0 DUP2 SWAP1 POP SWAP3 SWAP2 POP POP JUMP JUMPDEST PUSH32 0x19457468657265756D205369676E6564204D6573736167653A0A333200000000 PUSH0 DUP3 ADD MSTORE POP JUMP JUMPDEST PUSH0 PUSH2 0x2150 PUSH1 0x1C DUP4 PUSH2 0x2112 JUMP JUMPDEST SWAP2 POP PUSH2 0x215B DUP3 PUSH2 0x211C JUMP JUMPDEST PUSH1 0x1C DUP3 ADD SWAP1 POP SWAP2 SWAP1 POP JUMP JUMPDEST PUSH0 PUSH2 0x2170 DUP3 PUSH2 0x2144 JUMP JUMPDEST SWAP2 POP PUSH2 0x217C DUP3 DUP5 PUSH2 0x208C JUMP JUMPDEST PUSH1 0x20 DUP3 ADD SWAP2 POP DUP2 SWAP1 POP SWAP3 SWAP2 POP POP JUMP JUMPDEST PUSH0 PUSH1 0xFF DUP3 AND SWAP1 POP SWAP2 SWAP1 POP JUMP JUMPDEST PUSH0 PUSH2 0x21A1 DUP3 PUSH2 0x218B JUMP JUMPDEST SWAP2 POP PUSH2 0x21AC DUP4 PUSH2 0x218B JUMP JUMPDEST SWAP3 POP DUP3 DUP3 ADD SWAP1 POP PUSH1 0xFF DUP2 GT ISZERO PUSH2 0x21C5 JUMPI PUSH2 0x21C4 PUSH2 0x1DF4 JUMP JUMPDEST JUMPDEST SWAP3 SWAP2 POP POP JUMP JUMPDEST PUSH2 0x21D4 DUP2 PUSH2 0x218B JUMP JUMPDEST DUP3 MSTORE POP POP JUMP JUMPDEST PUSH0 PUSH1 0x80 DUP3 ADD SWAP1 POP PUSH2 0x21ED PUSH0 DUP4 ADD DUP8 PUSH2 0x1FCC JUMP JUMPDEST PUSH2 0x21FA PUSH1 0x20 DUP4 ADD DUP7 PUSH2 0x21CB JUMP JUMPDEST PUSH2 0x2207 PUSH1 0x40 DUP4 ADD DUP6 PUSH2 0x1FCC JUMP JUMPDEST PUSH2 0x2214 PUSH1 0x60 DUP4 ADD DUP5 PUSH2 0x1FCC JUMP JUMPDEST SWAP6 SWAP5 POP POP POP POP POP JUMP INVALID LOG2 PUSH5 0x6970667358 0x22 SLT KECCAK256 SAR 0xF 0xC8 0xE9 0xD5 PUSH14 0x71857FCA96DEB6A630CE9E453B4E 0x22 JUMPI 0x2F BYTE NUMBER LOG1 SSTORE 0xA5 0xD0 0xBE 0xDB LOG0 PUSH5 0x736F6C6343 STOP ADDMOD 0x1E STOP CALLER "
				},
				"gasEstimates": {
					"creation": {
						"codeDepositCost": "1757400",
						"executionCost": "infinite",
						"totalCost": "infinite"
					},
					"external": {
						"BPS()": "348",
						"BURN_BPS()": "436",
						"PLAYER_BPS()": "392",
						"POT_BPS()": "370",
						"bfToken()": "infinite",
						"burnWallet()": "2532",
						"claimPrize(address,uint256,bytes32,uint256,bytes)": "infinite",
						"emergencyWithdraw(address,uint256)": "infinite",
						"isClaimValid(address,uint256,bytes32,uint256,bytes)": "infinite",
						"owner()": "2574",
						"paused()": "2606",
						"potWallet()": "2530",
						"previewSplit(uint256)": "infinite",
						"setBurnWallet(address)": "30653",
						"setPaused(bool)": "infinite",
						"setPotWallet(address)": "30608",
						"setSigner(address)": "30586",
						"setVault(address)": "30696",
						"signer()": "2620",
						"transferOwnership(address)": "26970",
						"usedNonces(bytes32)": "2917",
						"vault()": "2618"
					},
					"internal": {
						"_buildHash(address,uint256,bytes32,uint256)": "infinite",
						"_recover(bytes32,bytes calldata)": "infinite"
					}
				},
				"methodIdentifiers": {
					"BPS()": "249d39e9",
					"BURN_BPS()": "a37a9fc0",
					"PLAYER_BPS()": "3ded61d6",
					"POT_BPS()": "77a64fd5",
					"bfToken()": "ca5fa061",
					"burnWallet()": "06228749",
					"claimPrize(address,uint256,bytes32,uint256,bytes)": "bf3b80f6",
					"emergencyWithdraw(address,uint256)": "95ccea67",
					"isClaimValid(address,uint256,bytes32,uint256,bytes)": "65d5ab8c",
					"owner()": "8da5cb5b",
					"paused()": "5c975abb",
					"potWallet()": "b38c4eef",
					"previewSplit(uint256)": "13a6c05f",
					"setBurnWallet(address)": "1c4ba3ed",
					"setPaused(bool)": "16c38b3c",
					"setPotWallet(address)": "35ef11c0",
					"setSigner(address)": "6c19e783",
					"setVault(address)": "6817031b",
					"signer()": "238ac933",
					"transferOwnership(address)": "f2fde38b",
					"usedNonces(bytes32)": "feb61724",
					"vault()": "fbfa77cf"
				}
			},
			"storageLayout": {
				"storage": [
					{
						"astId": 44,
						"contract": "BFPayout.sol:BFPayout",
						"label": "owner",
						"offset": 0,
						"slot": "0",
						"type": "t_address"
					},
					{
						"astId": 46,
						"contract": "BFPayout.sol:BFPayout",
						"label": "signer",
						"offset": 0,
						"slot": "1",
						"type": "t_address"
					},
					{
						"astId": 48,
						"contract": "BFPayout.sol:BFPayout",
						"label": "vault",
						"offset": 0,
						"slot": "2",
						"type": "t_address"
					},
					{
						"astId": 50,
						"contract": "BFPayout.sol:BFPayout",
						"label": "potWallet",
						"offset": 0,
						"slot": "3",
						"type": "t_address"
					},
					{
						"astId": 52,
						"contract": "BFPayout.sol:BFPayout",
						"label": "burnWallet",
						"offset": 0,
						"slot": "4",
						"type": "t_address"
					},
					{
						"astId": 55,
						"contract": "BFPayout.sol:BFPayout",
						"label": "bfToken",
						"offset": 0,
						"slot": "5",
						"type": "t_contract(IERC20)30"
					},
					{
						"astId": 57,
						"contract": "BFPayout.sol:BFPayout",
						"label": "paused",
						"offset": 20,
						"slot": "5",
						"type": "t_bool"
					},
					{
						"astId": 61,
						"contract": "BFPayout.sol:BFPayout",
						"label": "usedNonces",
						"offset": 0,
						"slot": "6",
						"type": "t_mapping(t_bytes32,t_bool)"
					}
				],
				"types": {
					"t_address": {
						"encoding": "inplace",
						"label": "address",
						"numberOfBytes": "20"
					},
					"t_bool": {
						"encoding": "inplace",
						"label": "bool",
						"numberOfBytes": "1"
					},
					"t_bytes32": {
						"encoding": "inplace",
						"label": "bytes32",
						"numberOfBytes": "32"
					},
					"t_contract(IERC20)30": {
						"encoding": "inplace",
						"label": "contract IERC20",
						"numberOfBytes": "20"
					},
					"t_mapping(t_bytes32,t_bool)": {
						"encoding": "mapping",
						"key": "t_bytes32",
						"label": "mapping(bytes32 => bool)",
						"numberOfBytes": "32",
						"value": "t_bool"
					}
				}
			},
			"userdoc": {
				"kind": "user",
				"methods": {
					"claimPrize(address,uint256,bytes32,uint256,bytes)": {
						"notice": "Claim a BF prize. Splits 94.5% / 4.5% / 1% automatically."
					},
					"emergencyWithdraw(address,uint256)": {
						"notice": "Emergency: pull BF held directly by this contract (not the vault)"
					},
					"setBurnWallet(address)": {
						"notice": "Update burn address — use when switching to actual burn address"
					}
				},
				"version": 1
			}
		}
	}
}